:0400000022EF00F0FB
:100008005C829EB29DA201D09E92F2B4F2AA07D061
:10001800F2943C0ED76EB00ED626CCEC17F09EBCF0
:100028009DAC03D09E9CACEC17F09EBA9DAA04D060
:100038009D9AE2EC15F09D8A5C9211008FEF13F007
:100048004B0E0001636F26EF05F0250E7719D8B423
:100058000AD047C0D9FF48C0DAFF77C0DFFF474A58
:10006800482A26EF05F0000E716F000E706F000E23
:100078006F6F000E6E6F03D06E85494A4A2A49C0D9
:10008800F6FF4AC0F7FF0800F550300AD8B4F4D795
:1000980049C0F6FF4AC0F7FF0800F55082EC17F098
:1000A800D8A031D0000E0001716F000E706F70C0C3
:1000B80003F071C004F0000E066E0A0E056E2AECFD
:1000C80017F003C070F004C071F049C0F6FF4AC0D1
:1000D800F7FF0800F5CF4FF0D00E4F24506E516A4D
:1000E800FF0E512250500001702751507123494A88
:1000F8004A2A49C0F6FF4AC0F7FF0800F55082ECCB
:1001080017F0D8B0D4D749C0F6FF4AC0F7FF0800A7
:10011800F5502E0AD8A436D000016F8D494A4A2AD4
:10012800000E766F000E756F22D075C003F076C092
:1001380004F0000E066E0A0E056E2AEC17F003C0D6
:1001480075F004C076F049C0F6FF4AC0F7FF080012
:10015800F5CF4FF0D00E4F24506E516AFF0E51224A
:1001680050500001752751507623494A4A2A49C000
:10017800F6FF4AC0F7FF0800F55082EC17F0D8A048
:100188000AD0D3D7000E0001766F000E756F6F8905
:1001980002D06F8519D049C0F6FF4AC0F7FF494A17
:1001A8004A2A0800F5CF77F000017751000AD8B441
:1001B80033EF05F0640AD8B407D0020AD8B4E9D7F7
:1001C8000F0AD8A426EF05F0070E6F15D8B412D37E
:1001D8006FA904D0000E766F060E756F6351D96E45
:1001E800DA6ADECF72F0DECF73F0DDCF74F0030E83
:1001F800632774AF10D072C003F073C004F074C0EA
:1002080005F04FEC17F003C072F004C073F005C09E
:1002180074F0030E6E13000E6D6F000E6C6F72514A
:1002280073117411D8B486D0820E4F6EFF0E506EC3
:1002380072C051F073C052F074C053F075C054F0DE
:10024800100E05D0D8905432533252325132E82E23
:10025800F9D751504F246C6F000E50206D6F6C070A
:10026800D8A06D076CC003F06DC004F0000E066ED8
:10027800030E056E2AEC17F003C06CF004C06DF095
:100288006CC009F06DC00AF0000E0C6E0A0E0B6E01
:10029800B1EC11F009C06CF00AC06DF000016DAF4F
:1002A80003D06C07D8A06D076C51000841EC07F02B
:1002B80020C064F021C065F022C066F064C011F06F
:1002C80065C012F066C013F072C014F073C015F068
:1002D80074C016F0A6EC0DF011C064F012C065F001
:1002E80013C066F064C003F065C004F066C005F092
:1002F800000E066E800E076E3F0E086EEBEC12F0D5
:10030800D8B005D000016C07D8A06D0713D064C021
:1003180003F065C004F066C005F0000E066E200EFE
:10032800076E410E086EEBEC12F0D8A003D0000166
:100338006C4B6D2B000176BF06D076511BE10D0E7C
:10034800755DD8B017D072C02CF073C02DF074C092
:100358002EF07551F5EC08F020C02FF021C030F0D8
:1003680022C031F0BCEC0AF02CC072F02DC073F042
:100378002EC074F000016DBF06D06D5120E10A0E49
:100388006C5DD8B01CD0725173117411D8B456D0AA
:1003980072C038F073C039F074C03AF006EC0FF050
:1003A800385039103A103B10D8A448D000016DBF1E
:1003B80045D06D5104E1020E6C5DD8A03FD064C0F9
:1003C80003F065C004F066C005F0700E066E890E75
:1003D800076E400E086EEBEC12F0D8B003D00001A7
:1003E800F70E02D00001F80E6C27FF0E6D236C513A
:1003F80041EC07F020C064F021C065F022C066F02F
:1004080072C003F073C004F074C005F064C006F055
:1004180065C007F066C008F0ADEC0CF003C068F0EA
:1004280004C069F005C06AF006C06BF0000E000158
:10043800726F000E736F000E746F33D072C038F095
:1004480073C039F074C03AF006EC0FF038C068F0A9
:1004580039C069F03AC06AF03BC06BF072C038F03E
:1004680073C039F074C03AF068C00BF069C00CF082
:100478006AC00DF06BC00EF081EC14F00BC03BF0BD
:100488000CC03CF00DC03DF003EC16F038C072F023
:1004980039C073F03AC074F0000E00016D6F000EA1
:1004A8006C6F010E776F7751040D150EF324F66EFD
:1004B8007F0EF420F76E0900F550685D0900F550CD
:1004C80069590900F5506A590900F5506B59D8A0C7
:1004D80005D0772B0A0E7719D8A4E5D7775175255B
:1004E8004F6E000E7621506E6C514F266D51502282
:1004F8004F50705F5050715B75517611D8B403D06E
:100508007007D8A071076EC04FF0030E4F16D8B40D
:1005180003D07007D8A071076EA52DD06EC04FF01C
:10052800030E4F16D8B414D047C0D9FF48C0DAFF1D
:100538002D0EDF6E474A482A0BD047C0D9FF48C066
:10054800DAFF300EDF6E474A482A7007D8A07107D5
:1005580071BF6FD07151F1E17005D8A06AD0EDD7A5
:1005680047C0D9FF48C0DAFF200EDF6E474A482A45
:100578007007D8A0710771BF05D07151F1E17005FE
:10058800D8B0EED76EC04FF0030E4F16D8B451D086
:1005980047C0D9FF48C0DAFF2D0EDF6E474A482A08
:1005A80048D068C003F069C004F06AC005F06BC0A9
:1005B80006F07751040D150EF324F66E7F0EF42025
:1005C800F76E0900F5CF07F00900F5CF08F009002C
:1005D800F5CF09F00A00F5CF0AF0F2EC11F003C0EC
:1005E80064F004C065F005C066F006C067F064C03A
:1005F80010F065C011F066C012F067C013F00A0E63
:10060800146E000E156E000E166E000E176E5CEC62
:1006180013F010C064F011C065F012C066F013C08A
:1006280067F000016451300F47C0D9FF48C0DAFFB6
:10063800B4D777077729D8B40CD0B3D747C0D9FF38
:1006480048C0DAFF300EDF6E474A482A6C07D8A048
:100658006D076DBF05D06D51F1E16C05D8B0EED7CF
:1006680076BF09D0765104E1090E755DD8A003D094
:10067800080E776F02D075C077F07751755F000E5E
:10068800765B7751D8B408D047C0D9FF48C0DAFFA5
:100698002E0EDF6E474A482A775141EC07F020C0FA
:1006A80060F021C061F022C062F072C014F073C023
:1006B80015F074C016F060C011F061C012F062C08D
:1006C80013F0A6EC0DF011C038F012C039F013C0C9
:1006D8003AF006EC0FF038C068F039C069F03AC05B
:1006E8006AF03BC06BF070D068C003F069C004F0DA
:1006F8006AC005F06BC006F07751040D150EF3249F
:10070800F66E7F0EF420F76E0900F5CF07F00900AA
:10071800F5CF08F00900F5CF09F00A00F5CF0AF087
:10072800F2EC11F003C064F004C065F005C066F097
:1007380006C067F064C010F065C011F066C012F022
:1007480067C013F00A0E146E000E156E000E166EBA
:10075800000E176E5CEC13F010C064F011C065F069
:1007680012C066F013C067F000016451300F47C033
:10077800D9FF48C0DAFFDF6E474A482A68C010F040
:1007880069C011F06AC012F06BC013F07751040D04
:10079800150EF324F66E7F0EF420F76E0900F5CFE0
:1007A80014F00900F5CF15F00900F5CF16F00A008E
:1007B800F5CF17F05CEC13F010C068F011C069F0C9
:1007C80012C06AF013C06BF0000177077729D8B41C
:1007D8000CD08AD747C0D9FF48C0DAFF300EDF6E89
:1007E800474A482A7507D8A0760775517611D8B4B4
:1007F80029D1F0D76351D96EDA6ADECF68F0DDCF40
:1008080069F0000E69BFFF0E6A6F6B6F020E6327F7
:100818006BAF0AD0030E6E136B1F6A1F691F686DDA
:10082800000E69236A236B2375517611D8A408D06A
:10083800685169116A116B11D8A402D0754B762BD7
:10084800010E776F7751040D150EF324F66E7F0EA7
:10085800F420F76E0900F550685D0900F5506959F4
:100868000900F5506A590900F5506B59D8A005D010
:10087800772B0A0E7719D8A4E5D777514F6E506AAF
:1008880075514F5C5050800A516E7651800A51580C
:10089800D8B003D075C077F010D077514F6E506A3A
:1008A8004F50755D7651800A516E5050800A5158EC
:1008B800D8B003D077C075F0766B70517111D8B489
:1008C80009D06EC04FF0030E4F16D8B403D070078E
:1008D800D8A071076FAD13D07051755D7651800A3D
:1008E8004F6E7151800A4F58D8B005D07551705F5E
:1008F8007651715B04D0000E716F000E706F7751E6
:100908004F6E506A70514F5C5050800A516E715151
:10091800800A5158D8B005D07751705F000E715BCE
:1009280004D0000E716F000E706F6EA51ED06EC0E1
:100938004FF0030E4F16D8B408D047C0D9FF48C0AF
:10094800DAFF2D0EDF6E474A482A70517111D8B46C
:1009580071D047C0D9FF48C0DAFF300EDF6E474A72
:10096800482A7007D8A07107F0D770517111D8B410
:100978000FD047C0D9FF48C0DAFF200EDF6E474AC4
:10098800482A7007D8A0710770517111D8A4F1D7FF
:100998006EC04FF0030E4F16D8B44CD047C0D9FFE5
:1009A80048C0DAFF2D0EDF6E474A482A43D075C08B
:1009B8004FF076C050F0D8904F365036D8904F361A
:1009C8005036150E4F24F66E7F0E5020F76E090034
:1009D800F5CF07F00900F5CF08F00900F5CF09F0C9
:1009E8000A00F5CF0AF068C003F069C004F06AC0D5
:1009F80005F06BC006F0F2EC11F003C010F004C073
:100A080011F005C012F006C013F00A0E146E000EA5
:100A1800156E000E166E000E176E5CEC13F010507B
:100A2800300F0001776F47C0D9FF48C0DAFF77C0A1
:100A3800DFFFBAD77507D8A076077529B8E17629F8
:100A4800D8A4B5D749C0F6FF4AC0F7FF494A4A2A91
:100A58000800F5CF77F07751D8A429EF00F047C008
:100A6800D9FF48C0DAFFDF6A12002BEC11F0BB5047
:100A7800576E586AD89057365836D89057365836E1
:100A8800040E5724096E000E58200A6E000E0C6ED4
:100A9800640E0B6EB1EC11F009C0CEF00AC0CFF0B5
:100AA80073EC17F0070E0E6E000E0F6E7F0E106EB1
:100AB800000E52EC14F0000E9EEC17F0E2EC17F06A
:100AC800969082CF99F299C294F282B002D0010E28
:100AD80001D0000E02018C6F000E82B2010E8D6FE4
:100AE800010E826F936BD59EBA94010E896F8A6B43
:100AF800000ED36F320ED26F000E1E6E000E1D6EEA
:100B0800000E206E320E1F6E8FEC0BF0000E0201ED
:100B18008E6FC80E8F6F410E906FD2C297F2D3C2FC
:100B280098F2BE0E466E430E476E490E486E20EC94
:100B38000CF046C083F247C084F248C085F2000E2C
:100B48000201816F000E806F000E926F000E916F90
:100B580092BF06D0925118E1040E915DD8B014D01E
:100B680091059211D8B40CD09151020DF350B90FE0
:100B7800D96EDA6ADECF04F0DDCF05F0C1EC15F0EE
:100B88000201914B922BE4D78B6B886BC2B24DD08C
:100B9800C4EC17F003C095F204C096F2D8909535CE
:100BA800D96E9635DA6E9A0ED926020EDA2200012F
:100BB800C851DE1804E1C951DE18D8B41DD0D89048
:100BC80002019535D96E9635DA6E9A0ED926020E3F
:100BD800DA22C8C0DEFFC9C0DDFF060E95199611DE
:100BE800D8A403D0010E8B6F07D0070E9519961164
:100BF800D8A402D0010E886F060E0201951996112D
:100C0800D8A404D0000E876F070E08D0070E9519D8
:100C18009611D8A404D0000E876F060E866F86C280
:100C280003F087C204F0B9EC17F088C255F08B5175
:100C3800D2EC0FF002018B51D8B44CD0020E0E6EDC
:100C48003F0E0F6E7F0E106E020E52EC14F083C230
:100C58004BF084C24CF085C24DF0A6C24EF0A7C23C
:100C68004FF020EC0EF04BC08EF24CC08FF24DC00E
:100C780090F2000E476E020E486EF70E496E7F0E18
:100C88004A6E8EC24BF08FC24CF090C24DF024ECED
:100C980000F0100E1B6E000E1C6E020E1D6E020E72
:100CA800E3EC10F08EC247F08FC248F090C249F0D2
:100CB80031EC10F047C097F248C098F297C203F0A1
:100CC80098C204F0DBEC14F097C255F098C256F0C5
:100CD80058EC15F082CF99F202018C51D8A40CD0AF
:100CE80099C203F0000E046E000E056E94516FEC6D
:100CF80011F00009D8A404D00201D451D8B42DD0E1
:100D08000201D46B010E8C6F000E046E010E036E8F
:100D180077EC16F08EC247F08FC248F090C249F0C7
:100D280031EC10F047C097F248C098F297C203F030
:100D380098C204F0DBEC14F0D2C21DF0D3C21EF04E
:100D4800000E206E010E1F6E8FEC0BF097C255F04F
:100D580098C256F058EC15F011D08C51D8B40ED07A
:100D680099C203F0000E046E010E056E94516FECEB
:100D780011F00009D8B402D002018C6B02018D5128
:100D8800D8A40CD099C203F0010E046E010E056EB2
:100D980094516FEC11F00009D8A404D00201D55188
:100DA800D8B42BD00201D56B010E8D6FFF0E046EE7
:100DB800036877EC16F08EC247F08FC248F090C2F5
:100DC80049F031EC10F047C097F248C098F297C24A
:100DD80003F098C204F0DBEC14F0D2C21DF0D3C2C9
:100DE8001EF0FF0E206E1F688FEC0BF097C255F0B7
:100DF80098C256F058EC15F011D08D51D8B40ED0D9
:100E080099C203F0010E046E000E056E94516FEC4A
:100E180011F00009D8B402D002018D6B02019305CC
:100E2800D8A406D0D651D711D8A402D0010E8A6F03
:100E380099C203F0020E046E000E056E94516FEC19
:100E480011F00009D8A404D002018A51D8B40BD0FB
:100E580002019305D8B48A6B93517DEC15F0020119
:100E6800936F010E896F89C255F09351E7EC09F031
:100E78000201896F99C294F287D6266E26AED9D020
:100E8800266C2650800A120FD8A079D0000E0C6E5E
:100E98000A0E0B6E000E066E640E056E2650036E6B
:100EA800046A03BE040625EC13F003C009F004C06D
:100EB8000AF0B1EC11F0090E09260950030DEE0EE7
:100EC800F324F66E7A0EF420F76E0900F5CF14F0CD
:100ED8000900F5CF15F00A00F5CF16F0000E0C6EDC
:100EE800640E0B6E2650096E0A6A09BE0A06B1EC3A
:100EF80011F0120E09260950030DEE0EF324F66EBA
:100F08007A0EF420F76E0900F5CF11F00900F5CF3D
:100F180012F00A00F5CF13F0A6EC0DF011C023F083
:100F280012C024F013C025F023C011F024C012F021
:100F380025C013F0000E066E0A0E056E2650036ECD
:100F4800046A03BE040625EC13F00350030DEE0EED
:100F5800F324F66E7A0EF420F76E0900F5CF14F03C
:100F68000900F5CF15F00A00F5CF16F0A6EC0DF044
:100F780011C020F012C021F013C022F01200265038
:100F8800800A750FD8A043D0000E0C6E0A0E0B6EA7
:100F98002650096E0A6A09BE0A06B1EC11F0090E5C
:100FA80009260950030DEE0EF324F66E7A0EF4208E
:100FB800F76E0900F5CF11F00900F5CF12F00A001D
:100FC800F5CF13F0000E066E0A0E056E2650036E5E
:100FD800046A03BE040625EC13F00350030DEE0E5D
:100FE800F324F66E7A0EF420F76E0900F5CF14F0AC
:100FF8000900F5CF15F00A00F5CF16F0A6EC0DF0B4
:1010080011C020F012C021F013C022F012002650A7
:10101800030DEE0EF324F66E7A0EF420F76E090037
:10102800F5CF20F00900F5CF21F00A00F5CF22F026
:1010380012002650800A120FD8A079D0000E0C6E2C
:101048000A0E0B6E000E066E640E056E2650036EB9
:10105800046A03BE040625EC13F003C009F004C0BB
:101068000AF0B1EC11F0090E09260950030DC70E5C
:10107800F324F66E7A0EF420F76E0900F5CF14F01B
:101088000900F5CF15F00A00F5CF16F0000E0C6E2A
:10109800640E0B6E2650096E0A6A09BE0A06B1EC88
:1010A80011F0120E09260950030DC70EF324F66E2F
:1010B8007A0EF420F76E0900F5CF11F00900F5CF8C
:1010C80012F00A00F5CF13F0A6EC0DF011C023F0D2
:1010D80012C024F013C025F023C011F024C012F070
:1010E80025C013F0000E066E0A0E056E2650036E1C
:1010F800046A03BE040625EC13F00350030DC70E63
:10110800F324F66E7A0EF420F76E0900F5CF14F08A
:101118000900F5CF15F00A00F5CF16F0A6EC0DF092
:1011280011C020F012C021F013C022F01200265086
:10113800800A750FD8A043D0000E0C6E0A0E0B6EF5
:101148002650096E0A6A09BE0A06B1EC11F0090EAA
:1011580009260950030DC70EF324F66E7A0EF42003
:10116800F76E0900F5CF11F00900F5CF12F00A006B
:10117800F5CF13F0000E066E0A0E056E2650036EAC
:10118800046A03BE040625EC13F00350030DC70ED2
:10119800F324F66E7A0EF420F76E0900F5CF14F0FA
:1011A8000900F5CF15F00A00F5CF16F0A6EC0DF002
:1011B80011C020F012C021F013C022F012002650F6
:1011C800030DC70EF324F66E7A0EF420F76E0900AD
:1011D800F5CF20F00900F5CF21F00A00F5CF22F075
:1011E80012002B6E6D0E2B647CD00A0E076E640EF7
:1011F800036E2B5002EC17F040EC16F0236E2350D0
:10120800030D1B0EF326000EF422EE0EF324F66EE9
:101218007A0EF420F76E0900F5CF14F00900F5CF27
:1012280015F00A00F5CF16F0640E076E2B5040EC4F
:1012380016F0246E2450030D360EF326000EF42209
:10124800EE0EF324F66E7A0EF420F76E0900F5CF51
:1012580011F00900F5CF12F00A00F5CF13F0A6EC53
:101268000DF011C028F012C029F013C02AF00A0EA0
:10127800036E2B5002EC17F0236E2350030DEE0E75
:10128800F324F66E7A0EF420F76E0900F5CF14F009
:101298000900F5CF15F00A00F5CF16F028C011F0B7
:1012A80029C012F02AC013F0A6EC0DF011C025F0E9
:1012B80012C026F013C027F025C011F026C012F086
:1012C80027C013F0000E146E000E156E3F0E166E3A
:1012D800A6EC0DF011C020F012C021F013C022F0CE
:1012E80012000A0E2B644FD00A0E036E2B5002EC2C
:1012F80017F0236E2350030DEE0EF324F66E7A0ECC
:10130800F420F76E0900F5CF14F00900F5CF15F0B9
:101318000A00F5CF16F00A0E076E2B5040EC16F0B7
:10132800246E2450030D1B0EF326000EF422EE0E3D
:10133800F324F66E7A0EF420F76E0900F5CF11F05B
:101348000900F5CF12F00A00F5CF13F0A6EC0DF066
:1013580011C028F012C029F013C02AF028C011F0DB
:1013680029C012F02AC013F0000E146E000E156E7C
:101378003F0E166EA6EC0DF011C020F012C021F041
:1013880013C022F012002B50030DEE0EF324F66E5C
:101398007A0EF420F76E0900F5CF11F00900F5CFA9
:1013A80012F00A00F5CF13F0000E146E000E156E41
:1013B8003F0E166EA6EC0DF011C020F012C021F001
:1013C80013C022F01200566E5604D8A42FD0000184
:1013D800C551D8B42BD0D6C20AF0D7C20BF006EC50
:1013E80015F00AC0AAF00BC0ABF00CC0ACF00DC0F1
:1013F800ADF0000E476E010E486EE60E496E7F0E88
:101408004A6EAAC04BF0ABC04CF0ACC04DF0ADC0BA
:101418004EF024EC00F0140E1B6E000E1C6E010E34
:101428001D6E000EE3EC10F00001C56B5550D8B4EA
:101438009DD0010E0E6E3C0E0F6E7F0E106E010ECB
:1014480052EC14F0556A88D0780E476E486AF00E50
:10145800496E7F0E4A6E24EC00F0D6C20AF0D7C25D
:101468000BF006EC15F00AC0AAF00BC0ABF00CC0EC
:10147800ACF00DC0ADF0000E476E010E486EE60EE2
:10148800496E7F0E4A6EAAC04BF0ABC04CF0ACC0A0
:101498004DF0ADC04EF024EC00F0140E1B6E000EA3
:1014A8001C6E010E1D6E000EE3EC10F0130E1B6E89
:1014B800780E1C6E1D6A010EE3EC10F057D0780E02
:1014C800476E486AAE0E496E7F0E4A6E24EC00F0F5
:1014D8000E0E1B6E780E1C6E1D6A010EE3EC10F0EA
:1014E80045D0780E476E486ADC0E496E7F0E4A6E0C
:1014F80024EC00F0D6C20AF0D7C20BF006EC15F0C7
:101508000AC0AAF00BC0ABF00CC0ACF00DC0ADF037
:10151800000E476E010E486EE60E496E7F0E4A6E4B
:10152800AAC04BF0ABC04CF0ACC04DF0ADC04EF013
:1015380024EC00F0140E1B6E000E1C6E010E1D6EC6
:10154800000EE3EC10F0100E1B6E780E1C6E1D6A78
:10155800010EE3EC10F00AD05650000AD8B474D744
:10156800010AD8B4ACD7030AD8B4BBD75550120077
:101578002EC032F0336A346A2D34323601E33380B8
:101588003250376E31C032F0336A346A3034323612
:1015980001E333803250366E3750D8B40AD0365013
:1015A800375CD8B00DD03750365C326E180E3264C6
:1015B80007D02FC02CF030C02DF031C02EF0120013
:1015C8003650D8B40AD03750365CD8B00DD0365023
:1015D800375C326E180E326407D02CC02CF02DC048
:1015E8002DF02EC02EF01200060E356E2EBE358E52
:1015F80031BE358C2D8EFF0E2C16FF0E2D16000ECB
:101608002E16308EFF0E2F16FF0E3016000E3116D6
:101618003650375CD8B01BD0D8902F36303631369C
:10162800360637503618D8B40DD0350635C032F0E6
:10163800070E3216D8B406D0EFD7D8902E322D32F6
:101648002C32372A36503718D8B41FD0F6D737502F
:10165800365CD8B01AD0D8902C362D362E363706B0
:1016680037503618D8B40DD0350635C032F0070ECD
:101678003216D8B406D0EFD7D890313230322F3264
:10168800362A36503718D8A4F7D735AE0CD0FF0E07
:101698002C1AFF0E2D1AFF0E2E1A010E2C26000EE4
:1016A8002D22000E2E2235AC0CD0FF0E2F1AFF0E65
:1016B800301AFF0E311A010E2F26000E3022000EAE
:1016C8003122356A2C502F262D5030222E503122AF
:1016D80031AE0ED0FF0E2F1AFF0E301AFF0E311A40
:1016E800010E2F26000E3022000E3122010E356E1B
:1016F8002FC003F030C004F031C005F037C006F049
:1017080035C007F08CEC10F003C02CF004C02DF0AD
:1017180005C02EF012001F501D242F6E20501E20D1
:10172800306E30BE06D0305003E1650E2F5CD8B065
:10173800120030BE1200305004E10F0E2F5CD8A00A
:1017480012001DC009F01EC00AF0000E0C6E020E39
:101758000B6EB1EC11F009C02BF00AC02CF02FC0B1
:1017680009F030C00AF0000E0C6E020E0B6EB1ECE0
:1017780011F009C022F00AC023F02B50225C316E10
:101788002C502358326E31C003F032C004F0EEEC16
:1017980016F003C024F004C025F02B503C082D6E31
:1017A8002C50D8A0E82A00082E6E32BE0AD032503B
:1017B80003E13104D8A005D0010E2A6E26682768F7
:1017C80007D032AE12002A6A000E276E010E266E6E
:1017D800000E296E000E286E24D0000E346E000E06
:1017E800336E2A50D8B407D03350050F126E2D50DF
:1017F800C1EC13F006D03350050F126E2D50F2ECE9
:1018080013F0334A342A34BEECD7345004E10A0EBC
:10181800335CD8A0E6D726502D2627502E22284AFA
:10182800292A2450285C2950800A216E2550800AD4
:101838002158D8B01200D1D748AE0CD0000E000104
:10184800C76F210EC66F000E466E000E476E000E63
:10185800486E1200465047104810D8A40CD0000E0D
:101868000001C76F220EC66F000E466E000E476E4F
:10187800000E486E1200000E146E000E156E400E1B
:10188800166E490E066E46C003F047C004F048C005
:1018980005F033EC12F003C011F004C012F005C0DB
:1018A80013F0A6EC0DF011C02CF012C02DF013C0EF
:1018B8002EF0000E2F6E800E306EBF0E316EBCEC17
:1018C8000AF02CC046F02DC047F02EC048F049065B
:1018D800D8A04A0646C038F047C039F048C03AF0A8
:1018E8003D0E3B6E7F0E3C6E000E3E6E080E3D6E4A
:1018F8006FEC0FF038C046F039C047F03AC048F0F6
:10190800720E146E310E156E3F0E166E49C00BF036
:101918004AC00CF05CEC16F00BC011F00CC012F0D1
:101928000DC013F0A6EC0DF011C02CF012C02DF074
:1019380013C02EF046C02FF047C030F048C031F039
:10194800BCEC0AF02CC046F02DC047F02EC048F081
:10195800120005C009F00A6A0B6A0434093601E36B
:101968000A800950116E1150D8A409D0000E036ED8
:10197800000E046E000E056E000E066E120008C002
:1019880009F00A6A0B6A0734093601E30A8009502C
:10199800106E1050D8B4EAD7048EFF0E0316FF0E4F
:1019A8000416000E0516078EFF0E0616FF0E071604
:1019B800000E0816000E0C6E000E0D6E000E0E6E58
:1019C800000E0F6E7F0E115E1050980F115E180EEC
:1019D800106ED8900C360D360E360F360650035C56
:1019E8000750045808500558D8A007D00650035E81
:1019F8000750045A0850055A0C80D890033604360C
:101A08000536102EE6D711AE0DD01150800A970F6B
:101A1800D8A0ACD7D8900F320E320D320C32113E0E
:101A2800F9D70DD0170E116407D0A0D7D8900C366F
:101A38000D360E360F3611061150D8A4F7D70CC044
:101A480003F00DC004F00EC005F00FC006F0120040
:101A5800053406340E6E0E50D8A409D0000E036E5D
:101A6800000E046E000E056E000E066E120008349D
:101A780009340D6E0D50D8B4F1D7058EFF0E03163C
:101A8800FF0E0416FF0E0516000E0616088EFF0E32
:101A98000616FF0E0716FF0E0816000E0916000E92
:101AA800096E000E0A6E000E0B6E000E0C6E7F0E95
:101AB8000E5E0D50A00F0E5E200E0D6ED8900936EA
:101AC8000A360B360C360650035C0750045808508B
:101AD800055809500658D8A009D00650035E07508B
:101AE800045A0850055A0950065A0980D8900336F6
:101AF8000436053606360D2EE1D70EAE0DD00E5043
:101B0800800A9F0FD8A0AAD7D8900C320B320A327D
:101B180009320E3EF9D70DD01F0E0E6407D09ED79E
:101B2800D89009360A360B360C360E060E50D8A455
:101B3800F7D709C003F00AC004F00BC005F00CC0C9
:101B480006F0120013C017F0186A196A1234173613
:101B580001E3188017501A6E1A50D8A407D0000E47
:101B6800116E000E126E000E136E120016C017F0E2
:101B7800186A196A1534173601E3188017501F6E52
:101B88001F50D8A407D0000E116E000E126E000E62
:101B9800136E12001F507B0F1A2613C01FF0165029
:101BA8001F1A800E1F16128E158EFF0E1416FF0EAA
:101BB8001516000E1616000E1B6E000E1C6E000E7B
:101BC8001D6E070E1E6E11A006D014501B26155050
:101BD8001C2216501D22D890133212321132D8907E
:101BE8001436153616361E2EEED7090E1E6E11A0A7
:101BF80006D014501B2615501C2216501D22D890B2
:101C0800133212321132D8901D321C321B321E2E62
:101C1800EED71BC003F01CC004F01DC005F01AC0AD
:101C280006F01FC007F08CEC10F003C011F004C0E0
:101C380012F005C013F012004EC00BF04FC00CF0AC
:101C48005CEC16F00BC012F00CC013F00DC014F0D1
:101C5800C00E0F6E7F0E106E440E116E93EC0EF0D8
:101C68000FC02CF010C02DF011C02EF0000E2F6EFA
:101C7800800E306EBF0E316EBCEC0AF02CC053F0F3
:101C88002DC054F02EC055F053C046F054C047F054
:101C980055C048F020EC0CF046C050F047C051F059
:101CA80048C052F0200E0F6E7D0E106E450E116E5C
:101CB8004BC02FF04CC030F04DC031F050C02CF06C
:101CC80051C02DF052C02EF0BCEC0AF02CC012F01E
:101CD8002DC013F02EC014F093EC0EF00FC053F08B
:101CE80010C054F011C055F053C038F054C039F04A
:101CF80055C03AF0930E3B6E880E3C6E430E3D6E17
:101D080003EC16F038C053F039C054F03AC055F01F
:101D180053C04BF054C04CF055C04DF0120011C0E8
:101D280015F0166A176A1034153601E31680155037
:101D38001C6E1C50D8A407D0000E0F6E000E106E3B
:101D4800000E116E120014C015F0166A176A1334CB
:101D5800153601E3168015501D6E1D50D8A407D006
:101D6800000E0F6E000E106E000E116E1200000EA7
:101D7800196E000E1A6E000E1B6E1D50890F1C5E28
:101D880011C01DF014501D1A800E1D16108EFF0E66
:101D98000F16FF0E1016000E1116138EFF0E1216D8
:101DA800FF0E1316000E1416180E186ED89019365A
:101DB8001A361B3612500F5C135010581450115815
:101DC800D8A007D012500F5E1350105A1450115A51
:101DD8001980D8900F3610361136182EE7D719C04B
:101DE80003F01AC004F01BC005F01CC006F01DC0AB
:101DF80007F08CEC10F003C00FF004C010F005C021
:101E080011F012003AC03CF03D6A3E6A39343C3663
:101E180001E33D803C50466E4650D8A409D0000EE0
:101E2800386E000E396E000E3A6E000E3B6E1200D0
:101E3800170E3C6E38C03DF039C03EF03AC03FF056
:101E48003C28406E04D0D8903F323E323D32402E7E
:101E5800FAD73D50416E398EFF0E3816FF0E3916EF
:101E6800000E3A163850426E3950436E3A50446E5E
:101E7800456A8E0E465E46AE0DD04650800A8F0FDC
:101E8800D8A0CDD7D8904532443243324232463E6C
:101E9800F9D70DD0170E466407D0C1D7D89042366F
:101EA80043364436453646064650D8A4F7D74150FF
:101EB800D8B408D0451E441E431E426C000E43226F
:101EC8004422452242C038F043C039F044C03AF0B9
:101ED80045C03BF01200030E3D02F3CF3FF0F4CFB4
:101EE80040F03E02F35040263F503B24416E4050A4
:101EF8003C20426E41C0F6FF42C0F7FF0900F5CF13
:101F080043F00900F5CF44F00A00F5CF45F03BD087
:101F180043C014F044C015F045C016F038C011F0A5
:101F280039C012F03AC013F0A6EC0DF011C02CF035
:101F380012C02DF013C02EF03D06D8A03E06030EA9
:101F48003D02F3CF3FF0F4CF40F03E02F35040267D
:101F58003F503B24416E40503C20426E41C0F6FF4A
:101F680042C0F7FF0900F5CF2FF00900F5CF30F098
:101F78000A00F5CF31F0BCEC0AF02CC043F02DC0BC
:101F880044F02EC045F03D503E10D8A4C1D743C000
:101F980038F044C039F045C03AF012000001B86F7B
:101FA800C2500001B851D8B41ED00B0E196E000EE5
:101FB8001B6E0B0E1A6E060ED8EC16F0780E476ED6
:101FC800486AC60E496E7F0E4A6EA6C24BF0A7C27B
:101FD8004CF024EC00F00B0E1B6E780E1C6E1D6A84
:101FE800060EE3EC10F05550D8B41ED00B0E196E47
:101FF800000E1B6E0B0E1A6E070ED8EC16F0780E3C
:10200800476E486AD10E496E7F0E4A6EA8C24BF0E1
:10201800A9C24CF024EC00F00B0E1B6E780E1C6E5F
:102028001D6A070EE3EC10F0780E476E486A930EAF
:10203800496E7F0E4A6EC230E8321F0B566E5650FC
:102048004B6E4C6A24EC00F00B0E1B6E780E1C6E67
:102058001D6A050EE3EC10F01200CD0E146ECC0EC6
:10206800156E3E0E166E47C03BF048C03CF049C0A6
:102078003DF0000E386EC80E396E410E3A6E03EC14
:1020880016F038C011F039C012F03AC013F0A6ECBF
:102098000DF011C04DF012C04EF013C04FF04DC0FE
:1020A8002CF04EC02DF04FC02EF0000E2F6E000EFB
:1020B800306E3F0E316EBCEC0AF02CC04AF02DC0D9
:1020C8004BF02EC04CF04AC02FF04BC030F04CC043
:1020D80031F0D2C20BF0D3C20CF061EC17F00BC098
:1020E8002CF00CC02DF00DC02EF0BCEC0AF02CC06A
:1020F80038F02DC039F02EC03AF006EC0FF038C099
:1021080050F039C051F050C047F051C048F01200AB
:102118000650D8B405D0035004100510D8A40CD02C
:10212800000E036E000E046E000E056E1200062AE5
:10213800D890053204320332000E0314086E000EE4
:102148000414096EFE0E05140A6E085009100A10D0
:10215800D8B40CD0ECD7062A010E0326000E0422B0
:10216800000E0522D890053204320332000E031403
:10217800086E000E0414096EFF0E05140A6E08504E
:1021880009100A10D8B406D0E6D70606D890033648
:102198000436053604BE03D0020E0660F6D706A044
:1021A800049ED8900632065005120750D8A4058E12
:1021B80003C003F004C004F005C005F012001E6E51
:1021C800000E206E000E1F6E1BD01B501F240E6EBB
:1021D8001CC0F6FF1DC0F7FFF86A050EF76403D0B0
:1021E8000800F55005D0F6CFD9FFF7CFDAFFDF505A
:1021F8000F6E1E50AFEC12F01C4A1D2A1F4A202AEF
:102208001CC0F6FF1DC0F7FFF86A050EF76403D07F
:102218000800F55005D0F6CFD9FFF7CFDAFFDF5029
:102228000A0AD8B412001CC0F6FF1DC0F7FFF86AEE
:10223800050EF76403D00800F55005D0F6CFD9FF96
:10224800F7CFDAFFDF500009D8B41200BED7BA942E
:10225800D59E0F01386B3A6B396B3B6B3C69870E27
:10226800946E926A956A060E966E9682936A806A52
:10227800826A836A816AD09EF28EF28C890EC06E61
:10228800C16A190EC26EC250830B1809C26E9D8CAA
:102298009E9CD59CD59AD596D598D550F80B010912
:1022A800D56E9680496B0C0E5D6F9E929D82030ED3
:1022B800BA6E7C0EBB6E5D8B3E0E5E6FF294F28A38
:1022C800900EAB6E080EB86E240EAC6EB06A100E8F
:1022D800AF6E9D8A1200086E04C006F003C007F0B6
:1022E800062A02D0D8900732062EFCD70750010BD9
:1022F8000B6E04C006F008C007F0062A02D0D8907A
:102308000732062EFCD70750010B0C6E0504D8A423
:102318000CD0096A0B50D8B405D00C50D8A402D000
:10232800010E096E09C00DF00BD00A6A0B50D8A433
:1023380005D00C50D8B402D0010E0A6E0AC00DF0B8
:102348000D50D8B408D01A0E066EF80EE82EFED737
:10235800062EFCD700D00D5012000E6A0CAE06D027
:102368000B6C0C1ED8B00C2A010E0E6E0AAE06D0ED
:10237800096C0A1ED8B00A2A010E0E1A000E106E39
:10238800000E0F6E0B500C10D8B41CD0010E0D6E41
:1023980004D0D8900B360C360D2A0CAEFAD7D8904C
:1023A8000F3610360B50095C0C500A58D8A005D0CF
:1023B8000B50095E0C500A5A0F80D8900C320B3221
:1023C8000D2EEDD70E50D8B404D00F6C101ED8B017
:1023D800102A0FC009F010C00AF01200000E0B6E90
:1023E800000E0C6E000E0D6E000E0E6E07500810DB
:1023F80009100A10D8B42AD0010E0F6E06D0D89052
:102408000736083609360A360F2A0AAEF8D7D890A2
:102418000B360C360D360E360750035C0850045840
:10242800095005580A500658D8A009D00750035E2D
:102438000850045A0950055A0A50065A0B80D89079
:102448000A320932083207320F2EE1D70BC003F0E7
:102458000CC004F00DC005F00EC006F012000350C9
:1024680004100510D8A40CD00650D96EDA6ADE6ABA
:10247800DD6A000E036E000E046E000E056E12007B
:1024880005507F0B076E086AD89007360836065045
:10249800D96EDA6A07C0DEFF08C0DDFF0650D96EC4
:1024A800DA6A04AE03D0076A072A01D0076A075020
:1024B800DE12000EDD120650D96EDA6A820EDE26B2
:1024C800FF0EDD220550800B3F09056E049E03C0F8
:1024D80003F004C004F005C005F01200000E1B6EE6
:1024E800000E1A6E000E1D6E000E1C6E29D0000E16
:1024F8001F6E000E1E6E18D010501E24086E1A5043
:102508001624186E1B501720196E18C0F6FF19C034
:10251800F7FF0800F5CF09F00E501C24AFEC14F0BB
:102528001A4A1B2A1E4A1F2A14501E5C1F50800A72
:10253800186E1550800A1858D8A0DED71C4A1D2AD4
:1025480012501C5C1D50800A186E1350800A1858CF
:10255800D8B01200CCD7166EE00E0F24106E116A98
:10256800FF0E1122050E1002F3CF12F0F4CF13F074
:102578001102F350132612C017F013C018F00E50B2
:10258800050DF3CF0EF0000E1A6E000E196ED30E65
:102598001724F66E780E1820F76E0800F550146EA2
:1025A800156A0EC008F014C009F01650AFEC14F00C
:1025B8000E2A174A182A194A1A2A1ABEE8D71A5090
:1025C80005E1050E195CD8B01200E1D7120005AE7E
:1025D8000FD0000E096E000E0A6E800E0B6E0350AF
:1025E800095C036E04500A58046E05500B58056EBA
:1025F80008AE0FD0000E096E000E0A6E800E0B6E2C
:102608000650095C066E07500A58076E08500B58AA
:10261800086E000E031A000E041A800E051A000E2A
:10262800061A000E071A800E081A0650035C075097
:10263800045808500558D8B002D0D8901200D88055
:102648001200086A04AE06D0036C041ED8B0042A2F
:10265800010E086E06AE04D0056C061ED8B0062A18
:1026680005500610D8B418D0010E076E04D0D890C3
:1026780005360636072A06AEFAD70550035C06501B
:102688000458D8A004D00550035E0650045AD890C8
:1026980006320532072EF1D70850D8B404D0036C9F
:1026A800041ED8B0042A03C003F004C004F01200CA
:1026B8001450151016101710D8B424D0010E186E27
:1026C80006D0D8901436153616361736182A17AE8F
:1026D800F8D71450105C155011581650125817504E
:1026E8001358D8A008D01450105E1550115A16501F
:1026F800125A1750135AD89017321632153214320C
:10270800182EE7D710C010F011C011F012C012F047
:1027180013C013F01200C20EF66E2F0EF76E000EE5
:10272800F86E0900F5CFD6F20900F5CFD7F2A80E5A
:10273800F66E2F0EF76E000EF86E00EEB9F010EE82
:102748000DF00900F5CFEEFFE550E150FAE102EE99
:102758009AF03C0EEE6AE806FDE100EEC6F0080EBF
:10276800EE6AE806FDE15B6A5A6A596A5C905C9217
:10277800000EF86E000139EF05F01C6E1CC013F056
:10278800D8901332D8901332D890133213501A6E4F
:102798001B6A1CC013F0070E1316010E146E000EF0
:1027A800156E132A03D0D89014361536132EFBD77E
:1027B80014C016F015C017F012C00FF01A503DECF7
:1027C80017F0136E1350186E196A12C008F01650DD
:1027D8001810096E1A50AFEC14F012001C6E1CC0D1
:1027E80013F0D8901332D8901332D8901332135074
:1027F8001A6E1B6A1CC013F0070E1316010E146E16
:10280800000E156E132A03D0D89014361536132EE1
:10281800FBD7141C166E151C176E12C00FF01A5039
:102828003DEC17F0136E1350186E196A12C008F0B9
:1028380016501814096E1A50AFEC14F012000A6EF4
:10284800400E086004D0000E0C6E010E03D0000E7E
:102858000C6E020E0B6E0BC00EF00950D8B406D0E9
:102868000A5090EC17F0085023EC16F00E50C1EC0B
:1028780016F09568936A0E04D8B48190020E0E186B
:10288800D8B481928186818400008188000083CF3A
:102898000DF08198818081820D501200146E14C051
:1028A80015F0166A1CD00FC017F0186A09D017C0A7
:1028B80008F0000E096E1550AFEC14F0174A182AEC
:1028C8001050116E126A1750115C1250800A136E64
:1028D8001850800A1358D8B0EAD7154A162A0E504D
:1028E800116E126A1550115C1250800A136E165040
:1028F800800A1358D8A01200D6D78E0E136E06D0B1
:10290800D8900E320D320C320B32132A000E0B14F3
:102918000F6E000E0C14106E000E0D14116EFF0ECB
:102928000E14126E0F50101011101210D8A4E8D700
:102938000BC003F00CC004F00DC005F013C006F086
:10294800000E076E8CEC10F003C00BF004C00CF006
:1029580005C00DF012000A6E400E086004D0000E8B
:102968000C6E010E03D0000E0C6E020E0B6E0BC027
:102978000DF00A5090EC17F0085023EC16F00D50AB
:10298800C1EC16F0936A0D04D8B48190020E0D18AC
:10299800D8B481928196818400008188000009C0A2
:1029A80083FF956A0000819881808182120003501C
:1029B8000001CE03F3CF05F0F4CF06F0CF03F350B8
:1029C80006260450CE03F350062605C00BF006C0B9
:1029D8000CF00BC005F00CC006F0063406320532C8
:1029E80006340632053205C007F006C008F0030EAB
:1029F8000B14096E0A6A0938F00B0F015D1307C042
:102A08005EFF12000AC003F00BC004F0000E066E51
:102A18000A0E056EA0EC15F003C010F004C011F00A
:102A28000AC003F00BC004F0000E066E0A0E056E15
:102A38002FEC15F003C00AF004C00BF00AC00EF02A
:102A48000BC00FF00EC00AF00FC00BF010C00CF056
:102A580011C00DF01200000E086E000E076E055032
:102A68000610D8B41CD0010E096E04D0D8900536D3
:102A78000636092A06AEFAD7D89007360836055022
:102A8800035C06500458D8A005D00550035E0650D4
:102A9800045A0780D89006320532092EEDD707C0B0
:102AA80003F008C004F01200000E476E010E486ED5
:102AB800BA0E496E7F0E4A6ED2C24BF0D3C24CF0AA
:102AC80055C04DF056C04EF024EC00F0000E196EC3
:102AD800000E1B6E0B0E1A6E000ED8EC16F0000ED0
:102AE8001B6E000E1C6E010E1D6E000EE3EC10F046
:102AF8001200036E15D0010E046EBA84D58E1AD05A
:102B0800020E046EBA94D59E15D0000E0201D76F3E
:102B1800640ED66F3C0ED76EB00ED66E046A0AD01D
:102B28000350000AD8B4E7D7010AD8B4E9D7030A92
:102B3800D8B4EBD70450120005500610D8B418D0FA
:102B4800010E076E04D0D89005360636072A06AE61
:102B5800FAD70550035C06500458D8A004D0055095
:102B6800035E0650045AD89006320532072EF1D774
:102B780003C003F004C004F012000AD004C0F6FF3A
:102B880005C0F7FF0800F550DBEC17F0044A052AEA
:102B980004C0F6FF05C0F7FF0800F5500009D8A4E7
:102BA800EDD704C0F6FF05C0F7FF0800F55000098F
:102BB800D8A412000D0EDBEC17F01200AECF01F016
:102BC80010D0010E0001CD6F1200010E0201D56F69
:102BD8001200010E0001CC6F1200010E0201D46F29
:102BE80012000150610AD8B4F0D7050AD8B4F5D755
:102BF800170AD8B4EED7040AD8A41200E2D73B507B
:102C08003C103D10D8B406D0000E3B1A000E3C1AFA
:102C1800800E3D1A38C02CF039C02DF03AC02EF085
:102C28003BC02FF03CC030F03DC031F0BCEC0AF0A6
:102C38002CC038F02DC039F02EC03AF01200076EC3
:102C4800400E07600CD0010E056E0750400991EC4C
:102C580016F0020E056E400E91EC16F01200010EF1
:102C6800056E7F0E91EC16F0020E056E0750C00F30
:102C7800400991EC16F01200086E0A6A0750D8B4A1
:102C880015D0010E096E03D0D8900736092A07AE71
:102C9800FBD7D8900A360750085CD8A003D0075055
:102CA800085E0A80D8900732092EF3D70A5012001E
:102CB8000E6A0CAE06D00B6C0C1ED8B00C2A010E96
:102CC8000E6E0BC003F00CC004F0056A8E0E066E83
:102CD8000EC007F08CEC10F003C00BF004C00CF031
:102CE80005C00DF012000350D2270450D323D3514E
:102CF80009E1100ED25DD8B005D0000ED36F0F0ECB
:102D0800D26F1200D35104E1640ED25DD8A0120034
:102D1800000ED36F640ED26F1200066E0550C1EC20
:102D280016F0936A0504D8B48190020E0518D8B439
:102D380081928196819400008188000006C083FFFB
:102D4800956A0000819881808182120003C005F095
:102D580004C006F002D0054A062A05C0F6FF06C0E0
:102D6800F7FF0800F5500009D8A4F5D70350055C13
:102D7800036E04500658046E1200046E9568936A38
:102D88000404D8B48190020E0418D8B481928186C4
:102D9800819400008188000083CF03F0819803BEEE
:102DA800F9D78180818212001E6E1950050DF3CF6C
:102DB8001FF01A50050DF3501F241C6E1C041D6EC5
:102DC8001EC00EF01FC00FF01DC010F01E5052ECB8
:102DD80014F0120004AE0DD003C005F004C006F0D4
:102DE800051E061E054A062A05C003F006C004F0A3
:102DF800120003C003F004C004F01200046E080EB1
:102E0800056E066AD89004340634066ED8900436E7
:102E18000350065CD8A002D00350065E052EF2D7F8
:102E28000650120007C003F008C004F0AAEC16F020
:102E3800D89004300A6E0330096E09500D08076EE9
:102E48000A50D8A0E82A0008086E120003500502AC
:102E5800F3CF07F0F4CF08F003500602F35008262A
:102E680004500502F350082607C003F008C004F018
:102E78001200116E0FC008F0010E096E115023ECFC
:102E880014F00FC008F0010E096E115023EC14F075
:102E9800106E10501200035004100510D8B406D05C
:102EA800000E031A000E041A800E051A03C003F060
:102EB80004C004F005C005F012000BC003F00CC0FC
:102EC80004F0056A8E0E066E000E076E8CEC10F08C
:102ED80003C00BF004C00CF005C00DF01200818A8D
:102EE800010E056E3F0E91EC16F0020E056E3F0EB8
:102EF80091EC16F0000E9EEC17F01200056E046AB5
:102F08003A0E056005D02F0E056402D0010E046E3E
:102F180004C003F003301200076E010E056E07505F
:102F2800B80991EC16F0020E056E0750B80991EC3D
:102F380016F01200076E010E056E0750C00991ECDD
:102F480016F0020E056E0750C00991EC16F012003B
:102F5800C350C4CF01F0026A01C002F0016A011037
:102F68000001C86F0250C96F120003C005F0054682
:102F78000546C2500518830B0518C26EC28212009E
:102F8800C230E8321F0B056E0550036E046A12004A
:102F98000201D607D8A0D707010E0001C56F12009D
:0D2FA800A17F847F717F587F05003C0001F0
:102FB600036EACA2FED703C0ADFF12006400120080
:1078D20000000000000000005F0000000700070039
:1078E200147F147F14242A7F2A1223130864623619
:1078F200495522500005030000001C2241000041AE
:10790200221C00082A1C2A0808083E0808005030D9
:1079120000000808080808003030000020100804A1
:10792200023E5149453E00427F4000426151494674
:107932002141454B311814127F1027454545393CEA
:107942004A49493001710905033649494936064910
:1079520049291E0036360000005636000000081481
:107962002241141414141441221408000201510972
:1079720006324979413E7E1111117E7F49494936CD
:107982003E414141227F4141221C7F494949417F79
:10799200090901013E414151327F0808087F004137
:1079A2007F41002040413F017F081422417F404037
:1079B20040407F0204027F7F0408107F3E41414124
:1079C2003E7F090909063E4151215E7F0919294678
:1079D200464949493101017F01013F4040403F1F73
:1079E2002040201F7F2018207F63140814630304A3
:1079F200780403615149454300007F414102040874
:107A0200102041417F000004020102044040404036
:107A120040000102040020545454787F4844443802
:107A22003844444420384444487F38545454180855
:107A32007E090102081454543C7F0804047800446F
:107A42007D40002040443D00007F10284400417FDB
:107A520040007C041804787C0804047838444444C8
:107A6200387C14141408081414187C7C08040408C4
:107A72004854545420043F4440203C4040207C1C45
:107A82002040201C3C4030403C44281028440C50EC
:107A920050503C4464544C44000836410000007F7E
:107AA2000000004136080008082A1C08081C2A08A1
:107AB200080801AA01080038383800000000000058
:107AC200000000000000803F00204100C842007A10
:107AD20044401C4650C34724744997184BBCBE4CC3
:107AE2006B6E4E03155079AD60F3497100803FCD46
:107AF200CC3DD7233C12833AB7D138C627373886D4
:107B020035C0D633CC2B32708930E7DB2EE53C1EF4
:107B120042A20DFFFF030303030303030303030353
:107B22000303030303030303E33373C3030303F3F3
:107B320003030303F303031313F3F3131383E33373
:107B4200131313E3C3030303030303F30303F3F363
:107B520073C30303F30303F3F313131303F3F303E3
:107B620003030303E33373C3030303F3F313133373
:107B7200E3C303C3E313131333E3C303F3F3939393
:107B8200F363030303030303030303030303030373
:107B920003FFFFFFFF000000C070789818781838C4
:107BA200E0C000000000888F030202030E080007F5
:107BB2000C08080C07000000000F0F000003070C60
:107BC20008080807030001010100000F00000F0F61
:107BD2000001070E0F00000F0F010101000F0F0837
:107BE2000808080F030202030E08000F0F08080C12
:107BF20007030003070808080C0703000F0F000023
:107C0200070E00000000000000000000000000005D
:107C120000FFFFFFFF0000007FC1021C46180304A3
:107C22000003071C3E0701F1FF0F000000000000E7
:107C32000000000000000000000000000000000042
:107C4200000000000080C06060301018180C0404AE
:107C5200040C18386060C0800000000000000000C2
:107C62000000000000000000000000000000008092
:107C7200C0C0E0E0F0F0F0F8F8F8F8F8F8F8F8F83A
:107C8200F0F0F0E0E0C0C080000000000000000062
:107C920000FFFFFFFF00000000030F3C70E0808048
:107CA200000000000000F07F63C0800000000000C0
:107CB20000000000000000000000000000000000C2
:107CC20000C0E0783E030100000070ECF4F478009C
:107CD20000E0D8E8E8D8008FFF00000000000000B4
:107CE200000000000000000000C0F0F8FEFF7F3F2F
:107CF2007FFFE7C3830101010000FFFFFF000001D6
:107D0200010183C3E7FF7F3F7FFFFEF8F0C08000E1
:107D120000FFFFFFFF00000000000000FEE701037C
:107D22000C18000000000000000087FF70E0808057
:107D320080808080808080000000000000000000C1
:107D42003FF3C08000000000000400081931303009
:107D5200303011111900000081FF7E000000000088
:107D620000000000000000F8FFFFFFFFCFC1C0C00D
:107D7200C0C0C1C3C7CFDEFCF8F0FFFFFFF0F8FCC4
:107D8200DECFC7C3C1C0C0C0C0C1C7FFFFFFFFF87D
:107D920000FFFFFFFF00000000000000001F7FE661
:107DA200CC8C080808080C0C06038381E0791F03B9
:107DB20007FFFB03071D79E10302060E7AF20202B6
:107DC2000203030307060A0004000000000000008B
:107DD200000000001C1C363263C1C080000000009D
:107DE20000000000000000073FFFFFFFF9E18101F2
:107DF2000181C1E1F1793D1F0F07FFFFFF070F1F4F
:107E02003D79F1E1C181010181C1F9FFFFFF7F0FDE
:107E120000FFFFFFFF000000000000000000000064
:107E22000101030E1E1E366666E3E1E1A030101862
:107E32000E8781C0E0701E0F00008080F07F47C077
:107E42008080808000000000000000000000000030
:107E5200000000000000000000000001030F1FFAF4
:107E6200C6061C78E0000000000003071F3F3F7FAA
:107E7200FFFFFBF1F0E0E0E0C0C0FFFFFFC0C0E0A9
:107E8200E0E0F0F1FBFFFF7F3F3F1F07030100002F
:107E920000FFFFFFFFC0C0C0C0C0C0C0C0C0C0C0A4
:107EA200C0C0C0C0C0C0C0C0C0C0C1C1C1C3C7C7BC
:107EB200C7FDFDCCCCC4C6C6C6C3C1C1C0C0C0C00C
:107EC200C0C1C1C1C1C1C3C2C2C6C6C6C6C6C4C47E
:107ED200C4CCCCCCC8C8C8C8C8C8C8C8CCCCCCFFD5
:107EE200E3C0C0F0FFFBF0C0C0C0C0C0C0C0C0C093
:107EF200C0C0C1C1C3C3C3C7C7C7C7C7C7C7C7C736
:107F0200C3C3C3C1C1C0C0C0C0C0C0C0C0C0C0C064
:107F1200C0FFFF010000000A00000064000000E84A
:107F220003000010270000A086010040420F0080DD
:107F320096980000E1F50500CA9A3B000000008017
:107F42003FF0FFBEE2A93E8376BEAE2B3E3CC3BDF0
:107F5200D2133D78D3BB486563746F722046646563
:107F62007A2E20646520536576696C6C610A004143
:107F72006E67656C20412E205175696E6F6E657358
:107F82000A002D2D2D2D2D2D2D2D2D2D2D2D2D0A92
:107F920000414443204348414E3A2025640A004CA4
:107FA200372050726F6A656374650A0052756E6E8F
:107FB200696E672E2E2E0A002533642061646A3AA8
:107FC2002533640041444320363A2025640A0041A7
:107FD200444320373A2025640A0053746F70706559
:107FE20064210A00253032642E2530640A0052656D
:0D7FF2006164790A00252E326620430000EC
:020000040030CA
:0E000000FF021900FFA180FF0FC00FE00F40AC
:00000001FF
