:040000005AEF00F0C3
:100008005A829EB29DA202D09E929D92F2B4F2AA0A
:1000180007D03C0ED76EB00ED6260BEC18F0F29433
:100028009EBC9DAC1CD09E9CC350C4CF01F0026AFC
:1000380001C002F0016A0110046E0250056E000151
:10004800E051041804E1E1510518D8B402D0010EBA
:1000580001D0000EDF6F04C0E0F005C0E1F09EBAE9
:100068009DAA22D09D9AAECF03F010D0010E0001B8
:10007800DE6F19D0010E0001DD6F15D0010E0001F1
:10008800DC6F11D0010E0001DB6F0DD00350610A47
:10009800D8B4F0D7050AD8B4F5D7170AD8B4EED72C
:1000A800040AD8B4E3D79D8A5A921100BBEF14F022
:1000B800510E0001696F61EF05F0250E7D19D8B466
:1000C8000AD04DC0D9FF4EC0DAFF7DC0DFFF4D4AD0
:1000D8004E2A61EF05F0000E776F000E766F000E66
:1000E800756F000E746F03D074854F4A502A4FC045
:1000F800F6FF50C0F7FF0800F550300AD8B4F4D71F
:100108004FC0F6FF50C0F7FF0800F550BEEC17F0DF
:10011800D8A034D0000E0001776F000E766F76C03D
:1001280006F077C007F0000E096E0A0E086E75EC2F
:1001380017F006C076F007C077F0D00E0001606FA8
:10014800FF0E616F4FC0F6FF50C0F7FF0800F55073
:10015800626F636B60516227615163236251762736
:10016800635177234F4A502A4FC0F6FF50C0F7FF1C
:100178000800F550BEEC17F0D8B0D1D74FC0F6FF45
:1001880050C0F7FF0800F5502E0AD8A439D0000156
:10019800758D4F4A502A000E7C6F000E7B6F25D05C
:1001A8007BC006F07CC007F0000E096E0A0E086ED0
:1001B80075EC17F006C07BF007C07CF0D00E00018C
:1001C800606FFF0E616F4FC0F6FF50C0F7FF080069
:1001D800F550626F636B605162276151632362510E
:1001E8007B2763517C234F4A502A4FC0F6FF50C0EB
:1001F800F7FF0800F550BEEC17F0D8A00AD0D0D70A
:10020800000E00017C6F000E7B6F758902D075852A
:1002180019D04FC0F6FF50C0F7FF4F4A502A0800C8
:10022800F5CF7DF000017D51000AD8B46EEF05F0DE
:10023800640AD8B407D0020AD8B4E9D70F0AD8A4F8
:1002480061EF05F0070E7515D8B410D375A904D061
:10025800000E7C6F060E7B6F6951D96EDA6ADECFAD
:1002680078F0DECF79F0DDCF7AF0030E69277AAF28
:1002780010D078C006F079C007F07AC008F09AEC80
:1002880017F006C078F007C079F008C07AF0030EBE
:100298007413000E736F000E726F785179117A1112
:1002A800D8B486D0820E606FFF0E616F78C062F09E
:1002B80079C063F07AC064F07BC065F0100E05D099
:1002C800D8906533643363336233E82EF9D76251CB
:1002D8006025726F000E6121736F7207D8A07307D3
:1002E80072C006F073C007F0000E096E030E086EA8
:1002F80075EC17F006C072F007C073F072C00CF00E
:1003080073C00DF0000E0F6E0A0E0E6E1BEC12F08D
:100318000CC072F00DC073F0000173AF03D0720708
:10032800D8A073077251000862EC07F023C06AF086
:1003380024C06BF025C06CF06AC014F06BC015F0D7
:100348006CC016F078C017F079C018F07AC019F0B0
:10035800CDEC0DF014C06AF015C06BF016C06CF04F
:100368006AC006F06BC007F06CC008F0000E096E9A
:10037800800E0A6E3F0E0B6E1CEC13F0D8B005D041
:1003880000017207D8A0730713D06AC006F06BC0CB
:1003980007F06CC008F0000E096E200E0A6E410EC0
:1003A8000B6E1CEC13F0D8A003D00001724B732B1A
:1003B80000017CBF06D07C511BE10D0E7B5DD8B0DF
:1003C80017D078C032F079C033F07AC034F07B515E
:1003D80016EC09F023C035F024C036F025C037F0FC
:1003E800E1EC0AF032C078F033C079F034C07AF02A
:1003F800000173BF06D0735120E10A0E725DD8B0B8
:100408001CD0785179117A11D8B456D078C03EF002
:1004180079C03FF07AC040F0A3EC0FF03E503F1097
:1004280040104110D8A448D0000173BF45D0735183
:1004380004E1020E725DD8A03FD06AC006F06BC01E
:1004480007F06CC008F0700E096E890E0A6E400E37
:100458000B6E1CEC13F0D8B003D00001F70E02D0DD
:100468000001F80E7227FF0E7323725162EC07F039
:1004780023C06AF024C06BF025C06CF078C006F089
:1004880079C007F07AC008F06AC009F06BC00AF0BA
:100498006CC00BF0D4EC0CF006C06EF007C06FF027
:1004A80008C070F009C071F0000E0001786F000EEE
:1004B800796F000E7A6F33D078C03EF079C03FF084
:1004C8007AC040F0A3EC0FF03EC06EF03FC06FF072
:1004D80040C070F041C071F078C03EF079C03FF084
:1004E8007AC040F06EC00EF06FC00FF070C010F010
:1004F80071C011F0E9EC14F00EC041F00FC042F0E9
:1005080010C043F048EC16F03EC078F03FC079F0D8
:1005180040C07AF0000E0001736F000E726F010E7A
:100528007D6F7D51040D170EF324F66E7F0EF420B7
:10053800F76E0900F5506E5D0900F5506F59090016
:10054800F55070590900F5507159D8A005D07D2B88
:100558000A0E7D19D8A4E5D77D517B25606F000E62
:100568007C21616F72516027735161236051765FFE
:100578006151775B7B517C11D8B403D07607D8A042
:10058800770774C060F0030E6017D8B403D07607FD
:10059800D8A0770774A52DD074C060F0030E60173B
:1005A800D8B414D04DC0D9FF4EC0DAFF2D0EDF6E7F
:1005B8004D4A4E2A0BD04DC0D9FF4EC0DAFF300E3F
:1005C800DF6E4D4A4E2A7607D8A0770777BF6ED0E0
:1005D8007751F1E17605D8A069D0EDD74DC0D9FFA4
:1005E8004EC0DAFF200EDF6E4D4A4E2A7607D8A09D
:1005F800770777BF05D07751F1E17605D8B0EED708
:1006080074C060F0030E6017D8B450D04DC0D9FF45
:100618004EC0DAFF2D0EDF6E4D4A4E2A47D06EC00F
:1006280006F06FC007F070C008F071C009F07D5186
:10063800040D170EF324F66E7F0EF420F76E0900F2
:10064800F5CF0AF00900F5CF0BF00900F5CF0CF053
:100658000A00F5CF0DF05DEC12F006C06AF007C095
:100668006BF008C06CF009C06DF06AC013F06BC085
:1006780014F06CC015F06DC016F00A0E176E000E5F
:10068800186E000E196E000E1A6EC7EC13F013C028
:100698006AF014C06BF015C06CF016C06DF06A51AA
:1006A800300F4DC0D9FF4EC0DAFFB5D77D077D2981
:1006B800D8B40CD0B4D74DC0D9FF4EC0DAFF300E35
:1006C800DF6E4D4A4E2A7207D8A0730773BF05D054
:1006D8007351F1E17205D8B0EED77CBF09D07C51D7
:1006E80004E1090E7B5DD8A003D0080E7D6F02D00F
:1006F8007BC07DF07D517B5F000E7C5B7D51D8B463
:1007080008D04DC0D9FF4EC0DAFF2E0EDF6E4D4A1D
:100718004E2A7D5162EC07F023C066F024C067F0D2
:1007280025C068F078C017F079C018F07AC019F0C1
:1007380066C014F067C015F068C016F0CDEC0DF077
:1007480014C03EF015C03FF016C040F0A3EC0FF007
:100758003EC06EF03FC06FF040C070F041C071F015
:100768006FD06EC006F06FC007F070C008F071C09F
:1007780009F07D51040D170EF324F66E7F0EF42058
:10078800F76E0900F5CF0AF00900F5CF0BF0090064
:10079800F5CF0CF00A00F5CF0DF05DEC12F006C0B5
:1007A8006AF007C06BF008C06CF009C06DF06AC051
:1007B80013F06BC014F06CC015F06DC016F00A0E83
:1007C800176E000E186E000E196E000E1A6EC7EC2A
:1007D80013F013C06AF014C06BF015C06CF016C0AB
:1007E8006DF06A51300F4DC0D9FF4EC0DAFFDF6E91
:1007F8004D4A4E2A6EC013F06FC014F070C015F049
:1008080071C016F07D51040D170EF324F66E7F0E9D
:10081800F420F76E0900F5CF17F00900F5CF18F0AE
:100828000900F5CF19F00A00F5CF1AF0C7EC13F05C
:1008380013C06EF014C06FF015C070F016C071F0E0
:1008480000017D077D29D8B40CD08BD74DC0D9FFC6
:100858004EC0DAFF300EDF6E4D4A4E2A7B07D8A015
:100868007C077B517C11D8B428D1F0D76951D96E57
:10087800DA6ADECF6EF0DDCF6FF0000E6FBFFF0ECD
:10088800706F716F020E692771AF0AD0030E74136F
:10089800711F701F6F1F6E6D000E6F237023712301
:1008A8007B517C11D8A408D06E516F117011711151
:1008B800D8A402D07B4B7C2B010E7D6F7D51040D9B
:1008C800170EF324F66E7F0EF420F76E0900F5502C
:1008D8006E5D0900F5506F590900F550705909000F
:1008E800F5507159D8A005D07D2B0A0E7D19D8A4D2
:1008F800E5D77D51606F616B7B51605D6151800A06
:10090800626F7C51800A6259D8B003D07BC07DF0F9
:1009180010D07D51606F616B60517B5D7C51800AA6
:10092800626F6151800A6259D8B003D07DC07BF0F4
:100938007C6B76517711D8B409D074C060F0030E7F
:100948006017D8B403D07607D8A0770775AD13D051
:1009580076517B5D7C51800A606F7751800A6059BF
:10096800D8B005D07B51765F7C51775B04D0000E00
:10097800776F000E766F7D51606F616B7651605DA9
:100988006151800A626F7751800A6259D8B005D0E8
:100998007D51765F000E775B04D0000E776F000EF6
:1009A800766F74A51ED074C060F0030E6017D8B4BB
:1009B80008D04DC0D9FF4EC0DAFF2D0EDF6E4D4A6C
:1009C8004E2A76517711D8B470D04DC0D9FF4EC099
:1009D800DAFF300EDF6E4D4A4E2A7607D8A0770729
:1009E800F0D776517711D8B40FD04DC0D9FF4EC08B
:1009F800DAFF200EDF6E4D4A4E2A7607D8A0770719
:100A080076517711D8A4F1D774C060F0030E60173F
:100A1800D8B44BD04DC0D9FF4EC0DAFF2D0EDF6ED3
:100A28004D4A4E2A42D07BC060F07CC061F0D8901D
:100A380060376137D89060376137170E6025F66EDA
:100A48007F0E6121F76E0900F5CF0AF00900F5CF96
:100A58000BF00900F5CF0CF00A00F5CF0DF06EC0D1
:100A680006F06FC007F070C008F071C009F05DECC7
:100A780012F006C013F007C014F008C015F009C042
:100A880016F00A0E176E000E186E000E196E000E84
:100A98001A6EC7EC13F01350300F7D6F4DC0D9FF9D
:100AA8004EC0DAFF7DC0DFFFBBD77B07D8A07C072D
:100AB8007B29B9E17C29D8A4B6D74FC0F6FF50C02E
:100AC800F7FF4F4A502A0800F5CF7DF07D51D8A492
:100AD80061EF00F04DC0D9FF4EC0DAFF000EDF6EA7
:100AE800120075EC10F0CDEC17F0070E116E000E29
:100AF800126E7F0E136E000E8CEC14F0000EEAECF2
:100B080017F047EC0EF0969082CFCAF0CAC0C7F033
:100B180082B002D0010E01D0000E0001BF6F000E9E
:100B280082B2010EC06F010EBD6F010EBE6F000EC6
:100B3800C66FD59EBA94010EBB6F000EBC6F000E37
:100B4800596E320E586E000E216E000E206E000E89
:100B5800236E320E226EB5EC0BF0010E0001DF6F32
:100B6800000EC16FC80EC26F410EC36FBE0E4A6E33
:100B7800430E4B6E490E4C6E47EC0CF04AC0B6F073
:100B88004BC0B7F04CC0B8F0000E0001BA6F000EB1
:100B9800B96F000EC56F000EC46FC5BF06D0C55132
:100BA80018E1040EC45DD8B014D0C405C511D8B47A
:100BB8000CD0C451020DF350CB0FD96EDA6ADECFD8
:100BC80007F0DDCF08F027EC16F00001C44BC52B69
:100BD800E4D7C2A2C282DF51D8B448D0020E116E47
:100BE8003F0E126E7F0E136E020E8CEC14F0B6C020
:100BF8004FF0B7C050F0B8C051F0BDEC0EF04FC088
:100C0800C1F050C0C2F051C0C3F0000E4D6E020ECC
:100C18004E6EF70E4F6E7F0E506EC1C051F0C2C0BF
:100C280052F0C3C053F05CEC00F0100E1A6E000EC8
:100C38001B6E020E1C6E020E8FEC11F0C1C04DF03F
:100C4800C2C04EF0C3C04FF0DDEC10F04DC0C8F08C
:100C58004EC0C9F0C8C00CF0C9C00DF097EC15F033
:100C6800C8C07EF0C9C07FF0BEEC15F082CFCAF0D4
:100C78000001BF51D8A40CD0CAC006F0000E076E00
:100C8800000E086EC751D7EC11F00009D8A404D0A3
:100C98000001DB51D8B430D0000E0001DB6F010E2B
:100CA800BF6F010EBD6F000E076E010E066ED9EC08
:100CB80016F0C1C04DF0C2C04EF0C3C04FF0DDEC1D
:100CC80010F04DC0C8F04EC0C9F0C8C00CF0C9C083
:100CD8000DF097EC15F058C020F059C021F0000E27
:100CE800236E010E226EB5EC0BF0C8C07EF0C9C0B1
:100CF8007FF0BEEC15F014D0BF51D8B411D0CAC0E3
:100D080006F0000E076E010E086EC751D7EC11F001
:100D18000009D8B405D0000E0001BF6F010EBD6FE9
:100D28000001C051D8A40CD0CAC006F0010E076E4D
:100D3800010E086EC751D7EC11F00009D8A404D0F1
:100D48000001DD51D8B42ED0000E0001DD6F010E78
:100D5800C06F010EBE6FFF0E076E0668D9EC16F065
:100D6800C1C04DF0C2C04EF0C3C04FF0DDEC10F072
:100D78004DC0C8F04EC0C9F0C8C00CF0C9C00DF0D5
:100D880097EC15F058C020F059C021F0FF0E236EE3
:100D98002268B5EC0BF0C8C07EF0C9C07FF0BEEC8D
:100DA80015F014D0C051D8B411D0CAC006F0010E45
:100DB800076E000E086EC751D7EC11F00009D8B4C1
:100DC80005D0000E0001C06F010EBE6F0001C60500
:100DD800D8A406D055505610D8A402D0010EBC6F26
:100DE800CAC006F0020E076E000E086EC751D7EC97
:100DF80011F00009D8A404D00001BC51D8B40DD01A
:100E08000001C605D8A402D0000EBC6FC651E3ECA1
:100E180015F00001C66F010EBB6FBBC07EF0C65156
:100E280008EC0AF0BB6FCAC0C7F0BD51D8B418D0DF
:100E3800000EBD6F800E4D6E020E4E6E860E4F6E0A
:100E48007F0E506EBFC051F0526A5CEC00F00B0E82
:100E58001A6E800E1B6E020E1C6E050E8FEC11F0C2
:100E68000001BE51D8B418D0000EBE6F800E4D6E72
:100E7800020E4E6E970E4F6E7F0E506EC0C051F030
:100E8800526A5CEC00F00B0E1A6E800E1B6E020E9E
:100E98001C6E060E8FEC11F0B9C006F0BAC007F050
:100EA800000E096E010E086EF8EC17F006C0B9F0D6
:100EB80007C0BAF00001B94BBA2B8BD6296E29AE00
:100EC800D9D0296C2950800A120FD8A079D0000EE9
:100ED8000F6E0A0E0E6E000E096E640E086E295013
:100EE800066E076A06BE07068FEC13F006C00CF004
:100EF80007C00DF01BEC12F0090E0C260C50030D68
:100F0800F00EF324F66E7A0EF420F76E0900F5CF92
:100F180017F00900F5CF18F00A00F5CF19F0000E08
:100F28000F6E640E0E6E29500C6E0D6A0CBE0D0607
:100F38001BEC12F0120E0C260C50030DF00EF324CD
:100F4800F66E7A0EF420F76E0900F5CF14F009005A
:100F5800F5CF15F00A00F5CF16F0CDEC0DF014C062
:100F680026F015C027F016C028F026C014F027C0B8
:100F780015F028C016F0000E096E0A0E086E2950EA
:100F8800066E076A06BE07068FEC13F00650030DBF
:100F9800F00EF324F66E7A0EF420F76E0900F5CF02
:100FA80017F00900F5CF18F00A00F5CF19F0CDECCD
:100FB8000DF014C023F015C024F016C025F012005F
:100FC8002950800A750FD8A043D0000E0F6E0A0E64
:100FD8000E6E29500C6E0D6A0CBE0D061BEC12F03D
:100FE800090E0C260C50030DF00EF324F66E7A0E43
:100FF800F420F76E0900F5CF14F00900F5CF15F0CD
:101008000A00F5CF16F0000E096E0A0E086E295078
:10101800066E076A06BE07068FEC13F00650030D2E
:10102800F00EF324F66E7A0EF420F76E0900F5CF71
:1010380017F00900F5CF18F00A00F5CF19F0CDEC3C
:101048000DF014C023F015C024F016C025F01200CE
:101058002950030DF00EF324F66E7A0EF420F76E85
:101068000900F5CF23F00900F5CF24F00A00F5CFE9
:1010780025F012002950800A120FD8A079D0000E4E
:101088000F6E0A0E0E6E000E096E640E086E295061
:10109800066E076A06BE07068FEC13F006C00CF052
:1010A80007C00DF01BEC12F0090E0C260C50030DB6
:1010B800C90EF324F66E7A0EF420F76E0900F5CF08
:1010C80017F00900F5CF18F00A00F5CF19F0000E57
:1010D8000F6E640E0E6E29500C6E0D6A0CBE0D0656
:1010E8001BEC12F0120E0C260C50030DC90EF32443
:1010F800F66E7A0EF420F76E0900F5CF14F00900A9
:10110800F5CF15F00A00F5CF16F0CDEC0DF014C0B0
:1011180026F015C027F016C028F026C014F027C006
:1011280015F028C016F0000E096E0A0E086E295038
:10113800066E076A06BE07068FEC13F00650030D0D
:10114800C90EF324F66E7A0EF420F76E0900F5CF77
:1011580017F00900F5CF18F00A00F5CF19F0CDEC1B
:101168000DF014C023F015C024F016C025F01200AD
:101178002950800A750FD8A043D0000E0F6E0A0EB2
:101188000E6E29500C6E0D6A0CBE0D061BEC12F08B
:10119800090E0C260C50030DC90EF324F66E7A0EB8
:1011A800F420F76E0900F5CF14F00900F5CF15F01B
:1011B8000A00F5CF16F0000E096E0A0E086E2950C7
:1011C800066E076A06BE07068FEC13F00650030D7D
:1011D800C90EF324F66E7A0EF420F76E0900F5CFE7
:1011E80017F00900F5CF18F00A00F5CF19F0CDEC8B
:1011F8000DF014C023F015C024F016C025F012001D
:101208002950030DC90EF324F66E7A0EF420F76EFA
:101218000900F5CF23F00900F5CF24F00A00F5CF37
:1012280025F012002E6E6D0E2E647CD00A0E0A6E0A
:10123800640E066E2E5038EC17F068EC16F0266E29
:101248002650030D1B0EF326000EF422F00EF32495
:10125800F66E7A0EF420F76E0900F5CF17F0090044
:10126800F5CF18F00A00F5CF19F0640E0A6E2E506B
:1012780068EC16F0276E2750030D360EF326000E85
:10128800F422F00EF324F66E7A0EF420F76E0900BD
:10129800F5CF14F00900F5CF15F00A00F5CF16F0D8
:1012A800CDEC0DF014C02BF015C02CF016C02DF0AD
:1012B8000A0E066E2E5038EC17F0266E2650030DD7
:1012C800F00EF324F66E7A0EF420F76E0900F5CFCF
:1012D80017F00900F5CF18F00A00F5CF19F02BC068
:1012E80014F02CC015F02DC016F0CDEC0DF014C084
:1012F80028F015C029F016C02AF028C014F029C01B
:1013080015F02AC016F0000E176E000E186E3F0E6C
:10131800196ECDEC0DF014C023F015C024F016C0E2
:1013280025F012000A0E2E644FD00A0E066E2E50BB
:1013380038EC17F0266E2650030DF00EF324F66EE7
:101348007A0EF420F76E0900F5CF17F00900F5CFF3
:1013580018F00A00F5CF19F00A0E0A6E2E5068EC44
:1013680016F0276E2750030D1B0EF326000EF422ED
:10137800F00EF324F66E7A0EF420F76E0900F5CF1E
:1013880014F00900F5CF15F00A00F5CF16F0CDECF2
:101398000DF014C02BF015C02CF016C02DF02BC08A
:1013A80014F02CC015F02DC016F0000E176E000EAC
:1013B800186E3F0E196ECDEC0DF014C023F015C059
:1013C80024F016C025F012002E50030DF00EF32461
:1013D800F66E7A0EF420F76E0900F5CF14F00900C6
:1013E800F5CF15F00A00F5CF16F0000E176E000EB7
:1013F800186E3F0E196ECDEC0DF014C023F015C019
:1014080024F016C025F01200B16F0001B105D8A470
:101418002ED05750D8B42BD055C00DF056C00EF072
:1014280045EC15F00DC0B2F00EC0B3F00FC0B4F02B
:1014380010C0B5F0000E4D6E010E4E6EE60E4F6EEA
:101448007F0E506EB2C051F0B3C052F0B4C053F02A
:10145800B5C054F05CEC00F0140E1A6E000E1B6E52
:10146800010E1C6E000E8FEC11F0000E576E00017D
:101478007E51D8B49FD0010E116E3C0E126E7F0EB5
:10148800136E010E8CEC14F0000E00017E6F88D0F4
:101498007F0E4D6E4E6AF00E4F6E7F0E506E5CECF6
:1014A80000F055C00DF056C00EF045EC15F00DC01B
:1014B800B2F00EC0B3F00FC0B4F010C0B5F0000E1B
:1014C8004D6E010E4E6EE60E4F6E7F0E506EB2C020
:1014D80051F0B3C052F0B4C053F0B5C054F05CEC56
:1014E80000F0140E1A6E000E1B6E010E1C6E000E1C
:1014F8008FEC11F0130E1A6E7F0E1B6E1C6A010E14
:101508008FEC11F057D07F0E4D6E4E6AC40E4F6EA1
:101518007F0E506E5CEC00F00E0E1A6E7F0E1B6E86
:101528001C6A010E8FEC11F045D07F0E4D6E4E6A8D
:10153800DC0E4F6E7F0E506E5CEC00F055C00DF067
:1015480056C00EF045EC15F00DC0B2F00EC0B3F069
:101558000FC0B4F010C0B5F0000E4D6E010E4E6E07
:10156800E60E4F6E7F0E506EB2C051F0B3C052F00F
:10157800B4C053F0B5C054F05CEC00F0140E1A6E11
:10158800000E1B6E010E1C6E000E8FEC11F0100E7B
:101598001A6E7F0E1B6E1C6A010E8FEC11F00AD0BA
:1015A800B151000AD8B474D7010AD8B4ACD7030A29
:1015B800D8B4BBD700017E51120034C038F0396A64
:1015C8003A6A3334383601E3398038503D6E37C0D3
:1015D80038F0396A3A6A3634383601E33980385097
:1015E8003C6E3D50D8B40AD03C503D5CD8B00DD0CC
:1015F8003D503C5C386E180E386407D035C032F068
:1016080036C033F037C034F012003C50D8B40AD09A
:101618003D503C5CD8B00DD03C503D5C386E180E47
:10162800386407D032C032F033C033F034C034F0FD
:101638001200060E3B6E34BE3B8E37BE3B8C338E9B
:10164800FF0E3216FF0E3316000E3416368EFF0EBE
:101658003516FF0E3616000E37163C503D5CD8B0D6
:101668001BD0D8903536363637363C063D503C18B8
:10167800D8B40DD03B063BC038F0070E3816D8B4A6
:1016880006D0EFD7D8903432333232323D2A3C502C
:101698003D18D8B41FD0F6D73D503C5CD8B01AD00E
:1016A800D8903236333634363D063D503C18D8B4DF
:1016B8000DD03B063BC038F0070E3816D8B406D01C
:1016C800EFD7D8903732363235323C2A3C503D1865
:1016D800D8A4F7D73BAE0CD0FF0E321AFF0E331A40
:1016E800FF0E341A010E3226000E3322000E342269
:1016F8003BAC0CD0FF0E351AFF0E361AFF0E371A08
:10170800010E3526000E3622000E3722000E3B6EE3
:1017180032503526335036223450372237AE0ED069
:10172800FF0E351AFF0E361AFF0E371A010E352630
:10173800000E3622000E3722010E3B6E35C006F031
:1017480036C007F037C008F03DC009F03BC00AF0CA
:1017580038EC11F006C032F007C033F008C034F09E
:10176800120022502024326E23502120336E33BEC3
:1017780006D0335003E1650E325CD8B0120033BE98
:101788001200335004E10F0E325CD8A0120020C0C2
:101798000CF021C00DF0000E0F6E020E0E6E1BEC49
:1017A80012F00CC02EF00DC02FF032C00CF033C078
:1017B8000DF0000E0F6E020E0E6E1BEC12F00CC038
:1017C80025F00DC026F02E50255C346E2F5026587B
:1017D800356E34C006F035C007F04DEC17F006C082
:1017E80027F007C028F02E503C08306E2F50D8A0A4
:1017F800E82A0008316E35BE0AD0355003E13404BA
:10180800D8A005D0010E2D6E29682A6808D035AEFB
:101818001200000E2D6E000E2A6E010E296E000EAB
:101828002C6E000E2B6E24D0000E376E000E366E16
:101838002D50D8B407D03650050F156E3050FAEC3D
:1018480013F006D03650050F156E30502BEC14F0FF
:10185800364A372A37BEECD7375004E10A0E365CD1
:10186800D8A0E6D7295030262A5031222B4A2C2AD4
:1018780027502B5C2C50800A246E2850800A24584C
:10188800D8B01200D1D74CAE0CD0000E0001D86FE2
:10189800210ED76F000E4A6E000E4B6E000E4C6E76
:1018A80012004A504B104C10D8A40CD0000E000166
:1018B800D86F220ED76F000E4A6E000E4B6E000EC8
:1018C8004C6E1200000E176E000E186E400E196E48
:1018D8004D0E096E4AC006F04BC007F04CC008F028
:1018E8009EEC12F006C014F007C015F008C016F000
:1018F800CDEC0DF014C032F015C033F016C034F042
:10190800000E356E800E366EBF0E376EE1EC0AF0B3
:1019180032C04AF033C04BF034C04CF04D06D8A06A
:101928004E064AC03EF04BC03FF04CC040F03F0E60
:10193800416E7F0E426E000E446E080E436E0CEC34
:1019480010F03EC04AF03FC04BF040C04CF0720E61
:10195800176E310E186E3F0E196E4DC00EF04EC048
:101968000FF0A2EC16F00EC014F00FC015F010C066
:1019780016F0CDEC0DF014C032F015C033F016C0DF
:1019880034F04AC035F04BC036F04CC037F0E1ECCB
:101998000AF032C04AF033C04BF034C04CF01200A9
:1019A80008C00CF00D6A0E6A07340C3601E30D808E
:1019B8000C50146E1450D8A409D0000E066E000EF8
:1019C800076E000E086E000E096E12000BC00CF0B8
:1019D8000D6A0E6A0A340C3601E30D800C50136E42
:1019E8001350D8B4EAD7078EFF0E0616FF0E071657
:1019F800000E08160A8EFF0E0916FF0E0A16000EB4
:101A08000B16000E0F6E000E106E000E116E000EFB
:101A1800126E7F0E145E1350980F145E180E136E1C
:101A2800D8900F361036113612360950065C0A5017
:101A380007580B500858D8A007D00950065E0A501E
:101A4800075A0B50085A0F80D890063607360836C2
:101A5800132EE6D714AE0DD01450800A970FD8A0D5
:101A6800ACD7D8901232113210320F32143EF9D757
:101A78000DD0170E146407D0A0D7D8900F361036A3
:101A88001136123614061450D8A4F7D70FC006F032
:101A980010C007F011C008F012C009F01200083495
:101AA8000934116E1150D8A409D0000E066E000E2C
:101AB800076E000E086E000E096E12000B340C340F
:101AC800106E1050D8B4F1D7088EFF0E0616FF0E10
:101AD8000716FF0E0816000E09160B8EFF0E0916C4
:101AE800FF0E0A16FF0E0B16000E0C16000E0C6EDB
:101AF800000E0D6E000E0E6E000E0F6E7F0E115E44
:101B08001050A00F115E200E106ED8900C360D36B6
:101B18000E360F360950065C0A5007580B50085805
:101B28000C500958D8A009D00950065E0A50075A27
:101B38000B50085A0C50095A0C80D89006360736B4
:101B480008360936102EE1D711AE0DD01150800A93
:101B58009F0FD8A0AAD7D8900F320E320D320C3270
:101B6800113EF9D70DD01F0E116407D09ED7D8901B
:101B78000C360D360E360F3611061150D8A4F7D78D
:101B88000CC006F00DC007F00EC008F00FC009F039
:101B9800120016C01AF01B6A1C6A15341A3601E3C3
:101BA8001B801A501D6E1D50D8A407D0000E146E4D
:101BB800000E156E000E166E120019C01AF01B6A80
:101BC8001C6A18341A3601E31B801A50226E225000
:101BD800D8A407D0000E146E000E156E000E166EF7
:101BE800120022507B0F1D2616C022F01950221A0F
:101BF800800E2216158E188EFF0E1716FF0E181659
:101C0800000E1916000E1E6E000E1F6E000E206EBE
:101C1800070E216E14A006D017501E2618501F223A
:101C280019502022D890163215321432D89017360F
:101C380018361936212EEED7090E216E14A006D0BB
:101C480017501E2618501F2219502022D8901632DD
:101C580015321432D89020321F321E32212EEED780
:101C68001EC006F01FC007F020C008F01DC009F014
:101C780022C00AF038EC11F006C014F007C015F0C5
:101C880008C016F01200000E126E000E116E000E43
:101C9800146E000E136E000E166E080E156E000EF2
:101CA800186E800E176E170E196E7B0E1A6EDFEC0B
:101CB80012F0150E246E4B0E236EBE0EE82EFED7C4
:101CC800232EFCD7242EFAD700D0080E116E000E52
:101CD800126E800E136E000E8CEC14F0000E266E41
:101CE800040E256E000E2A6E000E296E22D0295091
:101CF800020DF350CB0FD96EDA6ADECF0AF0DDCFD2
:101D08000BF061EC17F00AC027F00BC028F027C0D1
:101D18001AF02950020DF350CB0FD96EDA6ADECFD4
:101D28001BF0DDCF1CF02950020F8FEC11F0294A6F
:101D38002A2A2550295C2A50800A236E2650800AB8
:101D48002358D8A0D4D7150E246E4B0E236EBE0E82
:101D5800E82EFED7232EFCD7242EFAD700D0070E64
:101D6800116E000E126E7F0E136E000E8CEC14F0C6
:101D78001200E0C00EF0E1C00FF0ACEC17F00EC09E
:101D880026F00FC027F010C028F0C00E236E7F0E7B
:101D9800246E440E256E30EC0FF023C032F024C0C0
:101DA80033F025C034F0000E356E800E366EBF0E4F
:101DB800376EE1EC0AF032C063F033C064F034C02F
:101DC80065F063C04AF064C04BF065C04CF047EC66
:101DD8000CF04AC060F04BC061F04CC062F0200EBD
:101DE800236E7D0E246E450E256E4FC035F050C013
:101DF80036F051C037F060C032F061C033F062C0D5
:101E080034F0E1EC0AF032C026F033C027F034C0D9
:101E180028F030EC0FF023C063F024C064F025C034
:101E280065F063C03EF064C03FF065C040F0930EBB
:101E3800416E880E426E430E436E48EC16F03EC06B
:101E480063F03FC064F040C065F063C04FF064C009
:101E580050F065C051F0120025C029F02A6A2B6A9B
:101E68002434293601E32A802950306E3050D8A412
:101E780007D0000E236E000E246E000E256E120091
:101E880028C029F02A6A2B6A2734293601E32A80D8
:101E98002950316E3150D8A407D0000E236E000EA1
:101EA800246E000E256E1200000E2D6E000E2E6E92
:101EB800000E2F6E3150890F305E25C031F028504A
:101EC800311A800E3116248EFF0E2316FF0E2416AB
:101ED800000E2516278EFF0E2616FF0E2716000E5B
:101EE8002816180E2C6ED8902D362E362F362650E2
:101EF800235C2750245828502558D8A007D02650AE
:101F0800235E2750245A2850255A2D80D8902336EE
:101F1800243625362C2EE7D72DC006F02EC007F024
:101F28002FC008F030C009F031C00AF038EC11F0C9
:101F380006C023F007C024F008C025F0120040C0F6
:101F480042F0436A446A3F34423601E343804250D8
:101F58004C6E4C50D8A409D0000E3E6E000E3F6E59
:101F6800000E406E000E416E1200170E426E3EC00B
:101F780043F03FC044F040C045F04228466E04D0CC
:101F8800D890453244324332462EFAD74350476EF2
:101F98003F8EFF0E3E16FF0E3F16000E40163E50B7
:101FA800486E3F50496E40504A6E4B6A8E0E4C5EEA
:101FB8004CAE0DD04C50800A8F0FD8A0CDD7D890FA
:101FC8004B324A32493248324C3EF9D70DD0170EBF
:101FD8004C6407D0C1D7D890483649364A364B3674
:101FE8004C064C50D8A4F7D74750D8B408D04B1E4D
:101FF8004A1E491E486C000E49224A224B2248C0FC
:102008003EF049C03FF04AC040F04BC041F01200DA
:1020180043C006F044C007F0000E096E030E086EB8
:1020280075EC17F041C045F042C046F00650452611
:102038000750462245C0F6FF46C0F7FF0900F5CF16
:1020480047F00900F5CF48F00A00F5CF49F03ED037
:1020580047C017F048C018F049C019F03EC014F046
:102068003FC015F040C016F0CDEC0DF014C032F0B2
:1020780015C033F016C034F0000E096E030E086E5A
:102088004306D8A0440643C006F044C007F075ECE8
:1020980017F041C045F042C046F0065045260750AB
:1020A800462245C0F6FF46C0F7FF0900F5CF35F0D8
:1020B8000900F5CF36F00A00F5CF37F0E1EC0AF069
:1020C80032C047F033C048F034C049F043504410A0
:1020D800D8A4BED747C03EF048C03FF049C040F042
:1020E8001200D59EBA94D59E000E0F01386F000ECF
:1020F8003A6F000E396F000E3B6F3C69870E946E85
:10210800000E926E000E956E020E966E9682000E6E
:10211800936E000E806E000E826E000E836E000EAF
:10212800816ED09EF28EF28C890EC06E000EC16E4A
:10213800190EC26E9D8C9E9CD59CD59AD596D59825
:10214800D550F80B0109D56E9680000E496F0C0E1C
:102158005D6F9E92030EBA6E7C0EBB6E5D8B3E0E5B
:102168005E6FBB50146E156AD89014361536D89029
:1021780014361536040E14240C6E000E15200D6E40
:10218800000E0F6E640E0E6E1BEC12F00CC0E2F027
:102198000DC0E3F09D82F294F28A900EAB6E080EA9
:1021A800B86E240EAC6E000EB06E100EAF6E9D8A27
:1021B8001200CD0E176ECC0E186E3E0E196E4DC065
:1021C80041F04EC042F04FC043F0000E3E6EC80EC4
:1021D8003F6E410E406E48EC16F03EC014F03FC012
:1021E80015F040C016F0CDEC0DF014C063F015C02A
:1021F80064F016C065F063C032F064C033F065C0A7
:1022080034F0000E356E000E366E3F0E376EE1EC80
:102218000AF032C060F033C061F034C062F060C0D0
:1022280035F061C036F062C037F058C00EF059C0C2
:102238000FF0ACEC17F00EC032F00FC033F010C046
:1022480034F0E1EC0AF032C03EF033C03FF034C065
:1022580040F0A3EC0FF03EC066F03FC067F066C0E8
:102268004DF067C04EF012000950D8B405D00650A2
:1022780007100810D8A40CD0000E066E000E076ECA
:10228800000E086E1200092AD8900832073206326A
:10229800000E06140B6E000E07140C6EFE0E0814CA
:1022A8000D6E0B500C100D10D8B40CD0ECD7092AB9
:1022B800010E0626000E0722000E0822D8900832CA
:1022C80007320632000E06140B6E000E07140C6E51
:1022D800FF0E08140D6E0B500C100D10D8B406D05C
:1022E800E6D70906D89006360736083607BE03D063
:1022F800020E0960F6D709A0079ED8900932095046
:1023080008120A50D8A4088E06C006F007C007F0C5
:1023180008C008F012001D6E000E1F6E000E1E6E23
:102328001BD01A501E24116E1BC0F6FF1CC0F7FFED
:10233800F86A050EF76403D00800F55005D0F6CF0B
:10234800D9FFF7CFDAFFDF50126E1D5056EC13F0AD
:102358001B4A1C2A1E4A1F2A1BC0F6FF1CC0F7FF77
:10236800F86A050EF76403D00800F55005D0F6CFDB
:10237800D9FFF7CFDAFFDF500A0AD8B412001BC022
:10238800F6FF1CC0F7FFF86A050EF76403D00800D3
:10239800F55005D0F6CFD9FFF7CFDAFFDF500009A7
:1023A800D8B41200BED70B6E07C009F006C00AF0F9
:1023B800092A02D0D8900A32092EFCD70A50010BFC
:1023C8000E6E07C009F00BC00AF0092A02D0D89097
:1023D8000A32092EFCD70A50010B0F6E0804D8A444
:1023E8000DD0000E0C6E0E50D8B405D00F50D8A4E6
:1023F80002D0010E0C6E0CC010F00CD0000E0D6E49
:102408000E50D8A405D00F50D8B402D0010E0D6ECE
:102418000DC010F01050D8B408D01A0E096EF80E7E
:10242800E82EFED7092EFCD700D010501200000E5F
:10243800116E0FAE06D00E6C0F1ED8B00F2A010E0B
:10244800116E0DAE06D00C6C0D1ED8B00D2A010E03
:10245800111A000E136E000E126E0E500F10D8B423
:102468001CD0010E106E04D0D8900E360F36102AEC
:102478000FAEFAD7D890123613360E500C5C0F50A8
:102488000D58D8A005D00E500C5E0F500D5A128072
:10249800D8900F320E32102EEDD71150D8B404D088
:1024A800126C131ED8B0132A12C00CF013C00DF012
:1024B8001200000E0E6E000E0F6E000E106E000E53
:1024C800116E0A500B100C100D10D8B42AD0010E42
:1024D800126E06D0D8900A360B360C360D36122AF4
:1024E8000DAEF8D7D8900E360F36103611360A5082
:1024F800065C0B5007580C5008580D500958D8A0C6
:1025080009D00A50065E0B50075A0C50085A0D5055
:10251800095A0E80D8900D320C320B320A32122E24
:10252800E1D70EC006F00FC007F010C008F011C0C8
:1025380009F01200065007100810D8A40ED0095050
:10254800D96EDA6A000EDE6E000EDD6E000E066EC3
:10255800000E076E000E086E120008507F0B0A6E00
:102568000B6AD8900A360B360950D96EDA6A0AC057
:10257800DEFF0BC0DDFF0950D96EDA6A07AE03D063
:102588000A6A0A2A01D00A6A0A50DE12000EDD120F
:102598000950D96EDA6A820EDE26FF0EDD22085057
:1025A800800B3F09086E079E06C006F007C007F0BB
:1025B80008C008F01200000E1E6E000E1D6E000E00
:1025C800206E000E1F6E29D0000E226E000E216EA6
:1025D80018D0135021240B6E1D5019241B6E1E5049
:1025E8001A201C6E1BC0F6FF1CC0F7FF0800F5CFB1
:1025F8000CF011501F2417EC15F01D4A1E2A214A11
:10260800222A1750215C2250800A1B6E1850800A1B
:102618001B58D8A0DED71F4A202A15501F5C20500F
:10262800800A1B6E1650800A1B58D8B01200CCD7EF
:1026380008AE0FD0000E0C6E000E0D6E800E0E6EE2
:1026480006500C5C066E07500D58076E08500E5861
:10265800086E0BAE0FD0000E0C6E000E0D6E800EC5
:102668000E6E09500C5C096E0A500D580A6E0B501C
:102678000E580B6E000E061A000E071A800E081A66
:10268800000E091A000E0A1A800E0B1A0950065C71
:102698000A5007580B500858D8B002D0D8901200EA
:1026A800D8801200136EE00E1224066E076AFF0E21
:1026B8000722000E096E050E086E75EC17F006C0AD
:1026C80016F007C017F01150050DF3CF11F0000EEA
:1026D800196E000E186ED50E1624F66E780E172099
:1026E800F76E0800F550146E156A11C00BF014C08F
:1026F8000CF0135017EC15F0112A164A172A184A2D
:10270800192A19BEE8D7195005E1050E185CD8B08A
:102718001200E1D71200000E0B6E07AE06D0066C51
:10272800071ED8B0072A010E0B6E09AE04D0086C3C
:10273800091ED8B0092A08500910D8B418D0010EBB
:102748000A6E04D0D890083609360A2A09AEFAD794
:102758000850065C09500758D8A004D00850065EF7
:102768000950075AD890093208320A2EF1D70B506F
:10277800D8B404D0066C071ED8B0072A06C006F0E5
:1027880007C007F012001750181019101A10D8B403
:1027980024D0010E1B6E06D0D8901736183619367D
:1027A8001A361B2A1AAEF8D71750135C185014584B
:1027B800195015581A501658D8A008D01750135E3B
:1027C8001850145A1950155A1A50165AD8901A32C5
:1027D8001932183217321B2EE7D713C013F014C062
:1027E80014F015C015F016C016F012001D6E1DC0AD
:1027F80016F0D8901632D8901632D8901632165055
:102808001E6E1F6A1DC016F0070E1616010E176EF3
:10281800000E186E162A03D0D89017361836162EC2
:10282800FBD717C019F018C01AF015C012F01E50C7
:1028380088EC17F0166E16501B6E1C6A15C00BF04C
:1028480019501B100C6E1E5017EC15F012001D6E5F
:102858001DC016F0D8901632D8901632D89016327D
:1028680016501E6E1F6A1DC016F0070E1616010EB2
:10287800176E000E186E162A03D0D8901736183621
:10288800162EFBD7171C196E181C1A6E15C012F0DD
:102898001E5088EC17F0166E16501B6E1C6A15C079
:1028A8000BF019501B140C6E1E5017EC15F012008B
:1028B8000D6E400E0B6004D0000E106E010E03D09A
:1028C800000E106E020E0F6E0FC011F00C50D8B42F
:1028D80006D00D50DCEC17F00B5085EC16F01150BB
:1028E800F3EC16F09568000E936E1104D8B481903D
:1028F800020E1118D8B481928186818400F08188F3
:1029080000F083CF0EF08198818081820E501200F2
:10291800176E17C018F0196A1CD012C01AF01B6A7B
:1029280009D01AC00BF0000E0C6E185017EC15F0F9
:102938001A4A1B2A1350146E156A1A50145C155043
:10294800800A166E1B50800A1658D8B0EAD7184A63
:10295800192A1150146E156A1850145C1550800A03
:10296800166E1950800A1658D8A01200D6D7FE0E37
:10297800F66E2F0EF76E000EF86E00EECBF010EE2E
:102988000CF00900F5CFEEFFE550E150FAE1220E18
:10299800F66E300EF76E000EF86E0900F5CF55F0A2
:1029A8000900F5CF56F00900F5CF57F000EED7F043
:1029B8000B0EEE6AE806FDE1596A586A5A905A9277
:1029C800000EF86E000175EF05F08E0E166E06D03B
:1029D800D890113210320F320E32162A000E0E1411
:1029E800126E000E0F14136E000E1014146EFF0EEC
:1029F8001114156E1250131014101510D8A4E8D71E
:102A08000EC006F00FC007F010C008F016C009F09D
:102A1800000E0A6E38EC11F006C00EF007C00FF079
:102A280008C010F012000D6E400E0B6004D0000EAE
:102A38000F6E010E03D0000E0F6E020E0E6E0EC04A
:102A480010F00D50DCEC17F00B5085EC16F0105020
:102A5800F3EC16F0000E936E1004D8B48190020EB9
:102A68001018D8B481928196818400F0818800F092
:102A78000CC083FF000E956E00F0819881808182E2
:102A880012000DC006F00EC007F0000E096E0A0E07
:102A9800086E06EC16F006C013F007C014F00DC05F
:102AA80006F00EC007F0000E096E0A0E086E6EECF6
:102AB80015F006C00DF007C00EF00DC011F00EC0E5
:102AC80012F011C00DF012C00EF013C00FF014C0B8
:102AD80010F01200000E0C6E000E0B6E085009105C
:102AE800D8B41CD0010E0A6E04D0D8900836093626
:102AF8000A2A09AEFAD7D8900B360C360850065C6D
:102B080009500758D8A005D00850065E0950075A42
:102B18000B80D890093208320A2EEDD70BC006F088
:102B28000CC007F01200E2C006F0E3C007F00CC0CA
:102B380008F00DC009F075EC17F006C014F007C0D6
:102B480015F014C00EF015C00FF00F340F320E320E
:102B58000F340F320E320EC010F00FC011F0030EFA
:102B68001414126E136A1238F00B0F015D1310C0A3
:102B78005EFF1200000E4D6E010E4E6ED00E4F6EAF
:102B88007F0E506E58C051F059C052F07EC053F0BD
:102B98007FC054F05CEC00F0000E1C6E000E1E6E40
:102BA8000B0E1D6E000E22EC17F0000E1A6E000EB2
:102BB8001B6E010E1C6E000E8FEC11F01200066EDB
:102BC80015D0010E076EBA84D58E1AD0020E076E84
:102BD800BA94D59E15D0000E566E640E556E3C0EF6
:102BE800D76EB00ED66E000E076E0AD00650000AD9
:102BF800D8B4E7D7010AD8B4E9D7030AD8B4EBD7D1
:102C08000750120008500910D8B418D0010E0A6EE7
:102C180004D0D890083609360A2A09AEFAD70850DF
:102C2800065C09500758D8A004D00850065E095021
:102C3800075AD890093208320A2EF1D706C006F092
:102C480007C007F012000AD007C0F6FF08C0F7FF58
:102C58000800F55005EC18F0074A082A07C0F6FFE7
:102C680008C0F7FF0800F5500009D8A4EDD707C041
:102C7800F6FF08C0F7FF0800F5500009D8A41200B5
:102C88000D0E05EC18F01200415042104310D8B454
:102C980006D0000E411A000E421A800E431A3EC09A
:102CA80032F03FC033F040C034F041C035F042C08C
:102CB80036F043C037F0E1EC0AF032C03EF033C0E2
:102CC8003FF034C040F012000B6E000E0D6E0A503B
:102CD800D8B415D0010E0C6E03D0D8900A360C2A41
:102CE8000AAEFBD7D8900D360A500B5CD8A003D09B
:102CF8000A500B5E0D80D8900A320C2EF3D70D5077
:102D080012000A6E400E0A600CD0010E086E0A50BE
:102D18004009BEEC16F0020E086E400EBEEC16F02E
:102D28001200010E086E7F0EBEEC16F0020E086E41
:102D38000A50C00F4009BEEC16F01200000E116ECA
:102D48000FAE06D00E6C0F1ED8B00F2A010E116EF2
:102D58000EC006F00FC007F0086A8E0E096E11C08B
:102D68000AF038EC11F006C00EF007C00FF008C0EA
:102D780010F01200096E0850F3EC16F0000E936E76
:102D88000804D8B48190020E0818D8B481928196AC
:102D9800819400F0818800F009C083FF000E956ED1
:102DA80000F08198818081821200065058260750D1
:102DB8005922595009E1100E585CD8B005D0000EC0
:102DC800596E0F0E586E1200595004E1640E585C8B
:102DD800D8A01200000E596E640E586E1200076ECD
:102DE8009568000E936E0704D8B48190020E0718F8
:102DF800D8B481928186819400F0818800F083CFD5
:102E080006F0819806BEF9D781808182120006C03B
:102E180008F007C009F002D0084A092A08C0F6FFDE
:102E280009C0F7FF0800F5500009D8A4F5D70650E7
:102E3800085C066E07500958076E1200216E1C5078
:102E4800050DF3CF22F01D50050DF35022241F6EFF
:102E58001F04206E21C011F022C012F020C013F010
:102E680021508CEC14F01200076E080E086E000E4C
:102E7800096ED89007340934096ED8900736065081
:102E8800095CD8A002D00650095E082EF2D7095076
:102E9800120007AE0DD006C008F007C009F0081EE2
:102EA800091E084A092A08C006F009C007F01200DE
:102EB80006C006F007C007F012000AC006F00BC0F3
:102EC80007F00BEC17F0D89007300D6E06300C6E3B
:102ED8000C500D080A6E0D50D8A0E82A00080B6E99
:102EE800120006500802F3CF0AF0F4CF0BF0065098
:102EF8000902F3500B2607500802F3500B260AC0AC
:102F080006F00BC007F01200146E12C00BF0010E91
:102F18000C6E14505CEC14F012C00BF0010E0C6E29
:102F280014505CEC14F0136E135012000650071086
:102F38000810D8B406D0000E061A000E071A800E24
:102F4800081A06C006F007C007F008C008F012000B
:102F58000EC006F00FC007F0086A8E0E096E000E4C
:102F68000A6E38EC11F006C00EF007C00FF008C06A
:102F780010F01200086E000E076E3A0E086005D0B9
:102F88002F0E086402D0010E076E07C006F0063047
:102F98001200818A010E086E3F0EBEEC16F0020E7A
:102FA800086E3F0EBEEC16F0000EEAEC17F01200A9
:102FB8000A6E010E086E0A50B809BEEC16F0020E31
:102FC800086E0A50B809BEEC16F012000A6E010E1F
:102FD800086E0A50C009BEEC16F0020E086E0A50C0
:102FE800C009BEEC16F0120008500624066E0950FF
:102FF8000720076E1200B77FA87F737F5A7F0500EE
:103008003C00066EACA2FED706C0ADFF1200550606
:0D301800D8A05606010E576E12006400018C
:1078D40000000000000000005F0000000700070037
:1078E400147F147F14242A7F2A1223130864623617
:1078F400495522500005030000001C2241000041AC
:10790400221C00082A1C2A0808083E0808005030D7
:10791400000008080808080030300000201008049F
:10792400023E5149453E00427F4000426151494672
:107934002141454B311814127F1027454545393CE8
:107944004A4949300171090503364949493606490E
:1079540049291E003636000000563600000008147F
:107964002241141414141441221408000201510970
:1079740006324979413E7E1111117E7F49494936CB
:107984003E414141227F4141221C7F494949417F77
:10799400090901013E414151327F0808087F004135
:1079A4007F41002040413F017F081422417F404035
:1079B40040407F0204027F7F0408107F3E41414122
:1079C4003E7F090909063E4151215E7F0919294676
:1079D400464949493101017F01013F4040403F1F71
:1079E4002040201F7F2018207F63140814630304A1
:1079F400780403615149454300007F414102040872
:107A0400102041417F000004020102044040404034
:107A140040000102040020545454787F4844443800
:107A24003844444420384444487F38545454180853
:107A34007E090102081454543C7F0804047800446D
:107A44007D40002040443D00007F10284400417FD9
:107A540040007C041804787C0804047838444444C6
:107A6400387C14141408081414187C7C08040408C2
:107A74004854545420043F4440203C4040207C1C43
:107A84002040201C3C4030403C44281028440C50EA
:107A940050503C4464544C44000836410000007F7C
:107AA4000000004136080008082A1C08081C2A089F
:107AB400080801AA01080038383800000000000056
:107AC400000000000000803F00204100C842007A0E
:107AD40044401C4650C34724744997184BBCBE4CC1
:107AE4006B6E4E03155079AD60F3497100803FCD44
:107AF400CC3DD7233C12833AB7D138C627373886D2
:107B040035C0D633CC2B32708930E7DB2EE53C1EF2
:107B140042A20DFFFF030303030303030303030351
:107B24000303030303030303E33373C3030303F3F1
:107B340003030303F303031313F3F3131383E33371
:107B4400131313E3C3030303030303F30303F3F361
:107B540073C30303F30303F3F313131303F3F303E1
:107B640003030303E33373C3030303F3F313133371
:107B7400E3C303C3E313131333E3C303F3F3939391
:107B8400F363030303030303030303030303030371
:107B940003FFFFFFFF000000C070789818781838C2
:107BA400E0C000000000888F030202030E080007F3
:107BB4000C08080C07000000000F0F000003070C5E
:107BC40008080807030001010100000F00000F0F5F
:107BD4000001070E0F00000F0F010101000F0F0835
:107BE4000808080F030202030E08000F0F08080C10
:107BF40007030003070808080C0703000F0F000021
:107C0400070E00000000000000000000000000005B
:107C140000FFFFFFFF0000007FC1021C46180304A1
:107C24000003071C3E0701F1FF0F000000000000E5
:107C34000000000000000000000000000000000040
:107C4400000000000080C06060301018180C0404AC
:107C5400040C18386060C0800000000000000000C0
:107C64000000000000000000000000000000008090
:107C7400C0C0E0E0F0F0F0F8F8F8F8F8F8F8F8F838
:107C8400F0F0F0E0E0C0C080000000000000000060
:107C940000FFFFFFFF00000000030F3C70E0808046
:107CA400000000000000F07F63C0800000000000BE
:107CB40000000000000000000000000000000000C0
:107CC40000C0E0783E030100000070ECF4F478009A
:107CD40000E0D8E8E8D8008FFF00000000000000B2
:107CE400000000000000000000C0F0F8FEFF7F3F2D
:107CF4007FFFE7C3830101010000FFFFFF000001D4
:107D0400010183C3E7FF7F3F7FFFFEF8F0C08000DF
:107D140000FFFFFFFF00000000000000FEE701037A
:107D24000C18000000000000000087FF70E0808055
:107D340080808080808080000000000000000000BF
:107D44003FF3C08000000000000400081931303007
:107D5400303011111900000081FF7E000000000086
:107D640000000000000000F8FFFFFFFFCFC1C0C00B
:107D7400C0C0C1C3C7CFDEFCF8F0FFFFFFF0F8FCC2
:107D8400DECFC7C3C1C0C0C0C0C1C7FFFFFFFFF87B
:107D940000FFFFFFFF00000000000000001F7FE65F
:107DA400CC8C080808080C0C06038381E0791F03B7
:107DB40007FFFB03071D79E10302060E7AF20202B4
:107DC4000203030307060A00040000000000000089
:107DD400000000001C1C363263C1C080000000009B
:107DE40000000000000000073FFFFFFFF9E18101F0
:107DF4000181C1E1F1793D1F0F07FFFFFF070F1F4D
:107E04003D79F1E1C181010181C1F9FFFFFF7F0FDC
:107E140000FFFFFFFF000000000000000000000062
:107E24000101030E1E1E366666E3E1E1A030101860
:107E34000E8781C0E0701E0F00008080F07F47C075
:107E4400808080800000000000000000000000002E
:107E5400000000000000000000000001030F1FFAF2
:107E6400C6061C78E0000000000003071F3F3F7FA8
:107E7400FFFFFBF1F0E0E0E0C0C0FFFFFFC0C0E0A7
:107E8400E0E0F0F1FBFFFF7F3F3F1F07030100002D
:107E940000FFFFFFFFC0C0C0C0C0C0C0C0C0C0C0A2
:107EA400C0C0C0C0C0C0C0C0C0C0C1C1C1C3C7C7BA
:107EB400C7FDFDCCCCC4C6C6C6C3C1C1C0C0C0C00A
:107EC400C0C1C1C1C1C1C3C2C2C6C6C6C6C6C4C47C
:107ED400C4CCCCCCC8C8C8C8C8C8C8C8CCCCCCFFD3
:107EE400E3C0C0F0FFFBF0C0C0C0C0C0C0C0C0C091
:107EF400C0C0C1C1C3C3C3C7C7C7C7C7C7C7C7C734
:107F0400C3C3C3C1C1C0C0C0C0C0C0C0C0C0C0C062
:107F1400C0FFFF010000000A00000064000000E848
:107F240003000010270000A086010040420F0080DB
:107F340096980000E1F50500CA9A3B000000008015
:107F44003FF0FFBEE2A93E8376BEAE2B3E3CC3BDEE
:107F5400D2133D78D3BB486563746F722046646561
:107F64007A2E20646520536576696C6C610A004141
:107F74006E67656C20412E205175696E6F6E657356
:107F84000A0052433020707265737365643A202589
:107F9400640A0052433120707265737365643A2039
:107FA40025640A002D2D2D2D2D2D2D2D2D2D2D2D1E
:107FB4002D0A004C372050726F6A656374650A009D
:107FC40052756E6E696E672E2E2E0A00253364205C
:107FD40061646A3A2533640053746F707065642178
:107FE4000A00253032642E2530640A00526561642B
:0B7FF400790A00252E326620430000B1
:020000040030CA
:0E000000FF021900FFA180FF0FC00FE00F40AC
:00000001FF
