:0400000022EF00F0FB
:100008005B829EB29DA201D09E92F2B4F2AA07D062
:10001800F2943C0ED76EB00ED62611EC18F09EBCAA
:100028009DAC03D09E9CA8EC16F09EBA9DAA04D065
:100038009D9A32EC16F09D8A5B921100E2EF14F063
:100048004D0E0001636F2CEF05F0250E7719D8B41B
:100058000AD049C0D9FF4AC0DAFF77C0DFFF494A52
:100068004A2A2CEF05F0000E716F000E706F000E1B
:100078006F6F000E6E6F03D06E854B4A4C2A4BC0D3
:10008800F6FF4CC0F7FF0800F550300AD8B4F4D793
:100098004BC0F6FF4CC0F7FF0800F550C4EC17F052
:1000A800D8A034D0000E0001716F000E706F70C0C0
:1000B80005F071C006F0000E086E0A0E076E7BECA4
:1000C80017F005C070F006C071F0D00E516EFF0E2B
:1000D800526E4BC0F6FF4CC0F7FF0800F550536E48
:1000E800546A5150532652505422535000017027DD
:1000F800545071234B4A4C2A4BC0F6FF4CC0F7FFB3
:100108000800F550C4EC17F0D8B0D1D74BC0F6FFB3
:100118004CC0F7FF0800F5502E0AD8A439D00001CA
:100128006F8D4B4A4C2A000E766F000E756F25D0E6
:1001380075C005F076C006F0000E086E0A0E076E50
:100148007BEC17F005C075F006C076F0D00E516E46
:10015800FF0E526E4BC0F6FF4CC0F7FF0800F5507B
:10016800536E546A51505326525054225350000132
:100178007527545076234B4A4C2A4BC0F6FF4CC087
:10018800F7FF0800F550C4EC17F0D8A00AD0D0D774
:10019800000E0001766F000E756F6F8902D06F85B3
:1001A80019D04BC0F6FF4CC0F7FF4B4A4C2A080049
:1001B800F5CF77F000017751000AD8B439EF05F090
:1001C800640AD8B407D0020AD8B4E9D70F0AD8A469
:1001D8002CEF05F0070E6F15D8B412D36FA904D011
:1001E800000E766F060E756F6351D96EDA6ADECF30
:1001F80072F0DECF73F0DDCF74F0030E632774AFB7
:1002080010D072C005F073C006F074C007F0A0ECFF
:1002180017F005C072F006C073F007C074F0030E43
:100228006E13000E6D6F000E6C6F725173117411A6
:10023800D8B486D0820E516EFF0E526E72C053F043
:1002480073C054F074C055F075C056F0100E05D048
:10025800D8905632553254325332E82EF9D753508B
:1002680051246C6F000E52206D6F6C07D8A06D077B
:100278006CC005F06DC006F0000E086E030E076E28
:100288007BEC17F005C06CF006C06DF06CC00BF08D
:100298006DC00CF0000E0E6E0A0E0D6EE6EC11F03D
:1002A8000BC06CF00CC06DF000016DAF03D06C0793
:1002B800D8A06D076C51000847EC07F022C064F025
:1002C80023C065F024C066F064C013F065C014F064
:1002D80066C015F072C016F073C017F074C018F03D
:1002E800B2EC0DF013C064F014C065F015C066F0F0
:1002F80064C005F065C006F066C007F0000E086E21
:10030800800E096E3F0E0A6EE7EC12F0D8B005D0E9
:1003180000016C07D8A06D0713D064C005F065C054
:1003280006F066C007F0000E086E200E096E410E3A
:100338000A6EE7EC12F0D8A003D000016C4B6D2BCD
:10034800000176BF06D076511BE10D0E755DD8B061
:1003580017D072C02EF073C02FF074C030F07551F2
:10036800FBEC08F022C031F023C032F024C033F097
:10037800C6EC0AF02EC072F02FC073F030C074F0D3
:1003880000016DBF06D06D5120E10A0E6C5DD8B03A
:100398001CD0725173117411D8B456D072C03AF08F
:1003A80073C03BF074C03CF088EC0FF03A503B103F
:1003B8003C103D10D8A448D000016DBF45D06D5108
:1003C80004E1020E6C5DD8A03FD064C005F065C0A2
:1003D80006F066C007F0700E086E890E096E400EB2
:1003E8000A6EE7EC12F0D8B003D00001F70E02D085
:1003F8000001F80E6C27FF0E6D236C5147EC07F0D7
:1004080022C064F023C065F024C066F072C005F015
:1004180073C006F074C007F064C008F065C009F046
:1004280066C00AF0B9EC0CF005C068F006C069F0C7
:1004380007C06AF008C06BF0000E0001726F000E72
:10044800736F000E746F33D072C03AF073C03BF014
:1004580074C03CF088EC0FF03AC068F03BC069F01B
:100468003CC06AF03DC06BF072C03AF073C03BF01C
:1004780074C03CF068C00DF069C00EF06AC00FF09F
:100488006BC010F086EC14F00DC03DF00EC03EF0CD
:100498000FC03FF012EC16F03AC072F03BC073F098
:1004A8003CC074F0000E00016D6F000E6C6F010E01
:1004B800776F7751040D170EF324F66E7F0EF42034
:1004C800F76E0900F550685D0900F5506959090093
:1004D800F5506A590900F5506B59D8A005D0772B0B
:1004E8000A0E7719D8A4E5D777517525516E000EF5
:1004F8007621526E6C5151266D5152225150705FC7
:100508005250715B75517611D8B403D07007D8A0DA
:1005180071076EC051F0030E5116D8B403D070079E
:10052800D8A071076EA52DD06EC051F0030E5116DC
:10053800D8B414D049C0D9FF4AC0DAFF2D0EDF6EF7
:10054800494A4A2A0BD049C0D9FF4AC0DAFF300EBF
:10055800DF6E494A4A2A7007D8A0710771BF6FD069
:100568007151F1E17005D8A06AD0EDD749C0D9FF23
:100578004AC0DAFF200EDF6E494A4A2A7007D8A01F
:10058800710771BF05D07151F1E17005D8B0EED790
:100598006EC051F0030E5116D8B451D049C0D9FFDE
:1005A8004AC0DAFF2D0EDF6E494A4A2A48D068C091
:1005B80005F069C006F06AC007F06BC008F0775113
:1005C800040D170EF324F66E7F0EF420F76E090063
:1005D800F5CF09F00900F5CF0AF00900F5CF0BF0C7
:1005E8000A00F5CF0CF028EC12F005C064F006C044
:1005F80065F007C066F008C067F064C012F065C017
:1006080013F066C014F067C015F00A0E166E000EDF
:10061800176E000E186E000E196E92EC13F012C0D1
:1006280064F013C065F014C066F015C067F00001EF
:100638006451300F49C0D9FF4AC0DAFFB4D77707F1
:100648007729D8B40CD0B3D749C0D9FF4AC0DAFF4C
:10065800300EDF6E494A4A2A6C07D8A06D076DBF75
:1006680005D06D51F1E16C05D8B0EED776BF09D051
:10067800765104E1090E755DD8A003D0080E776F96
:1006880002D075C077F07751755F000E765B7751B1
:10069800D8B408D049C0D9FF4AC0DAFF2E0EDF6EA1
:1006A800494A4A2A775147EC07F022C060F023C034
:1006B80061F024C062F072C016F073C017F074C005
:1006C80018F060C013F061C014F062C015F0B2EC0D
:1006D8000DF013C03AF014C03BF015C03CF088ECA4
:1006E8000FF03AC068F03BC069F03CC06AF03DC00A
:1006F8006BF070D068C005F069C006F06AC007F0FA
:100708006BC008F07751040D170EF324F66E7F0EB8
:10071800F420F76E0900F5CF09F00900F5CF0AF0CB
:100728000900F5CF0BF00A00F5CF0CF028EC12F019
:1007380005C064F006C065F007C066F008C067F041
:1007480064C012F065C013F066C014F067C015F0FD
:100758000A0E166E000E176E000E186E000E196E39
:1007680092EC13F012C064F013C065F014C066F088
:1007780015C067F000016451300F49C0D9FF4AC065
:10078800DAFFDF6E494A4A2A68C012F069C013F0DE
:100798006AC014F06BC015F07751040D170EF324DE
:1007A800F66E7F0EF420F76E0900F5CF16F00900FB
:1007B800F5CF17F00900F5CF18F00A00F5CF19F0BA
:1007C80092EC13F012C068F013C069F014C06AF01C
:1007D80015C06BF0000177077729D8B40CD08AD7F9
:1007E80049C0D9FF4AC0DAFF300EDF6E494A4A2AAB
:1007F8007507D8A0760775517611D8B429D1F0D7E6
:100808006351D96EDA6ADECF68F0DDCF69F0000E89
:1008180069BFFF0E6A6F6B6F020E63276BAF0AD05A
:10082800030E6E136B1F6A1F691F686D000E692324
:100838006A236B2375517611D8A408D068516911C1
:100848006A116B11D8A402D0754B762B010E776F05
:100858007751040D170EF324F66E7F0EF420F76E11
:100868000900F550685D0900F55069590900F5500F
:100878006A590900F5506B59D8A005D0772B0A0E94
:100888007719D8A4E5D77751516E526A7551515CE2
:100898005250800A536E7651800A5358D8B003D00C
:1008A80075C077F010D07751516E526A5150755D0E
:1008B8007651800A536E5250800A5358D8B003D0EC
:1008C80077C075F0766B70517111D8B409D06EC0CD
:1008D80051F0030E5116D8B403D07007D8A0710791
:1008E8006FAD13D07051755D7651800A516E71519C
:1008F800800A5158D8B005D07551705F7651715B38
:1009080004D0000E716F000E706F7751516E526AED
:100918007051515C5250800A536E7151800A53587D
:10092800D8B005D07751705F000E715B04D0000E0F
:10093800716F000E706F6EA51ED06EC051F0030E61
:100948005116D8B408D049C0D9FF4AC0DAFF2D0ED5
:10095800DF6E494A4A2A70517111D8B471D049C022
:10096800D9FF4AC0DAFF300EDF6E494A4A2A7007BB
:10097800D8A07107F0D770517111D8B40FD049C001
:10098800D9FF4AC0DAFF200EDF6E494A4A2A7007AB
:10099800D8A0710770517111D8A4F1D76EC051F069
:1009A800030E5116D8B44CD049C0D9FF4AC0DAFF5B
:1009B8002D0EDF6E494A4A2A43D075C051F076C0E1
:1009C80052F0D89051365236D89051365236170ECA
:1009D8005124F66E7F0E5220F76E0900F5CF09F00C
:1009E8000900F5CF0AF00900F5CF0BF00A00F5CFA2
:1009F8000CF068C005F069C006F06AC007F06BC06B
:100A080008F028EC12F005C012F006C013F007C079
:100A180014F008C015F00A0E166E000E176E000EC0
:100A2800186E000E196E92EC13F01250300F000180
:100A3800776F49C0D9FF4AC0DAFF77C0DFFFBAD75E
:100A48007507D8A076077529B8E17629D8A4B5D74F
:100A58004BC0F6FF4CC0F7FF4B4A4C2A0800F5CFB5
:100A680077F07751D8A429EF00F049C0D9FF4AC0E0
:100A7800DAFF000EDF6E12000CEC11F0BB50000123
:100A8800B06FB16BD890B037B137D890B037B137B5
:100A9800040EB0250B6E000EB1210C6E000E0E6E0A
:100AA800640E0D6EE6EC11F00BC0DFF00CC0E0F048
:100AB800D3EC17F0070E106E000E116E7F0E126E3B
:100AC800000E57EC14F0000EF0EC17F02CEC0EF0C2
:100AD800969082CFC6F0C6C0C3F082B002D0010E95
:100AE80001D0000E0001BB6F000E82B2010EBC6F78
:100AF800010EB96F010EBA6F000EC26FD59EBA947F
:100B0800010EB76F000EB86F000ECC6F320ECB6FB0
:100B1800000E206E000E1F6E000E226E320E216E29
:100B28009AEC0BF0010E0001D06F000EBD6FC80EDD
:100B3800BE6F410EBF6FBE0E466E430E476E490E26
:100B4800486E2CEC0CF046C0B2F047C0B3F048C079
:100B5800B4F0000E0001B66F000EB56F000EC16F45
:100B6800000EC06FC1BF06D0C15118E1040EC05DB0
:100B7800D8B014D0C005C111D8B40CD0C051020DE2
:100B8800F350D30FD96EDA6ADECF06F0DDCF07F067
:100B9800F1EC15F00001C04BC12BE4D7C2A2C28210
:100BA800D051D8B448D0020E106E3F0E116E7F0E91
:100BB800126E020E57EC14F0B2C04BF0B3C04CF0FA
:100BC800B4C04DF0A2EC0EF04BC0BDF04CC0BEF06E
:100BD8004DC0BFF0000E496E020E4A6EF70E4B6E06
:100BE8007F0E4C6EBDC04DF0BEC04EF0BFC04FF082
:100BF80024EC00F0100E196E000E1A6E020E1B6E19
:100C0800020E5AEC11F0BDC049F0BEC04AF0BFC098
:100C18004BF05AEC10F049C0C4F04AC0C5F0C4C04B
:100C28000BF0C5C00CF061EC15F0C4C078F0C5C07D
:100C380079F088EC15F082CFC6F00001BB51D8A43A
:100C48000CD0C6C005F0000E066E000E076EC3512C
:100C5800A2EC11F00009D8A404D00001CD51D8B4F9
:100C680030D0000E0001CD6F010EBB6F010EB96FC1
:100C7800000E066E010E056EDFEC16F0BDC049F0E1
:100C8800BEC04AF0BFC04BF05AEC10F049C0C4F0E7
:100C98004AC0C5F0C4C00BF0C5C00CF061EC15F03B
:100CA800CBC01FF0CCC020F0000E226E010E216ECA
:100CB8009AEC0BF0C4C078F0C5C079F088EC15F058
:100CC80014D0BB51D8B411D0C6C005F0000E066EC2
:100CD800010E076EC351A2EC11F00009D8B405D07B
:100CE800000E0001BB6F010EB96F0001BC51D8A402
:100CF8000CD0C6C005F0010E066E010E076EC3517A
:100D0800A2EC11F00009D8A404D00001CF51D8B446
:100D18002ED0000E0001CF6F010EBC6F010EBA6F0E
:100D2800FF0E066E0568DFEC16F0BDC049F0BEC0C8
:100D38004AF0BFC04BF05AEC10F049C0C4F04AC0AA
:100D4800C5F0C4C00BF0C5C00CF061EC15F0CBC009
:100D58001FF0CCC020F0FF0E226E21689AEC0BF039
:100D6800C4C078F0C5C079F088EC15F014D0BC5137
:100D7800D8B411D0C6C005F0010E066E000E076E7D
:100D8800C351A2EC11F00009D8B405D0000E00013F
:100D9800BC6F010EBA6F0001C205D8A406D0575027
:100DA8005810D8A402D0010EB86FC6C005F0020EC4
:100DB800066E000E076EC351A2EC11F00009D8A40C
:100DC80004D00001B851D8B40DD00001C205D8A490
:100DD80002D0000EB86FC251ADEC15F00001C26F21
:100DE800010EB76FB7C078F0C251EDEC09F0B76FDC
:100DF800C6C0C3F0B951D8B418D0000EB96F800E70
:100E0800496E020E4A6E860E4B6E7F0E4C6EBBC04C
:100E18004DF04E6A24EC00F00B0E196E800E1A6E1F
:100E2800020E1B6E050E5AEC11F00001BA51D8B42F
:100E380018D0000EBA6F800E496E020E4A6E970ED9
:100E48004B6E7F0E4C6EBCC04DF04E6A24EC00F029
:100E58000B0E196E800E1A6E020E1B6E060E5AECE1
:100E680011F0B5C005F0B6C006F0000E086E010E10
:100E7800076EFEEC17F005C0B5F006C0B6F000012D
:100E8800B54BB62B8BD6286E28AED9D0286C2850F7
:100E9800800A120FD8A079D0000E0E6E0A0E0D6EC1
:100EA800000E086E640E076E2850056E066A05BEB1
:100EB80006065AEC13F005C00BF006C00CF0E6EC81
:100EC80011F0090E0B260B50030DF00EF324F66EED
:100ED8007A0EF420F76E0900F5CF16F00900F5CF69
:100EE80017F00A00F5CF18F0000E0E6E640E0D6EA6
:100EF80028500B6E0C6A0BBE0C06E6EC11F0120EB5
:100F08000B260B50030DF00EF324F66E7A0EF42028
:100F1800F76E0900F5CF13F00900F5CF14F00A00B9
:100F2800F5CF15F0B2EC0DF013C025F014C026F083
:100F380015C027F025C013F026C014F027C015F0FF
:100F4800000E086E0A0E076E2850056E066A05BE6A
:100F580006065AEC13F00550030DF00EF324F66E56
:100F68007A0EF420F76E0900F5CF16F00900F5CFD8
:100F780017F00A00F5CF18F0B2EC0DF013C022F00C
:100F880014C023F015C024F012002850800A750FF1
:100F9800D8A043D0000E0E6E0A0E0D6E28500B6EB0
:100FA8000C6A0BBE0C06E6EC11F0090E0B260B5072
:100FB800030DF00EF324F66E7A0EF420F76E090096
:100FC800F5CF13F00900F5CF14F00A00F5CF15F0AE
:100FD800000E086E0A0E076E2850056E066A05BEDA
:100FE80006065AEC13F00550030DF00EF324F66EC6
:100FF8007A0EF420F76E0900F5CF16F00900F5CF48
:1010080017F00A00F5CF18F0B2EC0DF013C022F07B
:1010180014C023F015C024F012002850030DF00E60
:10102800F324F66E7A0EF420F76E0900F5CF22F05D
:101038000900F5CF23F00A00F5CF24F0120028505C
:10104800800A120FD8A079D0000E0E6E0A0E0D6E0F
:10105800000E086E640E076E2850056E066A05BEFF
:1010680006065AEC13F005C00BF006C00CF0E6ECCF
:1010780011F0090E0B260B50030DC90EF324F66E62
:101088007A0EF420F76E0900F5CF16F00900F5CFB7
:1010980017F00A00F5CF18F0000E0E6E640E0D6EF4
:1010A80028500B6E0C6A0BBE0C06E6EC11F0120E03
:1010B8000B260B50030DC90EF324F66E7A0EF4209E
:1010C800F76E0900F5CF13F00900F5CF14F00A0008
:1010D800F5CF15F0B2EC0DF013C025F014C026F0D2
:1010E80015C027F025C013F026C014F027C015F04E
:1010F800000E086E0A0E076E2850056E066A05BEB9
:1011080006065AEC13F00550030DC90EF324F66ECB
:101118007A0EF420F76E0900F5CF16F00900F5CF26
:1011280017F00A00F5CF18F0B2EC0DF013C022F05A
:1011380014C023F015C024F012002850800A750F3F
:10114800D8A043D0000E0E6E0A0E0D6E28500B6EFE
:101158000C6A0BBE0C06E6EC11F0090E0B260B50C0
:10116800030DC90EF324F66E7A0EF420F76E09000B
:10117800F5CF13F00900F5CF14F00A00F5CF15F0FC
:10118800000E086E0A0E076E2850056E066A05BE28
:1011980006065AEC13F00550030DC90EF324F66E3B
:1011A8007A0EF420F76E0900F5CF16F00900F5CF96
:1011B80017F00A00F5CF18F0B2EC0DF013C022F0CA
:1011C80014C023F015C024F012002850030DC90ED6
:1011D800F324F66E7A0EF420F76E0900F5CF22F0AC
:1011E8000900F5CF23F00A00F5CF24F012002D6E88
:1011F8006D0E2D647CD00A0E096E640E056E2D509E
:101208003EEC17F052EC16F0256E2550030D1B0E20
:10121800F326000EF422F00EF324F66E7A0EF42074
:10122800F76E0900F5CF16F00900F5CF17F00A00A0
:10123800F5CF18F0640E096E2D5052EC16F0266E9C
:101248002650030D360EF326000EF422F00EF3247A
:10125800F66E7A0EF420F76E0900F5CF13F0090048
:10126800F5CF14F00A00F5CF15F0B2EC0DF013C06D
:101278002AF014C02BF015C02CF00A0E056E2D5064
:101288003EEC17F0256E2550030DF00EF324F66E94
:101298007A0EF420F76E0900F5CF16F00900F5CFA5
:1012A80017F00A00F5CF18F02AC013F02BC014F07D
:1012B8002CC015F0B2EC0DF013C027F014C028F0C4
:1012C80015C029F027C013F028C014F029C015F064
:1012D800000E166E000E176E3F0E186EB2EC0DF073
:1012E80013C022F014C023F015C024F012000A0E17
:1012F8002D644FD00A0E056E2D503EEC17F0256E6A
:101308002550030DF00EF324F66E7A0EF420F76ED6
:101318000900F5CF16F00900F5CF17F00A00F5CF50
:1013280018F00A0E096E2D5052EC16F0266E265053
:10133800030D1B0EF326000EF422F00EF324F66EB6
:101348007A0EF420F76E0900F5CF13F00900F5CFF7
:1013580014F00A00F5CF15F0B2EC0DF013C02AF026
:1013680014C02BF015C02CF02AC013F02BC014F0B9
:101378002CC015F0000E166E000E176E3F0E186E7C
:10138800B2EC0DF013C022F014C023F015C024F005
:1013980012002D50030DF00EF324F66E7A0EF42091
:1013A800F76E0900F5CF13F00900F5CF14F00A0025
:1013B800F5CF15F0000E166E000E176E3F0E186E64
:1013C800B2EC0DF013C022F014C023F015C024F0C5
:1013D8001200AB6F0001AB05D8A42ED05950D8B479
:1013E8002BD057C00CF058C00DF00FEC15F00CC006
:1013F800ACF00DC0ADF00EC0AEF00FC0AFF0000EF7
:10140800496E010E4A6EE60E4B6E7F0E4C6EACC0F6
:101418004DF0ADC04EF0AEC04FF0AFC050F024EC70
:1014280000F0140E196E000E1A6E010E1B6E000EDF
:101438005AEC11F0000E596E00017851D8B49FD0C3
:10144800010E106E3C0E116E7F0E126E010E57ECDF
:1014580014F0000E0001786F88D0790E496E4A6A40
:10146800F00E4B6E7F0E4C6E24EC00F057C00CF063
:1014780058C00DF00FEC15F00CC0ACF00DC0ADF07D
:101488000EC0AEF00FC0AFF0000E496E010E4A6EEE
:10149800E60E4B6E7F0E4C6EACC04DF0ADC04EF0FC
:1014A800AEC04FF0AFC050F024EC00F0140E196E2F
:1014B800000E1A6E010E1B6E000E5AEC11F0130E80
:1014C800196E790E1A6E1B6A010E5AEC11F057D07C
:1014D800790E496E4A6AC40E4B6E7F0E4C6E24EC30
:1014E80000F00E0E196E790E1A6E1B6A010E5AEC78
:1014F80011F045D0790E496E4A6ADC0E4B6E7F0EAC
:101508004C6E24EC00F057C00CF058C00DF00FECF6
:1015180015F00CC0ACF00DC0ADF00EC0AEF00FC0B1
:10152800AFF0000E496E010E4A6EE60E4B6E7F0E4E
:101538004C6EACC04DF0ADC04EF0AEC04FF0AFC079
:1015480050F024EC00F0140E196E000E1A6E010E05
:101558001B6E000E5AEC11F0100E196E790E1A6EF1
:101568001B6A010E5AEC11F00AD0AB51000AD8B42C
:1015780074D7010AD8B4ACD7030AD8B4BBD70001D2
:101588007851120030C034F0356A366A2F34343658
:1015980001E335803450396E33C034F0356A366A29
:1015A8003234343601E335803450386E3950D8B48B
:1015B8000AD03850395CD8B00DD03950385C346E08
:1015C800180E346407D031C02EF032C02FF033C06B
:1015D80030F012003850D8B40AD03950385CD8B03E
:1015E8000DD03850395C346E180E346407D02EC0D4
:1015F8002EF02FC02FF030C030F01200060E376EDC
:1016080030BE378E33BE378C2F8EFF0E2E16FF0E50
:101618002F16000E3016328EFF0E3116FF0E3216C0
:10162800000E33163850395CD8B01BD0D8903136FC
:1016380032363336380639503818D8B40DD0370614
:1016480037C034F0070E3416D8B406D0EFD7D89088
:1016580030322F322E32392A38503918D8B41FD0A8
:10166800F6D73950385CD8B01AD0D8902E362F36E5
:101678003036390639503818D8B40DD0370637C047
:1016880034F0070E3416D8B406D0EFD7D8903332DA
:1016980032323132382A38503918D8A4F7D737AE11
:1016A8000CD0FF0E2E1AFF0E2F1AFF0E301A010E45
:1016B8002E26000E2F22000E302237AC0CD0FF0E43
:1016C800311AFF0E321AFF0E331A010E3126000EA0
:1016D8003222000E3322000E376E2E5031262F5044
:1016E80032223050332233AE0ED0FF0E311AFF0EA5
:1016F800321AFF0E331A010E3126000E3222000E66
:101708003322010E376E31C005F032C006F033C007
:1017180007F039C008F037C009F0B5EC10F005C083
:101728002EF006C02FF007C030F0120021501F2401
:10173800316E22502020326E32BE06D0325003E184
:10174800650E315CD8B0120032BE1200325004E18E
:101758000F0E315CD8A012001FC00BF020C00CF097
:10176800000E0E6E020E0D6EE6EC11F00BC02DF0A1
:101778000CC02EF031C00BF032C00CF0000E0E6E13
:10178800020E0D6EE6EC11F00BC024F00CC025F033
:101798002D50245C336E2E502558346E33C005F01E
:1017A80034C006F053EC17F005C026F006C027F049
:1017B8002D503C082F6E2E50D8A0E82A0008306E15
:1017C80034BE0AD0345003E13304D8A005D0010E4A
:1017D8002C6E2868296808D034AE1200000E2C6ED2
:1017E800000E296E010E286E000E2B6E000E2A6E5A
:1017F80024D0000E366E000E356E2C50D8B407D0AB
:101808003550050F146E2F50C5EC13F006D0355027
:10181800050F146E2F50F6EC13F0354A362A36BEF3
:10182800ECD7365004E10A0E355CD8A0E6D728502C
:101838002F26295030222A4A2B2A26502A5C2B5040
:10184800800A236E2750800A2358D8B01200D1D7B7
:1018580048AE0CD0000E0001C86F210EC76F000EF5
:10186800466E000E476E000E486E12004650471036
:101878004810D8A40CD0000E0001C86F220EC76F04
:10188800000E466E000E476E000E486E1200000EE7
:10189800166E000E176E400E186E490E086E46C082
:1018A80005F047C006F048C007F069EC12F005C023
:1018B80013F006C014F007C015F0B2EC0DF013C019
:1018C8002EF014C02FF015C030F0000E316E800ECF
:1018D800326EBF0E336EC6EC0AF02EC046F02FC033
:1018E80047F030C048F04906D8A04A0646C03AF04A
:1018F80047C03BF048C03CF03F0E3D6E7F0E3E6E49
:10190800000E406E080E3F6EF1EC0FF03AC046F044
:101918003BC047F03CC048F0720E166E310E176E91
:101928003F0E186E49C00DF04AC00EF08CEC16F050
:101938000DC013F00EC014F00FC015F0B2EC0DF08E
:1019480013C02EF014C02FF015C030F046C031F08F
:1019580047C032F048C033F0C6EC0AF02EC046F05B
:101968002FC047F030C048F0120007C00BF00C6AD7
:101978000D6A06340B3601E30C800B50136E1350BE
:10198800D8A409D0000E056E000E066E000E076E74
:10199800000E086E12000AC00BF00C6A0D6A0934BA
:1019A8000B3601E30C800B50126E1250D8B4EAD7F4
:1019B800068EFF0E0516FF0E0616000E0716098E78
:1019C800FF0E0816FF0E0916000E0A16000E0E6E00
:1019D800000E0F6E000E106E000E116E7F0E135E5D
:1019E8001250980F135E180E126ED8900E360F36DE
:1019F800103611360850055C095006580A50075829
:101A0800D8A007D00850055E0950065A0A50075A50
:101A18000E80D890053606360736122EE6D713AE56
:101A28000DD01350800A970FD8A0ACD7D890113298
:101A380010320F320E32133EF9D70DD0170E136441
:101A480007D0A0D7D8900E360F36103611361306A9
:101A58001350D8A4F7D70EC005F00FC006F010C079
:101A680007F011C008F0120007340834106E105047
:101A7800D8A409D0000E056E000E066E000E076E83
:101A8800000E086E12000A340B340F6E0F50D8B4D3
:101A9800F1D7078EFF0E0516FF0E0616FF0E071666
:101AA800000E08160A8EFF0E0816FF0E0916FF0E06
:101AB8000A16000E0B16000E0B6E000E0C6E000EB2
:101AC8000D6E000E0E6E7F0E105E0F50A00F105E92
:101AD800200E0F6ED8900B360C360D360E36085089
:101AE800055C095006580A5007580B500858D8A0EA
:101AF80009D00850055E0950065A0A50075A0B507B
:101B0800085A0B80D89005360636073608360F2E49
:101B1800E1D710AE0DD01050800A9F0FD8A0AAD7D9
:101B2800D8900E320D320C320B32103EF9D70DD050
:101B38001F0E106407D09ED7D8900B360C360D3682
:101B48000E3610061050D8A4F7D70BC005F00CC0FD
:101B580006F00DC007F00EC008F0120015C019F00D
:101B68001A6A1B6A1434193601E31A8019501C6E5C
:101B78001C50D8A407D0000E136E000E146E000E71
:101B8800156E120018C019F01A6A1B6A1734193634
:101B980001E31A801950216E2150D8A407D0000EF5
:101BA800136E000E146E000E156E120021507B0F7E
:101BB8001C2615C021F01850211A800E2116148EEB
:101BC800178EFF0E1616FF0E1716000E1816000EAB
:101BD8001D6E000E1E6E000E1F6E070E206E13A0E7
:101BE80006D016501D2617501E2218501F22D890B6
:101BF800153214321332D890163617361836202E6E
:101C0800EED7090E206E13A006D016501D261750C9
:101C18001E2218501F22D890153214321332D89031
:101C28001F321E321D32202EEED71DC005F01EC0F9
:101C380006F01FC007F01CC008F021C009F0B5EC81
:101C480010F005C013F006C014F007C015F012001C
:101C5800000E116E000E106E000E136E000E126E46
:101C6800000E156E080E146E000E176E800E166E9E
:101C7800170E186E7B0E196EAAEC12F0150E236E55
:101C88004B0E226EBE0EE82EFED7222EFCD7232E38
:101C9800FAD700D0080E106E000E116E800E126E6C
:101CA800000E57EC14F0000E256E040E246E000E84
:101CB800296E000E286E22D02850020DF350D30F43
:101CC800D96EDA6ADECF09F0DDCF0AF067EC17F0DB
:101CD80009C026F00AC027F026C019F02850020DC6
:101CE800F350D30FD96EDA6ADECF1AF0DDCF1BF0CE
:101CF8002850020F5AEC11F0284A292A2450285C4F
:101D08002950800A226E2550800A2258D8A0D4D79C
:101D1800150E236E4B0E226EBE0EE82EFED7222E17
:101D2800FCD7232EFAD700D0070E106E000E116EC6
:101D38007F0E126E000E57EC14F01200D1C00DF099
:101D4800D2C00EF0B2EC17F00DC013F00EC014F0B4
:101D58000FC015F0C00E106E7F0E116E440E126E7D
:101D680015EC0FF010C02EF011C02FF012C030F09B
:101D7800000E316E800E326EBF0E336EC6EC0AF066
:101D88002EC051F02FC052F030C053F051C046F071
:101D980052C047F053C048F02CEC0CF046C04EF04F
:101DA80047C04FF048C050F0200E106E7D0E116EE7
:101DB800450E126E4BC031F04CC032F04DC033F0BE
:101DC8004EC02EF04FC02FF050C030F0C6EC0AF0D5
:101DD8002EC013F02FC014F030C015F015EC0FF022
:101DE80010C051F011C052F012C053F051C03AF077
:101DF80052C03BF053C03CF0930E3D6E880E3E6ED1
:101E0800430E3F6E12EC16F03AC051F03BC052F050
:101E18003CC053F051C04BF052C04CF053C04DF091
:101E2800120012C016F0176A186A1134163601E348
:101E3800178016501D6E1D50D8A407D0000E106EC6
:101E4800000E116E000E126E120015C016F0176A01
:101E5800186A1434163601E3178016501E6E1E5089
:101E6800D8A407D0000E106E000E116E000E126E70
:101E78001200000E1A6E000E1B6E000E1C6E1E5015
:101E8800890F1D5E12C01EF015501E1A800E1E16F8
:101E9800118EFF0E1016FF0E1116000E1216148E5C
:101EA800FF0E1316FF0E1416000E1516180E196ED7
:101EB800D8901A361B361C361350105C1450115823
:101EC80015501258D8A007D01350105E1450115A4C
:101ED8001550125A1A80D890103611361236192E0B
:101EE800E7D71AC005F01BC006F01CC007F01DC0DC
:101EF80008F01EC009F0B5EC10F005C010F006C0DF
:101F080011F007C012F012003CC03EF03F6A406A70
:101F18003B343E3601E33F803E50486E4850D8A4DB
:101F280009D0000E3A6E000E3B6E000E3C6E000E9D
:101F38003D6E1200170E3E6E3AC03FF03BC040F0B7
:101F48003CC041F03E28426E04D0D8904132403225
:101F58003F32422EFAD73F50436E3B8EFF0E3A1661
:101F6800FF0E3B16000E3C163A50446E3B50456E31
:101F78003C50466E476A8E0E485E48AE0DD04850BB
:101F8800800A8F0FD8A0CDD7D89047324632453235
:101F98004432483EF9D70DD0170E486407D0C1D750
:101FA800D890443645364636473648064850D8A471
:101FB800F7D74350D8B408D0471E461E451E446C78
:101FC800000E45224622472244C03AF045C03BF065
:101FD80046C03CF047C03DF012003FC005F040C08D
:101FE80006F0000E086E030E076E7BEC17F03DC07E
:101FF80041F03EC042F0055041260650422241C001
:10200800F6FF42C0F7FF0900F5CF43F00900F5CF0E
:1020180044F00A00F5CF45F03ED043C016F044C066
:1020280017F045C018F03AC013F03BC014F03CC09C
:1020380015F0B2EC0DF013C02EF014C02FF015C03F
:1020480030F0000E086E030E076E3F06D8A040065B
:102058003FC005F040C006F07BEC17F03DC041F0F2
:102068003EC042F0055041260650422241C0F6FFCC
:1020780042C0F7FF0900F5CF31F00900F5CF32F083
:102088000A00F5CF33F0C6EC0AF02EC043F02FC09B
:1020980044F030C045F03F504010D8A4BED743C0EC
:1020A8003AF044C03BF045C03CF01200CD0E166E2D
:1020B800CC0E176E3E0E186E49C03DF04AC03EF079
:1020C8004BC03FF0000E3A6EC80E3B6E410E3C6EA0
:1020D80012EC16F03AC013F03BC014F03CC015F0F7
:1020E800B2EC0DF013C04FF014C050F015C051F011
:1020F8004FC02EF050C02FF051C030F0000E316E9E
:10210800000E326E3F0E336EC6EC0AF02EC04CF055
:102118002FC04DF030C04EF04CC031F04DC032F001
:102128004EC033F0CBC00DF0CCC00EF0B2EC17F0BF
:102138000DC02EF00EC02FF00FC030F0C6EC0AF024
:102148002EC03AF02FC03BF030C03CF088EC0FF0C6
:102158003AC052F03BC053F052C049F053C04AF065
:1021680012000850D8B405D0055006100710D8A49E
:102178000CD0000E056E000E066E000E076E1200E3
:10218800082AD890073206320532000E05140A6E66
:10219800000E06140B6EFE0E07140C6E0A500B1080
:1021A8000C10D8B40CD0ECD7082A010E0526000E66
:1021B8000622000E0722D890073206320532000E9A
:1021C80005140A6E000E06140B6EFF0E07140C6E33
:1021D8000A500B100C10D8B406D0E6D70806D890D1
:1021E80005360636073606BE03D0020E0860F6D757
:1021F80008A0069ED8900832085007120950D8A4A3
:10220800078E05C005F006C006F007C007F01200EB
:10221800BA94D59E000E0F01386F000E3A6F000E6B
:10222800396F000E3B6F3C69870E946E000E926EFC
:10223800000E956E020E966E9682000E936E000E3C
:10224800806E000E826E000E836E000E816ED09E30
:10225800F28EF28C890EC06E000EC16E190EC26E1F
:102268009D8C9E9CD59CD59AD596D598D550F80B23
:102278000109D56E9680000E496F0C0E5D6F9E9217
:102288009D82030EBA6E7C0EBB6E5D8B3E0E5E6F3A
:10229800F294F28A900EAB6E080EB86E240EAC6EF5
:1022A800000EB06E100EAF6E9D8A12001C6E000EEE
:1022B8001E6E000E1D6E1BD019501D24106E1AC004
:1022C800F6FF1BC0F7FFF86A050EF76403D0080095
:1022D800F55005D0F6CFD9FFF7CFDAFFDF50116EF2
:1022E8001C5021EC13F01A4A1B2A1D4A1E2A1AC038
:1022F800F6FF1BC0F7FFF86A050EF76403D0080065
:10230800F55005D0F6CFD9FFF7CFDAFFDF500A0A2C
:10231800D8B412001AC0F6FF1BC0F7FFF86A050E02
:10232800F76403D00800F55005D0F6CFD9FFF7CFF2
:10233800DAFFDF500009D8B41200BED70A6E06C013
:1023480008F005C009F0082A02D0D8900932082EF2
:10235800FCD70950010B0D6E06C008F00AC009F041
:10236800082A02D0D8900932082EFCD70950010B50
:102378000E6E0704D8A40DD0000E0B6E0D50D8B405
:1023880005D00E50D8A402D0010E0B6E0BC00FF072
:102398000CD0000E0C6E0D50D8A405D00E50D8B439
:1023A80002D0010E0C6E0CC00FF00F50D8B408D03C
:1023B8001A0E086EF80EE82EFED7082EFCD700D0AD
:1023C8000F501200000E106E0EAE06D00D6C0E1ED1
:1023D800D8B00E2A010E106E0CAE06D00B6C0C1E77
:1023E800D8B00C2A010E101A000E126E000E116ED3
:1023F8000D500E10D8B41CD0010E0F6E04D0D8901A
:102408000D360E360F2A0EAEFAD7D8901136123680
:102418000D500B5C0E500C58D8A005D00D500B5E1B
:102428000E500C5A1180D8900E320D320F2EEDD767
:102438001050D8B404D0116C121ED8B0122A11C092
:102448000BF012C00CF01200000E0D6E000E0E6E96
:10245800000E0F6E000E106E09500A100B100C10B3
:10246800D8B42AD0010E116E06D0D89009360A3693
:102478000B360C36112A0CAEF8D7D8900D360E361E
:102488000F3610360950055C0A5006580B5007588D
:102498000C500858D8A009D00950055E0A50065AB1
:1024A8000B50075A0C50085A0D80D8900C320B323A
:1024B8000A320932112EE1D70DC005F00EC006F020
:1024C8000FC007F010C008F01200055006100710E2
:1024D800D8A40ED00850D96EDA6A000EDE6E000E4F
:1024E800DD6E000E056E000E066E000E076E120001
:1024F80007507F0B096E0A6AD89009360A360850C9
:10250800D96EDA6A09C0DEFF0AC0DDFF0850D96E4D
:10251800DA6A06AE03D0096A092A01D0096A0950A5
:10252800DE12000EDD120850D96EDA6A820EDE263F
:10253800FF0EDD220750800B3F09076E069E05C07F
:1025480005F006C006F007C007F01200000E1D6E69
:10255800000E1C6E000E1F6E000E1E6E29D0000E9F
:10256800216E000E206E18D0125020240A6E1C50C6
:1025780018241A6E1D5019201B6E1AC0F6FF1BC0B6
:10258800F7FF0800F5CF0BF010501E24B4EC14F040
:102598001C4A1D2A204A212A1650205C2150800AF4
:1025A8001A6E1750800A1A58D8A0DED71E4A1F2A5A
:1025B80014501E5C1F50800A1A6E1550800A1A5853
:1025C800D8B01200CCD707AE0FD0000E0B6E000E9D
:1025D8000C6E800E0D6E05500B5C056E06500C5887
:1025E800066E07500D58076E0AAE0FD0000E0B6E20
:1025F800000E0C6E800E0D6E08500B5C086E0950B4
:102608000C58096E0A500D580A6E000E051A000E75
:10261800061A800E071A000E081A000E091A800EF4
:102628000A1A0850055C095006580A500758D8B0CD
:1026380002D0D8901200D8801200146EE00E112437
:10264800056E066AFF0E0622000E086E050E076E5E
:102658007BEC17F005C015F006C016F01050050DFC
:10266800F3CF10F0000E186E000E176ED50E15245D
:10267800F66E780E1620F76E0800F550126E136A83
:1026880010C00AF012C00BF01450B4EC14F0102A69
:10269800154A162A174A182A18BEE8D7185005E10D
:1026A800050E175CD8B01200E1D71200000E0A6EB2
:1026B80006AE06D0056C061ED8B0062A010E0A6EB4
:1026C80008AE04D0076C081ED8B0082A07500810B6
:1026D800D8B418D0010E096E04D0D8900736083641
:1026E800092A08AEFAD70750055C08500658D8A042
:1026F80004D00750055E0850065AD89008320732B1
:10270800092EF1D70A50D8B404D0056C061ED8B0EB
:10271800062A05C005F006C006F01200165017106C
:1027280018101910D8B424D0010E1A6E06D0D890FB
:1027380016361736183619361A2A19AEF8D716501B
:10274800125C175013581850145819501558D8A01F
:1027580008D01650125E1750135A1850145A1950B0
:10276800155AD89019321832173216321A2EE7D75E
:1027780012C012F013C013F014C014F015C015F0F5
:1027880012001E6E1EC015F0D8901532D890153262
:10279800D890153215501C6E1D6A1EC015F0070E14
:1027A8001516010E166E000E176E152A03D0D89056
:1027B80016361736152EFBD716C018F017C019F0A5
:1027C80014C011F01C508EEC17F0156E15501A6ECF
:1027D8001B6A14C00AF018501A100B6E1C50B4EC87
:1027E80014F012001E6E1EC015F0D8901532D89045
:1027F8001532D890153215501C6E1D6A1EC015F082
:10280800070E1516010E166E000E176E152A03D048
:10281800D89016361736152EFBD7161C186E171CAF
:10282800196E14C011F01C508EEC17F0156E15506F
:102838001A6E1B6A14C00AF018501A140B6E1C503A
:10284800B4EC14F012000C6E400E0A6004D0000EB6
:102858000E6E010E03D0000E0E6E020E0D6E0DC030
:1028680010F00B50D8B406D00C50E2EC17F00A5018
:102878006FEC16F01050F9EC16F09568000E936E98
:102888001004D8B48190020E1018D8B481928186B1
:10289800818400F0818800F083CF0FF081988180D7
:1028A80081820F501200166E16C017F0186A1CD0DD
:1028B80011C019F01A6A09D019C00AF0000E0B6E7F
:1028C8001750B4EC14F0194A1A2A1250136E146AED
:1028D8001950135C1450800A156E1A50800A155846
:1028E800D8B0EAD7174A182A1050136E146A17502E
:1028F800135C1450800A156E1850800A1558D8A019
:102908001200D6D78E0E156E06D0D89010320F3220
:102918000E320D32152A000E0D14116E000E0E1413
:10292800126E000E0F14136EFF0E1014146E115059
:10293800121013101410D8A4E8D70DC005F00EC05B
:1029480006F00FC007F015C008F0000E096EB5ECD0
:1029580010F005C00DF006C00EF007C00FF0120011
:102968000C6E400E0A6004D0000E0E6E010E03D0ED
:10297800000E0E6E020E0D6E0DC00FF00C50E2EC44
:1029880017F00A506FEC16F00F50F9EC16F0000E25
:10299800936E0F04D8B48190020E0F18D8B48192A8
:1029A8008196818400F0818800F00BC083FF000EBF
:1029B800956E00F081988180818212000A0EF66E71
:1029C800300EF76E000EF86E00EED3F010EE0CF03D
:1029D8000900F5CFEEFFE550E150FAE12E0EF66E54
:1029E800300EF76E000EF86E0900F5CF57F00900AB
:1029F800F5CF58F00900F5CF59F000EEC7F00C0EEE
:102A0800EE6AE806FDE15A6A5B905B92000EF86E8A
:102A1800000140EF05F00CC005F00DC006F0000EF7
:102A2800086E0A0E076ED0EC15F005C012F006C04D
:102A380013F00CC005F00DC006F0000E086E0A0E6B
:102A4800076E38EC15F005C00CF006C00DF00CC090
:102A580010F00DC011F010C00CF011C00DF012C034
:102A68000EF013C00FF01200000E0A6E000E096E71
:102A780007500810D8B41CD0010E0B6E04D0D890A3
:102A8800073608360B2A08AEFAD7D89009360A3620
:102A98000750055C08500658D8A005D00750055EB9
:102AA8000850065A0980D890083207320B2EEDD705
:102AB80009C005F00AC006F01200DFC005F0E0C04A
:102AC80006F00BC007F00CC008F07BEC17F005C04F
:102AD80013F006C014F013C00DF014C00EF00E343D
:102AE8000E320D320E340E320D320DC00FF00EC004
:102AF80010F0030E1314116E126A1138F00B0F0147
:102B08005D130FC05EFF1200000E496E010E4A6E83
:102B1800D00E4B6E7F0E4C6ECBC04DF0CCC04EF03D
:102B280078C04FF079C050F024EC00F0000E1B6E16
:102B3800000E1D6E0B0E1C6E000E28EC17F0000E1A
:102B4800196E000E1A6E010E1B6E000E5AEC11F073
:102B58001200056E15D0010E066EBA84D58E1AD0F5
:102B6800020E066EBA94D59E15D0000E586E640EED
:102B7800576E3C0ED76EB00ED66E000E066E0AD09B
:102B88000550000AD8B4E7D7010AD8B4E9D7030A30
:102B9800D8B4EBD70650120007500810D8B418D094
:102BA800010E096E04D0D89007360836092A08AEF7
:102BB800FAD70750055C08500658D8A004D007502B
:102BC800055E0850065AD89008320732092EF1D708
:102BD80005C005F006C006F012000AD006C0F6FFD0
:102BE80007C0F7FF0800F5500BEC18F0064A072A53
:102BF80006C0F6FF07C0F7FF0800F5500009D8A483
:102C0800EDD706C0F6FF07C0F7FF0800F55000092A
:102C1800D8A412000D0E0BEC18F012003D503E1017
:102C28003F10D8B406D0000E3D1A000E3E1A800E92
:102C38003F1A3AC02EF03BC02FF03CC030F03DC0E8
:102C480031F03EC032F03FC033F0C6EC0AF02EC07F
:102C58003AF02FC03BF030C03CF01200AECF01F08C
:102C68000FD0010E5A6E1200010E0001CF6F120034
:102C7800010E0001CE6F1200010E0001CD6F12008F
:102C88000150610AD8B4F0D7050AD8B4F5D7170AA5
:102C9800D8B4EED7040AD8A41200E3D70A6E000EFF
:102CA8000C6E0950D8B415D0010E0B6E03D0D89015
:102CB80009360B2A09AEFBD7D8900C3609500A5CA6
:102CC800D8A003D009500A5E0C80D89009320B2E88
:102CD800F3D70C501200096E400E09600CD0010E9B
:102CE800076E09504009C4EC16F0020E076E400E3C
:102CF800C4EC16F01200010E076E7F0EC4EC16F03D
:102D0800020E076E0950C00F4009C4EC16F01200FD
:102D1800000E106E0EAE06D00D6C0E1ED8B00E2A28
:102D2800010E106E0DC005F00EC006F0076A8E0E7B
:102D3800086E10C009F0B5EC10F005C00DF006C023
:102D48000EF007C00FF01200C350C4CF01F0026AA2
:102D580001C002F0016A0110036E0250046E000106
:102D6800D151031804E1D2510418D8B402D0010E8D
:102D780001D0000ED06F03C0D1F004C0D2F0120011
:102D8800086E0750F9EC16F0000E936E0704D8B4DD
:102D98008190020E0718D8B481928196819400F030
:102DA800818800F008C083FF000E956E00F08198BE
:102DB8008180818212000550CB270650CC23CC514C
:102DC80009E1100ECB5DD8B005D0000ECC6F0F0E08
:102DD800CB6F1200CC5104E1640ECB5DD8A0120079
:102DE800000ECC6F640ECB6F1200066E9568000E55
:102DF800936E0604D8B48190020E0618D8B4819256
:102E08008186819400F0818800F083CF05F0819855
:102E180005BEF9D781808182120005C007F006C07F
:102E280008F002D0074A082A07C0F6FF08C0F7FFD3
:102E38000800F5500009D8A4F5D70550075C056EC1
:102E480006500858066E1200206E1B50050DF3CF71
:102E580021F01C50050DF35021241E6E1E041F6E18
:102E680020C010F021C011F01FC012F0205057EC04
:102E780014F01200066E080E076E000E086ED89049
:102E880006340834086ED89006360550085CD8A079
:102E980002D00550085E072EF2D70850120006AE81
:102EA8000DD005C007F006C008F0071E081E074A27
:102EB800082A07C005F008C006F0120005C005F092
:102EC80006C006F0120009C005F00AC006F011ECB1
:102ED80017F0D89006300C6E05300B6E0B500D08AD
:102EE800096E0C50D8A0E82A00080A6E1200055096
:102EF8000702F3CF09F0F4CF0AF005500802F350A7
:102F08000A2606500702F3500A2609C005F00AC02F
:102F180006F01200136E11C00AF0010E0B6E13506A
:102F280027EC14F011C00AF0010E0B6E135027ECB9
:102F380014F0126E12501200055006100710D8B483
:102F480006D0000E051A000E061A800E071A05C0D4
:102F580005F006C006F007C007F012000DC005F026
:102F68000EC006F0076A8E0E086E000E096EB5ECEC
:102F780010F005C00DF006C00EF007C00FF01200EB
:102F8800076E000E066E3A0E076005D02F0E076416
:102F980002D0010E066E06C005F005301200818AC7
:102FA800010E076E3F0EC4EC16F0020E076E3F0EC0
:102FB800C4EC16F0000EF0EC17F01200096E010ECA
:102FC800076E0950B809C4EC16F0020E076E0950D6
:102FD800B809C4EC16F01200096E010E076E09500C
:102FE800C009C4EC16F0020E076E0950C009C4EC03
:102FF80016F0120007500524056E08500620066ECC
:103008001200B77FA87F737F5A7F05003C00056ECA
:10301800ACA2FED705C0ADFF12005706D8A05806CF
:09302800010E596E120064000152
:1078D40000000000000000005F0000000700070037
:1078E400147F147F14242A7F2A1223130864623617
:1078F400495522500005030000001C2241000041AC
:10790400221C00082A1C2A0808083E0808005030D7
:10791400000008080808080030300000201008049F
:10792400023E5149453E00427F4000426151494672
:107934002141454B311814127F1027454545393CE8
:107944004A4949300171090503364949493606490E
:1079540049291E003636000000563600000008147F
:107964002241141414141441221408000201510970
:1079740006324979413E7E1111117E7F49494936CB
:107984003E414141227F4141221C7F494949417F77
:10799400090901013E414151327F0808087F004135
:1079A4007F41002040413F017F081422417F404035
:1079B40040407F0204027F7F0408107F3E41414122
:1079C4003E7F090909063E4151215E7F0919294676
:1079D400464949493101017F01013F4040403F1F71
:1079E4002040201F7F2018207F63140814630304A1
:1079F400780403615149454300007F414102040872
:107A0400102041417F000004020102044040404034
:107A140040000102040020545454787F4844443800
:107A24003844444420384444487F38545454180853
:107A34007E090102081454543C7F0804047800446D
:107A44007D40002040443D00007F10284400417FD9
:107A540040007C041804787C0804047838444444C6
:107A6400387C14141408081414187C7C08040408C2
:107A74004854545420043F4440203C4040207C1C43
:107A84002040201C3C4030403C44281028440C50EA
:107A940050503C4464544C44000836410000007F7C
:107AA4000000004136080008082A1C08081C2A089F
:107AB400080801AA01080038383800000000000056
:107AC400000000000000803F00204100C842007A0E
:107AD40044401C4650C34724744997184BBCBE4CC1
:107AE4006B6E4E03155079AD60F3497100803FCD44
:107AF400CC3DD7233C12833AB7D138C627373886D2
:107B040035C0D633CC2B32708930E7DB2EE53C1EF2
:107B140042A20DFFFF030303030303030303030351
:107B24000303030303030303E33373C3030303F3F1
:107B340003030303F303031313F3F3131383E33371
:107B4400131313E3C3030303030303F30303F3F361
:107B540073C30303F30303F3F313131303F3F303E1
:107B640003030303E33373C3030303F3F313133371
:107B7400E3C303C3E313131333E3C303F3F3939391
:107B8400F363030303030303030303030303030371
:107B940003FFFFFFFF000000C070789818781838C2
:107BA400E0C000000000888F030202030E080007F3
:107BB4000C08080C07000000000F0F000003070C5E
:107BC40008080807030001010100000F00000F0F5F
:107BD4000001070E0F00000F0F010101000F0F0835
:107BE4000808080F030202030E08000F0F08080C10
:107BF40007030003070808080C0703000F0F000021
:107C0400070E00000000000000000000000000005B
:107C140000FFFFFFFF0000007FC1021C46180304A1
:107C24000003071C3E0701F1FF0F000000000000E5
:107C34000000000000000000000000000000000040
:107C4400000000000080C06060301018180C0404AC
:107C5400040C18386060C0800000000000000000C0
:107C64000000000000000000000000000000008090
:107C7400C0C0E0E0F0F0F0F8F8F8F8F8F8F8F8F838
:107C8400F0F0F0E0E0C0C080000000000000000060
:107C940000FFFFFFFF00000000030F3C70E0808046
:107CA400000000000000F07F63C0800000000000BE
:107CB40000000000000000000000000000000000C0
:107CC40000C0E0783E030100000070ECF4F478009A
:107CD40000E0D8E8E8D8008FFF00000000000000B2
:107CE400000000000000000000C0F0F8FEFF7F3F2D
:107CF4007FFFE7C3830101010000FFFFFF000001D4
:107D0400010183C3E7FF7F3F7FFFFEF8F0C08000DF
:107D140000FFFFFFFF00000000000000FEE701037A
:107D24000C18000000000000000087FF70E0808055
:107D340080808080808080000000000000000000BF
:107D44003FF3C08000000000000400081931303007
:107D5400303011111900000081FF7E000000000086
:107D640000000000000000F8FFFFFFFFCFC1C0C00B
:107D7400C0C0C1C3C7CFDEFCF8F0FFFFFFF0F8FCC2
:107D8400DECFC7C3C1C0C0C0C0C1C7FFFFFFFFF87B
:107D940000FFFFFFFF00000000000000001F7FE65F
:107DA400CC8C080808080C0C06038381E0791F03B7
:107DB40007FFFB03071D79E10302060E7AF20202B4
:107DC4000203030307060A00040000000000000089
:107DD400000000001C1C363263C1C080000000009B
:107DE40000000000000000073FFFFFFFF9E18101F0
:107DF4000181C1E1F1793D1F0F07FFFFFF070F1F4D
:107E04003D79F1E1C181010181C1F9FFFFFF7F0FDC
:107E140000FFFFFFFF000000000000000000000062
:107E24000101030E1E1E366666E3E1E1A030101860
:107E34000E8781C0E0701E0F00008080F07F47C075
:107E4400808080800000000000000000000000002E
:107E5400000000000000000000000001030F1FFAF2
:107E6400C6061C78E0000000000003071F3F3F7FA8
:107E7400FFFFFBF1F0E0E0E0C0C0FFFFFFC0C0E0A7
:107E8400E0E0F0F1FBFFFF7F3F3F1F07030100002D
:107E940000FFFFFFFFC0C0C0C0C0C0C0C0C0C0C0A2
:107EA400C0C0C0C0C0C0C0C0C0C0C1C1C1C3C7C7BA
:107EB400C7FDFDCCCCC4C6C6C6C3C1C1C0C0C0C00A
:107EC400C0C1C1C1C1C1C3C2C2C6C6C6C6C6C4C47C
:107ED400C4CCCCCCC8C8C8C8C8C8C8C8CCCCCCFFD3
:107EE400E3C0C0F0FFFBF0C0C0C0C0C0C0C0C0C091
:107EF400C0C0C1C1C3C3C3C7C7C7C7C7C7C7C7C734
:107F0400C3C3C3C1C1C0C0C0C0C0C0C0C0C0C0C062
:107F1400C0FFFF010000000A00000064000000E848
:107F240003000010270000A086010040420F0080DB
:107F340096980000E1F50500CA9A3B000000008015
:107F44003FF0FFBEE2A93E8376BEAE2B3E3CC3BDEE
:107F5400D2133D78D3BB486563746F722046646561
:107F64007A2E20646520536576696C6C610A004141
:107F74006E67656C20412E205175696E6F6E657356
:107F84000A0052433020707265737365643A202589
:107F9400640A0052433120707265737365643A2039
:107FA40025640A002D2D2D2D2D2D2D2D2D2D2D2D1E
:107FB4002D0A004C372050726F6A656374650A009D
:107FC40052756E6E696E672E2E2E0A00253364205C
:107FD40061646A3A2533640053746F707065642178
:107FE4000A00253032642E2530640A00526561642B
:0B7FF400790A00252E326620430000B1
:020000040030CA
:0E000000FF021900FFA180FF0FC00FE00F40AC
:00000001FF
