:0400000022EF00F0FB
:100008005B829EB29DA201D09E92F2B4F2AA07D062
:10001800F2943C0ED76EB00ED62683EC17F09EBC39
:100028009DAC03D09E9C17EC16F09EBA9DAA04D0F6
:100038009D9A9FEC15F09D8A5B921100F8EF12F0E3
:10004800500E0001696F23EF05F0250E7D19D8B415
:100058000AD04CC0D9FF4DC0DAFF7DC0DFFF4C4A43
:100068004D2A23EF05F0000E776F000E766F000E15
:10007800756F000E746F03D074854E4A4F2A4EC0B8
:10008800F6FF4FC0F7FF0800F550300AD8B4F4D790
:100098004EC0F6FF4FC0F7FF0800F55059EC17F0B7
:1000A800D8A031D0000E0001776F000E766F76C0B1
:1000B80005F077C006F0000E086E0A0E076E01EC18
:1000C80017F005C076F006C077F04EC0F6FF4FC0B7
:1000D800F7FF0800F5CF60F0D00E00016025616FD2
:1000E800626BFF0E622361517627625177234E4A75
:1000F8004F2A4EC0F6FF4FC0F7FF0800F55059ECE5
:1001080017F0D8B0D4D74EC0F6FF4FC0F7FF08009D
:10011800F5502E0AD8A436D00001758D4E4A4F2AC4
:10012800000E7C6F000E7B6F22D07BC005F07CC078
:1001380006F0000E086E0A0E076E01EC17F005C0F7
:100148007BF006C07CF04EC0F6FF4FC0F7FF0800FA
:10015800F5CF60F0D00E00016025616F626BFF0E75
:10016800622361517B2762517C234E4A4F2A4EC03D
:10017800F6FF4FC0F7FF0800F55059EC17F0D8A06C
:100188000AD0D3D7000E00017C6F000E7B6F7589F3
:1001980002D0758519D04EC0F6FF4FC0F7FF4E4A02
:1001A8004F2A0800F5CF7DF000017D51000AD8B430
:1001B80030EF05F0640AD8B407D0020AD8B4E9D7FA
:1001C8000F0AD8A423EF05F0070E7515D8B410D37D
:1001D80075A904D0000E7C6F060E7B6F6951D96E2D
:1001E800DA6ADECF78F0DECF79F0DDCF7AF0030E71
:1001F80069277AAF10D078C005F079C006F07AC0C8
:1002080007F026EC17F005C078F006C079F007C0B3
:100218007AF0030E7413000E736F000E726F78512C
:1002280079117A11D8B486D0820E606FFF0E616F93
:1002380078C062F079C063F07AC064F07BC065F082
:10024800100E05D0D8906533643363336233E82EDB
:10025800F9D762516025726F000E6121736F7207C2
:10026800D8A0730772C005F073C006F0000E086EC0
:10027800030E076E01EC17F005C072F006C073F0AC
:1002880072C00BF073C00CF0000E0E6E0A0E0D6EED
:100298004DEC11F00BC072F00CC073F0000173AF9D
:1002A80003D07207D8A073077251000836EC05F026
:1002B80022C06AF023C06BF024C06CF06AC013F04F
:1002C8006BC014F06CC015F078C016F079C017F048
:1002D8007AC018F04BEC0DF013C06AF014C06BF044
:1002E80015C06CF06AC005F06BC006F06CC007F072
:1002F800000E086E800E096E3F0E0A6E87EC12F033
:10030800D8B005D000017207D8A0730713D06AC00F
:1003180005F06BC006F06CC007F0000E086E200EEA
:10032800096E410E0A6E87EC12F0D8A003D00001C6
:10033800724B732B00017CBF06D07C511BE10D0E64
:100348007B5DD8B017D078C031F079C032F07AC070
:1003580033F07B5198EC08F022C034F023C035F01C
:1003680024C036F061EC0AF031C078F032C079F080
:1003780033C07AF0000173BF06D0735120E10A0E32
:10038800725DD8B01CD0785179117A11D8B456D092
:1003980078C03DF079C03EF07AC03FF0ABEC0EF08B
:1003A8003D503E103F104010D8A448D0000173BF04
:1003B80045D0735104E1020E725DD8A03FD06AC0E7
:1003C80005F06BC006F06CC007F0700E086E890E61
:1003D800096E400E0A6E87EC12F0D8B003D0000107
:1003E800F70E02D00001F80E7227FF0E7323725128
:1003F80036EC05F022C06AF023C06BF024C06CF024
:1004080078C005F079C006F07AC007F06AC008F035
:100418006BC009F06CC00AF052EC0CF005C06EF02D
:1004280006C06FF007C070F008C071F0000E000140
:10043800786F000E796F000E7A6F33D078C03DF078
:1004480079C03EF07AC03FF0ABEC0EF03DC06EF0E4
:100458003EC06FF03FC070F040C071F078C03DF012
:1004680079C03EF07AC03FF06EC00DF06FC00EF05C
:1004780070C00FF071C010F01EEC14F00DC040F009
:100488000EC041F00FC042F07FEC15F03DC078F08F
:100498003EC079F03FC07AF0000E0001736F000E85
:1004A800726F010E7D6F7D51040D150EF324F66EEB
:1004B8007F0EF420F76E0900F5506E5D0900F550C7
:1004C8006F590900F55070590900F5507159D8A0B5
:1004D80005D07D2B0A0E7D19D8A4E5D77D517B2543
:1004E800606F000E7C21616F725160277351612328
:1004F8006051765F6151775B7B517C11D8B403D032
:100508007607D8A0770774C060F0030E6017D8B4D8
:1005180003D07607D8A0770774A52DD074C060F0F3
:10052800030E6017D8B414D04CC0D9FF4DC0DAFF01
:100538002D0EDF6E4C4A4D2A0BD04CC0D9FF4DC052
:10054800DAFF300EDF6E4C4A4D2A7607D8A07707BF
:1005580077BF6ED07751F1E17605D8A069D0EDD795
:100568004CC0D9FF4DC0DAFF200EDF6E4C4A4D2A31
:100578007607D8A0770777BF05D07751F1E17605E0
:10058800D8B0EED774C060F0030E6017D8B450D05E
:100598004CC0D9FF4DC0DAFF2D0EDF6E4C4A4D2AF4
:1005A80047D06EC005F06FC006F070C007F071C08C
:1005B80008F07D51040D150EF324F66E7F0EF4201D
:1005C800F76E0900F5CF09F00900F5CF0AF0090028
:1005D800F5CF0BF00A00F5CF0CF08EEC11F005C04A
:1005E8006AF006C06BF007C06CF008C06DF06AC016
:1005F80012F06BC013F06CC014F06DC015F00A0E49
:10060800166E000E176E000E186E000E196E2BEC8B
:1006180013F012C06AF013C06BF014C06CF015C070
:100628006DF06A51300F4CC0D9FF4DC0DAFFB5D715
:100638007D077D29D8B40CD0B4D74CC0D9FF4DC0A4
:10064800DAFF300EDF6E4C4A4D2A7207D8A07307C6
:1006580073BF05D07351F1E17205D8B0EED77CBFF6
:1006680009D07C5104E1090E7B5DD8A003D0080EA7
:100678007D6F02D07BC07DF07D517B5F000E7C5B7F
:100688007D51D8B408D04CC0D9FF4DC0DAFF2E0E2A
:10069800DF6E4C4A4D2A7D5136EC05F022C066F0DB
:1006A80023C067F024C068F078C016F079C017F04E
:1006B8007AC018F066C013F067C014F068C015F06F
:1006C8004BEC0DF013C03DF014C03EF015C03FF0E8
:1006D800ABEC0EF03DC06EF03EC06FF03FC070F066
:1006E80040C071F06FD06EC005F06FC006F070C0EA
:1006F80007F071C008F07D51040D150EF324F66E55
:100708007F0EF420F76E0900F5CF09F00900F5CF48
:100718000AF00900F5CF0BF00A00F5CF0CF08EECCB
:1007280011F005C06AF006C06BF007C06CF008C095
:100738006DF06AC012F06BC013F06CC014F06DC09D
:1007480015F00A0E166E000E176E000E186E000ECB
:10075800196E2BEC13F012C06AF013C06BF014C0C2
:100768006CF015C06DF06A51300F4CC0D9FF4DC008
:10077800DAFFDF6E4C4A4D2A6EC012F06FC013F0DC
:1007880070C014F071C015F07D51040D150EF324DE
:10079800F66E7F0EF420F76E0900F5CF16F009000B
:1007A800F5CF17F00900F5CF18F00A00F5CF19F0CA
:1007B8002BEC13F012C06EF013C06FF014C070F081
:1007C80015C071F000017D077D29D8B40CD08BD7F6
:1007D8004CC0D9FF4DC0DAFF300EDF6E4C4A4D2AAF
:1007E8007B07D8A07C077B517C11D8B428D1F0D7DF
:1007F8006951D96EDA6ADECF6EF0DDCF6FF0000E88
:100808006FBFFF0E706F716F020E692771AF0AD04C
:10081800030E7413711F701F6F1F6E6D000E6F2310
:10082800702371237B517C11D8A408D06E516F11AD
:1008380070117111D8A402D07B4B7C2B010E7D6FF7
:100848007D51040D150EF324F66E7F0EF420F76E1D
:100858000900F5506E5D0900F5506F590900F55013
:1008680070590900F5507159D8A005D07D2B0A0E92
:100878007D19D8A4E5D77D51606F616B7B51605DB0
:100888006151800A626F7C51800A6259D8B003D0E6
:100898007BC07DF010D07D51606F616B60517B5DD6
:1008A8007C51800A626F6151800A6259D8B003D0C6
:1008B8007DC07BF07C6B76517711D8B409D074C0B9
:1008C80060F0030E6017D8B403D07607D8A0770776
:1008D80075AD13D076517B5D7C51800A606F77517E
:1008E800800A6059D8B005D07B51765F7C51775B20
:1008F80004D0000E776F000E766F7D51606F616BCC
:100908007651605D6151800A626F7751800A625941
:10091800D8B005D07D51765F000E775B04D0000E0D
:10092800776F000E766F74A51ED074C060F0030E4A
:100938006017D8B408D04CC0D9FF4DC0DAFF2D0ECF
:10094800DF6E4C4A4D2A76517711D8B470D04CC01E
:10095800D9FF4DC0DAFF300EDF6E4C4A4D2A7607BC
:10096800D8A07707F0D776517711D8B40FD04CC0FC
:10097800D9FF4DC0DAFF200EDF6E4C4A4D2A7607AC
:10098800D8A0770776517711D8A4F1D774C060F052
:10099800030E6017D8B44BD04CC0D9FF4DC0DAFF56
:1009A8002D0EDF6E4C4A4D2A42D07BC060F07CC0D1
:1009B80061F0D89060376137D89060376137150E8D
:1009C8006025F66E7F0E6121F76E0900F5CF09F0FC
:1009D8000900F5CF0AF00900F5CF0BF00A00F5CFB2
:1009E8000CF06EC005F06FC006F070C007F071C063
:1009F80008F08EEC11F005C012F006C013F007C025
:100A080014F008C015F00A0E166E000E176E000ED0
:100A1800186E000E196E2BEC13F01250300F7D6F0C
:100A28004CC0D9FF4DC0DAFF7DC0DFFFBBD77B07C5
:100A3800D8A07C077B29B9E17C29D8A4B6D74EC0B9
:100A4800F6FF4FC0F7FF4E4A4F2A0800F5CF7DF05A
:100A58007D51D8A429EF00F04CC0D9FF4DC0DAFF72
:100A6800DF6A1200286E28AED9D0286C2850800A78
:100A7800120FD8A079D0000E0E6E0A0E0D6E000E61
:100A8800086E640E076E2850056E066A05BE0606D7
:100A9800C1EC12F005C00BF006C00CF04DEC11F0E3
:100AA800090E0B260B50030DEE0EF324F66E7A0E8C
:100AB800F420F76E0900F5CF16F00900F5CF17F00E
:100AC8000A00F5CF18F0000E0E6E640E0D6E285059
:100AD8000B6E0C6A0BBE0C064DEC11F0120E0B26B9
:100AE8000B50030DEE0EF324F66E7A0EF420F76E1B
:100AF8000900F5CF13F00900F5CF14F00A00F5CF7F
:100B080015F04BEC0DF013C025F014C026F015C0FD
:100B180027F025C013F026C014F027C015F0000EEA
:100B2800086E0A0E076E2850056E066A05BE060690
:100B3800C1EC12F00550030DEE0EF324F66E7A0E9A
:100B4800F420F76E0900F5CF16F00900F5CF17F07D
:100B58000A00F5CF18F04BEC0DF013C022F014C0CA
:100B680023F015C024F012002850800A750FD8A071
:100B780043D0000E0E6E0A0E0D6E28500B6E0C6AD6
:100B88000BBE0C064DEC11F0090E0B260B50030D95
:100B9800EE0EF324F66E7A0EF420F76E0900F5CF08
:100BA80013F00900F5CF14F00A00F5CF15F0000E88
:100BB800086E0A0E076E2850056E066A05BE060600
:100BC800C1EC12F00550030DEE0EF324F66E7A0E0A
:100BD800F420F76E0900F5CF16F00900F5CF17F0ED
:100BE8000A00F5CF18F04BEC0DF013C022F014C03A
:100BF80023F015C024F012002850030DEE0EF32444
:100C0800F66E7A0EF420F76E0900F5CF22F009008F
:100C1800F5CF23F00A00F5CF24F012002850800AFF
:100C2800120FD8A079D0000E0E6E0A0E0D6E000EAF
:100C3800086E640E076E2850056E066A05BE060625
:100C4800C1EC12F005C00BF006C00CF04DEC11F031
:100C5800090E0B260B50030DC70EF324F66E7A0E01
:100C6800F420F76E0900F5CF16F00900F5CF17F05C
:100C78000A00F5CF18F0000E0E6E640E0D6E2850A7
:100C88000B6E0C6A0BBE0C064DEC11F0120E0B2607
:100C98000B50030DC70EF324F66E7A0EF420F76E90
:100CA8000900F5CF13F00900F5CF14F00A00F5CFCD
:100CB80015F04BEC0DF013C025F014C026F015C04C
:100CC80027F025C013F026C014F027C015F0000E39
:100CD800086E0A0E076E2850056E066A05BE0606DF
:100CE800C1EC12F00550030DC70EF324F66E7A0E10
:100CF800F420F76E0900F5CF16F00900F5CF17F0CC
:100D08000A00F5CF18F04BEC0DF013C022F014C018
:100D180023F015C024F012002850800A750FD8A0BF
:100D280043D0000E0E6E0A0E0D6E28500B6E0C6A24
:100D38000BBE0C064DEC11F0090E0B260B50030DE3
:100D4800C70EF324F66E7A0EF420F76E0900F5CF7D
:100D580013F00900F5CF14F00A00F5CF15F0000ED6
:100D6800086E0A0E076E2850056E066A05BE06064E
:100D7800C1EC12F00550030DC70EF324F66E7A0E7F
:100D8800F420F76E0900F5CF16F00900F5CF17F03B
:100D98000A00F5CF18F04BEC0DF013C022F014C088
:100DA80023F015C024F012002850030DC70EF324B9
:100DB800F66E7A0EF420F76E0900F5CF22F00900DE
:100DC800F5CF23F00A00F5CF24F01200C7EC10F09D
:100DD800BB500001C06FC16BD890C037C137D890E5
:100DE800C037C137040EC0250B6E000EC1210C6E32
:100DF800000E0E6E640E0D6E4DEC11F00BC0D4F0AB
:100E08000CC0D5F04AEC17F0070E106E000E116EEC
:100E18007F0E126E000EEFEC13F0000E75EC17F05B
:100E280099EC17F0969082CF91F291C28EF282B02F
:100E380002D0010E01D0000E0201866F000E82B2B0
:100E4800010E876F010E806F8D6BD59EBA94010ECF
:100E5800846F856B000E936F320E926F000E206EBA
:100E6800000E1F6E000E226E320E216E34EC0BF057
:100E7800010E0201966F000E886FC80E896F410E31
:100E88008A6FBE0E4B6E430E4C6E490E4D6EC5EC0E
:100E98000BF04BC081F24CC082F24DC083F2000EC1
:100EA80002018C6F000E8B6F8CBF06D08C5118E13D
:100EB800040E8B5DD8B014D08B058C11D8B40CD02F
:100EC8008B51020DF350C20FD96EDA6ADECF06F0ED
:100ED800DDCF07F05EEC15F002018B4B8C2BE4D7CD
:100EE800C2A2BFEC15F029EC10F002019651D8B45B
:100EF80048D0020E106E3F0E116E7F0E126E020E5B
:100F0800EFEC13F081C250F082C251F083C252F06C
:100F1800C5EC0DF050C088F251C089F252C08AF277
:100F2800000E4C6E020E4D6EF70E4E6E7F0E4F6E1B
:100F380088C250F089C251F08AC252F024EC00F005
:100F4800100E1D6E000E1E6E020E1F6E020E7FEC3E
:100F580010F088C24CF089C24DF08AC24EF077EC8E
:100F68000FF04CC08FF24DC090F28FC205F090C2C6
:100F780006F078EC14F08FC27EF090C27FF0F5ECAA
:100F880014F082CF91F202018651D8A40CD091C2FC
:100F980005F0000E066E000E076E8E510BEC11F078
:100FA8000009D8A404D002019451D8B42DD002016C
:100FB800946B010E866F000E066E010E056E4EECE8
:100FC80016F088C24CF089C24DF08AC24EF077EC18
:100FD8000FF04CC08FF24DC090F28FC205F090C256
:100FE80006F078EC14F092C21FF093C220F0000EC5
:100FF800226E010E216E34EC0BF08FC27EF090C28F
:101008007FF0F5EC14F011D08651D8B40ED091C20F
:1010180005F0000E066E010E076E8E510BEC11F0F6
:101028000009D8B402D00201866B02018751D8A406
:101038000CD091C205F0010E066E010E076E8E519E
:101048000BEC11F00009D8A404D002019551D8B4D2
:101058002BD00201956B010E876FFF0E066E056897
:101068004EEC16F088C24CF089C24DF08AC24EF0A0
:1010780077EC0FF04CC08FF24DC090F28FC205F0A4
:1010880090C206F078EC14F092C21FF093C220F0E0
:10109800FF0E226E216834EC0BF08FC27EF090C2F6
:1010A8007FF0F5EC14F011D08751D8B40ED091C26E
:1010B80005F0010E066E000E076E8E510BEC11F056
:1010C8000009D8B402D00201876B02018D05D8A4AB
:1010D80006D097519811D8A402D0010E856F91C2FD
:1010E80005F0020E066E000E076E8E510BEC11F025
:1010F8000009D8A404D002018551D8B40BD002014C
:101108008D05D8B4856B8D511AEC15F002018D6FE1
:10111800010E846F84C254F08D518AEC09F00201EB
:10112800846F91C28EF2DCD62D6E6D0E2D647CD04C
:101138000A0E096E640E056E2D50D9EC16F0FBEC04
:1011480015F0256E2550030D1B0EF326000EF42214
:10115800EE0EF324F66E7A0EF420F76E0900F5CF42
:1011680016F00900F5CF17F00A00F5CF18F0640E55
:10117800096E2D50FBEC15F0266E2650030D360E29
:10118800F326000EF422EE0EF324F66E7A0EF42007
:10119800F76E0900F5CF13F00900F5CF14F00A0037
:1011A800F5CF15F04BEC0DF013C02AF014C02BF05E
:1011B80015C02CF00A0E056E2D50D9EC16F0256ED0
:1011C8002550030DEE0EF324F66E7A0EF420F76E1A
:1011D8000900F5CF16F00900F5CF17F00A00F5CF92
:1011E80018F02AC013F02BC014F02CC015F04BECEB
:1011F8000DF013C027F014C028F015C029F027C03F
:1012080013F028C014F029C015F0000E166E000E59
:10121800176E3F0E186E4BEC0DF013C022F014C081
:1012280023F015C024F012000A0E2D644FD00A0EC8
:10123800056E2D50D9EC16F0256E2550030DEE0ED7
:10124800F324F66E7A0EF420F76E0900F5CF16F047
:101258000900F5CF17F00A00F5CF18F00A0E096E4D
:101268002D50FBEC15F0266E2650030D1B0EF326B1
:10127800000EF422EE0EF324F66E7A0EF420F76ECA
:101288000900F5CF13F00900F5CF14F00A00F5CFE7
:1012980015F04BEC0DF013C02AF014C02BF015C05C
:1012A8002CF02AC013F02BC014F02CC015F0000E3F
:1012B800166E000E176E3F0E186E4BEC0DF013C035
:1012C80022F014C023F015C024F012002D50030D95
:1012D800EE0EF324F66E7A0EF420F76E0900F5CFC1
:1012E80013F00900F5CF14F00A00F5CF15F0000E41
:1012F800166E000E176E3F0E186E4BEC0DF013C0F5
:1013080022F014C023F015C024F012000001B06FC1
:101318000001B005D8A42ED0CE51D8B42BD097C296
:101328000CF098C20DF0A3EC14F00CC0B1F00DC095
:10133800B2F00EC0B3F00FC0B4F0000E4C6E010E48
:101348004D6EE60E4E6E7F0E4F6EB1C050F0B2C0BD
:1013580051F0B3C052F0B4C053F024EC00F0140EB6
:101368001D6E000E1E6E010E1F6E000E7FEC10F03B
:101378000001CE6B5450D8B49ED0010E106E3C0EB6
:10138800116E7F0E126E010EEFEC13F0546A88D0C6
:101398007E0E4C6E4D6AF00E4E6E7F0E4F6E24EC34
:1013A80000F097C20CF098C20DF0A3EC14F00CC03A
:1013B800B1F00DC0B2F00EC0B3F00FC0B4F0000E23
:1013C8004C6E010E4D6EE60E4E6E7F0E4F6EB1C026
:1013D80050F0B2C051F0B3C052F0B4C053F024EC96
:1013E80000F0140E1D6E000E1E6E010E1F6E000E14
:1013F8007FEC10F0130E1D6E7E0E1E6E1F6A010E1E
:101408007FEC10F058D07E0E4C6E4D6AAE0E4E6ECC
:101418007F0E4F6E24EC00F00E0E1D6E7E0E1E6EBB
:101428001F6A010E7FEC10F046D07E0E4C6E4D6A9E
:10143800DC0E4E6E7F0E4F6E24EC00F097C20CF05F
:1014480098C20DF0A3EC14F00CC0B1F00DC0B2F0CE
:101458000EC0B3F00FC0B4F0000E4C6E010E4D6E0E
:10146800E60E4E6E7F0E4F6EB1C050F0B2C051F016
:10147800B3C052F0B4C053F024EC00F0140E1D6E4B
:10148800000E1E6E010E1F6E000E7FEC10F0100E87
:101498001D6E7E0E1E6E1F6A010E7FEC10F00BD0C3
:1014A8000001B051000AD8B473D7010AD8B4ABD739
:1014B800030AD8B4BAD75450120033C037F0386A88
:1014C800396A3234373601E3388037503C6E36C0DB
:1014D80037F0386A396A3534373601E3388037509F
:1014E8003B6E3C50D8B40AD03B503C5CD8B00DD0D1
:1014F8003C503B5C376E180E376407D034C031F06F
:1015080035C032F036C033F012003B50D8B40AD0A0
:101518003C503B5CD8B00DD03B503C5C376E180E4D
:10152800376407D031C031F032C032F033C033F005
:101538001200060E3A6E33BE3A8E36BE3A8C328EA2
:10154800FF0E3116FF0E3216000E3316358EFF0EC3
:101558003416FF0E3516000E36163B503C5CD8B0DC
:101568001BD0D8903436353636363B063C503B18BF
:10157800D8B40DD03A063AC037F0070E3716D8B4AB
:1015880006D0EFD7D8903332323231323C2A3B5032
:101598003C18D8B41FD0F6D73C503B5CD8B01AD012
:1015A800D8903136323633363C063C503B18D8B4E6
:1015B8000DD03A063AC037F0070E3716D8B406D021
:1015C800EFD7D8903632353234323B2A3B503C186C
:1015D800D8A4F7D73AAE0CD0FF0E311AFF0E321A44
:1015E800FF0E331A010E3126000E3222000E33226E
:1015F8003AAC0CD0FF0E341AFF0E351AFF0E361A0D
:10160800010E3426000E3522000E36223A6A315079
:101618003426325035223350362236AE0ED0FF0EE5
:10162800341AFF0E351AFF0E361A010E3426000E34
:101638003522000E3622010E3A6E34C005F035C050
:1016480006F036C007F03CC008F03AC009F0D2EC0A
:101658000FF005C031F006C032F007C033F01200B9
:1016680021501F24316E22502020326E32BE06D007
:10167800325003E1650E315CD8B0120032BE120060
:10168800325004E10F0E315CD8A012001FC00BF0DD
:1016980020C00CF0000E0E6E020E0D6E4DEC11F017
:1016A8000BC02DF00CC02EF031C00BF032C00CF086
:1016B800000E0E6E020E0D6E4DEC11F00BC024F0F4
:1016C8000CC025F02D50245C336E2E502558346EF6
:1016D80033C005F034C006F0C5EC16F005C026F09E
:1016E80006C027F02D503C082F6E2E50D8A0E82AAF
:1016F8000008306E34BE0AD0345003E13304D8A059
:1017080005D0010E2C6E2868296807D034AE120067
:101718002C6A000E296E010E286E000E2B6E000E2C
:101728002A6E24D0000E366E000E356E2C50D8B4BA
:1017380007D03550050F146E2F505EEC13F006D00D
:101748003550050F146E2F508FEC13F0354A362A9A
:1017580036BEECD7365004E10A0E355CD8A0E6D781
:1017680028502F26295030222A4A2B2A26502A5C14
:101778002B50800A236E2750800A2358D8B01200B5
:10178800D1D74DAE0CD0000E0001D06F210ECF6F17
:10179800000E4B6E000E4C6E000E4D6E12004B503C
:1017A8004C104D10D8A40CD0000E0001D06F220EA2
:1017B800CF6F000E4B6E000E4C6E000E4D6E120079
:1017C800000E166E000E176E400E186E4E0E086E46
:1017D8004BC005F04CC006F04DC007F0CFEC11F03F
:1017E80005C013F006C014F007C015F04BEC0DF05F
:1017F80013C031F014C032F015C033F0000E346E4F
:10180800800E356EBF0E366E61EC0AF031C04BF0BB
:1018180032C04CF033C04DF04E06D8A04F064BC036
:101828003DF04CC03EF04DC03FF03D0E406E7F0E87
:10183800416E000E436E080E426E14EC0FF03DC070
:101848004BF03EC04CF03FC04DF0720E166E310E9C
:10185800176E3F0E186E4EC00DF04FC00EF033ECF1
:1018680016F00DC013F00EC014F00FC015F04BECBD
:101878000DF013C031F014C032F015C033F04BC076
:1018880034F04CC035F04DC036F061EC0AF031C090
:101898004BF032C04CF033C04DF0120007C00BF0D3
:1018A8000C6A0D6A06340B3601E30C800B50136E7C
:1018B8001350D8A409D0000E056E000E066E000E57
:1018C800076E000E086E12000AC00BF00C6A0D6A53
:1018D80009340B3601E30C800B50126E1250D8B449
:1018E800EAD7068EFF0E0516FF0E0616000E07161F
:1018F800098EFF0E0816FF0E0916000E0A16000EB6
:101908000E6E000E0F6E000E106E000E116E7F0E22
:10191800135E1250980F135E180E126ED8900E3682
:101928000F36103611360850055C095006580A5013
:101938000758D8A007D00850055E0950065A0A5023
:10194800075A0E80D890053606360736122EE6D787
:1019580013AE0DD01350800A970FD8A0ACD7D890EB
:10196800113210320F320E32133EF9D70DD0170E46
:10197800136407D0A0D7D8900E360F36103611361C
:1019880013061350D8A4F7D70EC005F00FC006F001
:1019980010C007F011C008F0120007340834106EA8
:1019A8001050D8A409D0000E056E000E066E000E69
:1019B800076E000E086E12000A340B340F6E0F50BB
:1019C800D8B4F1D7078EFF0E0516FF0E0616FF0EC8
:1019D8000716000E08160A8EFF0E0816FF0E0916C7
:1019E800FF0E0A16000E0B16000E0B6E000E0C6E84
:1019F800000E0D6E000E0E6E7F0E105E0F50A00FC3
:101A0800105E200E0F6ED8900B360C360D360E3643
:101A18000850055C095006580A5007580B500858DA
:101A2800D8A009D00850055E0950065A0A50075A2E
:101A38000B50085A0B80D8900536063607360836FC
:101A48000F2EE1D710AE0DD01050800A9F0FD8A0EE
:101A5800AAD7D8900E320D320C320B32103EF9D77D
:101A68000DD01F0E106407D09ED7D8900B360C36B9
:101A78000D360E3610061050D8A4F7D70BC005F057
:101A88000CC006F00DC007F00EC008F0120015C01B
:101A980019F01A6A1B6A1434193601E31A801950AE
:101AA8001C6E1C50D8A407D0000E136E000E146EC6
:101AB800000E156E120018C019F01A6A1B6A173446
:101AC800193601E31A801950216E2150D8A407D085
:101AD800000E136E000E146E000E156E12002150CB
:101AE8007B0F1C2615C021F01850211A800E2116D4
:101AF800148E178EFF0E1616FF0E1716000E1816E8
:101B0800000E1D6E000E1E6E000E1F6E070E206E5C
:101B180013A006D016501D2617501E2218501F223B
:101B2800D890153214321332D89016361736183624
:101B3800202EEED7090E206E13A006D016501D26B3
:101B480017501E2218501F22D89015321432133203
:101B5800D8901F321E321D32202EEED71DC005F040
:101B68001EC006F01FC007F01CC008F021C009F015
:101B7800D2EC0FF005C013F006C014F007C015F042
:101B8800120059C00DF05AC00EF038EC17F00DC015
:101B980025F00EC026F00FC027F0C00E226E7F0E73
:101BA800236E440E246E38EC0EF022C031F023C0B0
:101BB80032F024C033F0000E346E800E356EBF0E46
:101BC800366E61EC0AF031C063F032C064F033C0A5
:101BD80065F063C04BF064C04CF065C04DF0C5ECD7
:101BE8000BF04BC060F04CC061F04DC062F0200EAD
:101BF800226E7D0E236E450E246E50C034F051C007
:101C080035F052C036F060C031F061C032F062C0C9
:101C180033F061EC0AF031C025F032C026F033C051
:101C280027F038EC0EF022C063F023C064F024C023
:101C380065F063C03DF064C03EF065C03FF0930EB0
:101C4800406E880E416E430E426E7FEC15F03DC02B
:101C580063F03EC064F03FC065F063C050F064C0FC
:101C680051F065C052F0120024C028F0296A2A6A8F
:101C78002334283601E3298028502F6E2F50D8A40A
:101C880007D0000E226E000E236E000E246E120086
:101C980027C028F0296A2A6A2634283601E32980D1
:101CA8002850306E3050D8A407D0000E226E000E97
:101CB800236E000E246E1200000E2C6E000E2D6E88
:101CC800000E2E6E3050890F2F5E24C030F0275042
:101CD800301A800E3016238EFF0E2216FF0E2316A2
:101CE800000E2416268EFF0E2516FF0E2616000E51
:101CF8002716180E2B6ED8902C362D362E362550DA
:101D0800225C2650235827502458D8A007D02550A5
:101D1800225E2650235A2750245A2C80D8902236E7
:101D2800233624362B2EE7D72CC005F02DC006F01D
:101D38002EC007F02FC008F030C009F0D2EC0FF029
:101D480005C022F006C023F007C024F012003FC0EF
:101D580041F0426A436A3E34413601E342804150D1
:101D68004B6E4B50D8A409D0000E3D6E000E3E6E4F
:101D7800000E3F6E000E406E1200170E416E3DC001
:101D880042F03EC043F03FC044F04128456E04D0C5
:101D9800D890443243324232452EFAD74250466EEA
:101DA8003E8EFF0E3D16FF0E3E16000E3F163D50AE
:101DB800476E3E50486E3F50496E4A6A8E0E4B5EE3
:101DC8004BAE0DD04B50800A8F0FD8A0CDD7D890EE
:101DD8004A324932483247324B3EF9D70DD0170EB6
:101DE8004B6407D0C1D7D8904736483649364A366B
:101DF8004B064B50D8A4F7D74650D8B408D04A1E43
:101E0800491E481E476C000E482249224A2247C0F4
:101E18003DF048C03EF049C03FF04AC040F01200D3
:101E2800030E4202F3CF44F0F4CF45F04302F350DF
:101E3800452644504024466E45504120476E46C0D2
:101E4800F6FF47C0F7FF0900F5CF48F00900F5CFC6
:101E580049F00A00F5CF4AF03BD048C016F049C017
:101E680017F04AC018F03DC013F03EC014F03FC050
:101E780015F04BEC0DF013C031F014C032F015C062
:101E880033F04206D8A04306030E4202F3CF44F0D3
:101E9800F4CF45F04302F350452644504024466EA3
:101EA80045504120476E46C0F6FF47C0F7FF09007E
:101EB800F5CF34F00900F5CF35F00A00F5CF36F04C
:101EC80061EC0AF031C048F032C049F033C04AF042
:101ED80042504310D8A4C1D748C03DF049C03EF095
:101EE8004AC03FF01200CD0E166ECC0E176E3E0E95
:101EF800186E4CC040F04DC041F04EC042F0000E8C
:101F08003D6EC80E3E6E410E3F6E7FEC15F03DC033
:101F180013F03EC014F03FC015F04BEC0DF013C0A9
:101F280052F014C053F015C054F052C031F053C0F1
:101F380032F054C033F0000E346E000E356E3F0E92
:101F4800366E61EC0AF031C04FF032C050F033C049
:101F580051F04FC034F050C035F051C036F092C245
:101F68000DF093C20EF038EC17F00DC031F00EC032
:101F780032F00FC033F061EC0AF031C03DF032C0EE
:101F88003EF033C03FF0ABEC0EF03DC055F03EC024
:101F980056F055C04CF056C04DF012000850D8B459
:101FA80005D0055006100710D8A40CD0000E056EF9
:101FB800000E066E000E076E1200082AD89007322F
:101FC80006320532000E05140A6E000E06140B6E5A
:101FD800FE0E07140C6E0A500B100C10D8B40CD05F
:101FE800ECD7082A010E0526000E0622000E07224D
:101FF800D890073206320532000E05140A6E000E1C
:1020080006140B6EFF0E07140C6E0A500B100C1002
:10201800D8B406D0E6D70806D8900536063607366F
:1020280006BE03D0020E0860F6D708A0069ED89018
:102038000832085007120950D8A4078E05C005F0C9
:1020480006C006F007C007F01200C230E8321F0BC6
:10205800546E54500001BE6FBF6B060EBE19BF11FF
:10206800D8A416D07E0E4C6E4D6AC60E4E6E7F0EEC
:102078004F6E59C050F05AC051F024EC00F00B0ECE
:102088001D6E7E0E1E6E1F6A060E7FEC10F01AD0B3
:10209800070EBE19BF11D8A415D07E0E4C6E4D6A1E
:1020A800D10E4E6E7F0E4F6E59C050F05AC051F08F
:1020B80024EC00F00B0E1D6E7E0E1E6E1F6A070EBE
:1020C8007FEC10F07E0E4C6E4D6A930E4E6E7F0EB6
:1020D8004F6EC230E8321F0B546E5450506E516A26
:1020E80024EC00F00B0E1D6E7E0E1E6E1F6A050E90
:1020F8007FEC10F01200206E000E226E000E216E92
:102108001BD01D502124106E1EC0F6FF1FC0F7FF04
:10211800F86A050EF76403D00800F55005D0F6CF2D
:10212800D9FFF7CFDAFFDF50116E20504BEC12F0D9
:102138001E4A1F2A214A222A1EC0F6FF1FC0F7FF87
:10214800F86A050EF76403D00800F55005D0F6CFFD
:10215800D9FFF7CFDAFFDF500A0AD8B412001EC041
:10216800F6FF1FC0F7FFF86A050EF76403D00800F2
:10217800F55005D0F6CFD9FFF7CFDAFFDF500009C9
:10218800D8B41200BED7BA94D59E0F01386B3A6BFB
:10219800396B3B6B3C69870E946E926A956A060EA2
:1021A800966E9682936A806A826A836A816AD09EF2
:1021B800F28EF28C890EC06EC16A190EC26EC250C0
:1021C800830B1809C26E9D8C9E9CD59CD59AD5967A
:1021D800D598D550F80B0109D56E9680496B0C0E31
:1021E8005D6F9E929D82030EBA6E7C0EBB6E5D8BF8
:1021F8003E0E5E6FF294F28A900EAB6E080EB86EC9
:10220800240EAC6EB06A100EAF6E9D8A12000A6E74
:1022180006C008F005C009F0082A02D0D890093293
:10222800082EFCD70950010B0D6E06C008F00AC035
:1022380009F0082A02D0D8900932082EFCD7095094
:10224800010B0E6E0704D8A40CD00B6A0D50D8B43D
:1022580005D00E50D8A402D0010E0B6E0BC00FF0A3
:102268000BD00C6A0D50D8A405D00E50D8B402D0AB
:10227800010E0C6E0CC00FF00F50D8B408D01A0E17
:10228800086EF80EE82EFED7082EFCD700D00F50A7
:102298001200106A0EAE06D00D6C0E1ED8B00E2AB3
:1022A800010E106E0CAE06D00B6C0C1ED8B00C2AAA
:1022B800010E101A000E126E000E116E0D500E1047
:1022C800D8B41CD0010E0F6E04D0D8900D360E363F
:1022D8000F2A0EAEFAD7D890113612360D500B5C75
:1022E8000E500C58D8A005D00D500B5E0E500C5A4D
:1022F8001180D8900E320D320F2EEDD71050D8B471
:1023080004D0116C121ED8B0122A11C00BF012C0E2
:102318000CF01200000E0D6E000E0E6E000E0F6E09
:10232800000E106E09500A100B100C10D8B42AD0E9
:10233800010E116E06D0D89009360A360B360C36C7
:10234800112A0CAEF8D7D8900D360E360F36103647
:102358000950055C0A5006580B5007580C5008588D
:10236800D8A009D00950055E0A50065A0B50075AE2
:102378000C50085A0D80D8900C320B320A320932B0
:10238800112EE1D70DC005F00EC006F00FC007F002
:1023980010C008F01200055006100710D8A40CD081
:1023A8000850D96EDA6ADE6ADD6A000E056E000E24
:1023B800066E000E076E120007507F0B096E0A6A40
:1023C800D89009360A360850D96EDA6A09C0DEFF95
:1023D8000AC0DDFF0850D96EDA6A06AE03D0096A72
:1023E800092A01D0096A0950DE12000EDD120850D0
:1023F800D96EDA6A820EDE26FF0EDD220750800BC8
:102408003F09076E069E05C005F006C006F007C026
:1024180007F01200000E1D6E000E1C6E000E1F6EDF
:10242800000E1E6E29D0000E216E000E206E18D0F0
:10243800125020240A6E1C5018241A6E1D501920A0
:102448001B6E1AC0F6FF1BC0F7FF0800F5CF0BF094
:1024580010501E244CEC14F01C4A1D2A204A212A34
:102468001650205C2150800A1A6E1750800A1A589C
:10247800D8A0DED71E4A1F2A14501E5C1F50800A9F
:102488001A6E1550800A1A58D8B01200CCD7186E98
:10249800E00E1124126E136AFF0E1322050E1202AB
:1024A800F3CF14F0F4CF15F01302F350152614C02F
:1024B80019F015C01AF01050050DF3CF10F0000EEA
:1024C8001C6E000E1B6ED30E1924F66E780E1A20A1
:1024D800F76E0800F550166E176A10C00AF016C09D
:1024E8000BF018504CEC14F0102A194A1A2A1B4AFF
:1024F8001C2A1CBEE8D71C5005E1050E1B5CD8B091
:102508001200E1D7120007AE0FD0000E0B6E000EBE
:102518000C6E800E0D6E05500B5C056E06500C5847
:10252800066E07500D58076E0AAE0FD0000E0B6EE0
:10253800000E0C6E800E0D6E08500B5C086E095074
:102548000C58096E0A500D580A6E000E051A000E36
:10255800061A800E071A000E081A000E091A800EB5
:102568000A1A0850055C095006580A500758D8B08E
:1025780002D0D8901200D88012000A6A06AE06D09F
:10258800056C061ED8B0062A010E0A6E08AE04D0E5
:10259800076C081ED8B0082A07500810D8B418D0FD
:1025A800010E096E04D0D89007360836092A08AEFD
:1025B800FAD70750055C08500658D8A004D0075031
:1025C800055E0850065AD89008320732092EF1D70E
:1025D8000A50D8B404D0056C061ED8B0062A05C027
:1025E80005F006C006F01200300EF66E2F0EF76EDC
:1025F800000EF86E0900F5CF97F20900F5CF98F2B2
:10260800160EF66E2F0EF76E000EF86E00EEC2F084
:1026180010EE0DF00900F5CFEEFFE550E150FAE1BC
:102628000201966B956B946B936B926B0001D36B65
:10263800D26BD16BD06BCF6B5A6A596A586A576A9A
:102648005B905B92000EF86E0001EAEF06F0165000
:10265800171018101910D8B424D0010E1A6E06D00D
:10266800D89016361736183619361A2A19AEF8D7EA
:102678001650125C17501358185014581950155802
:10268800D8A008D01650125E1750135A1850145A72
:102698001950155AD89019321832173216321A2E84
:1026A800E7D712C012F013C013F014C014F015C00D
:1026B80015F012001E6E1EC015F0D8901532D89075
:1026C8001532D890153215501C6E1D6A1EC015F0B3
:1026D800070E1516010E166E000E176E152A03D07A
:1026E800D89016361736152EFBD716C018F017C017
:1026F80019F014C011F01C5014EC17F0156E155099
:102708001A6E1B6A14C00AF018501A100B6E1C506F
:102718004CEC14F012001E6E1EC015F0D890153245
:10272800D8901532D890153215501C6E1D6A1EC0EF
:1027380015F0070E1516010E166E000E176E152AE7
:1027480003D0D89016361736152EFBD7161C186EE0
:10275800171C196E14C011F01C5014EC17F0156EEC
:1027680015501A6E1B6A14C00AF018501A140B6E12
:102778001C504CEC14F012000C6E400E0A6004D091
:10278800000E0E6E010E03D0000E0E6E020E0D6EC0
:102798000DC010F00B50D8B406D00C5067EC17F0F1
:1027A8000A50DEEC15F0105098EC16F09568936A14
:1027B8001004D8B48190020E1018D8B48192818682
:1027C800818400008188000083CF0FF08198818088
:1027D80081820F501200166E16C017F0186A1CD0AE
:1027E80011C019F01A6A09D019C00AF0000E0B6E50
:1027F80017504CEC14F0194A1A2A1250136E146A26
:102808001950135C1450800A156E1A50800A155816
:10281800D8B0EAD7174A182A1050136E146A1750FE
:10282800135C1450800A156E1850800A1558D8A0E9
:102838001200D6D78E0E156E06D0D89010320F32F1
:102848000E320D32152A000E0D14116E000E0E14E4
:10285800126E000E0F14136EFF0E1014146E11502A
:10286800121013101410D8A4E8D70DC005F00EC02C
:1028780006F00FC007F015C008F0000E096ED2EC84
:102888000FF005C00DF006C00EF007C00FF01200E3
:102898000C6E400E0A6004D0000E0E6E010E03D0BE
:1028A800000E0E6E020E0D6E0DC00FF00C5067EC90
:1028B80017F00A50DEEC15F00F5098EC16F0936AFA
:1028C8000F04D8B48190020E0F18D8B48192819663
:1028D80081840000818800000BC083FF956A000096
:1028E800819881808182120005500001D403F3CFC2
:1028F80007F0F4CF08F0D503F35008260650D403A8
:10290800F350082607C00DF008C00EF00DC007F000
:102918000EC008F00834083207320834083207328B
:1029280007C009F008C00AF0030E0D140B6E0C6AFC
:102938000B38F00B0F015D1309C05EFF12000CC0CD
:1029480005F00DC006F0000E086E0A0E076E3DEC8D
:1029580015F005C012F006C013F00CC005F00DC04C
:1029680006F0000E086E0A0E076ECCEC14F005C0D7
:102978000CF006C00DF00CC010F00DC011F010C026
:102988000CF011C00DF012C00EF013C00FF01200C1
:10299800000E0A6E000E096E07500810D8B41CD03D
:1029A800010E0B6E04D0D890073608360B2A08AEF5
:1029B800FAD7D89009360A360750055C08500658E9
:1029C800D8A005D00750055E0850065A0980D8904F
:1029D800083207320B2EEDD709C005F00AC006F001
:1029E8001200000E4C6E010E4D6EBA0E4E6E7F0E2A
:1029F8004F6E92C250F093C251F07EC052F07FC029
:102A080053F024EC00F0000E1B6E000E1D6E0B0E32
:102A18001C6E000EAFEC16F0000E1D6E000E1E6E42
:102A2800010E1F6E000E7FEC10F01200056E15D01F
:102A3800010E066EBA84D58E1AD0020E066EBA94AE
:102A4800D59E15D0000E0201986F640E976F3C0E4C
:102A5800D76EB00ED66E066A0AD00550000AD8B4F2
:102A6800E7D7010AD8B4E9D7030AD8B4EBD7065098
:102A7800120007500810D8B418D0010E096E04D0FF
:102A8800D89007360836092A08AEFAD70750055CE9
:102A980008500658D8A004D00750055E0850065ABA
:102AA800D89008320732092EF1D705C005F006C0C4
:102AB80006F012000AD006C0F6FF07C0F7FF0800AC
:102AC800F55092EC17F0064A072A06C0F6FF07C031
:102AD800F7FF0800F5500009D8A4EDD706C0F6FFA7
:102AE80007C0F7FF0800F5500009D8A412000D0E22
:102AF80092EC17F01200405041104210D8B406D0A2
:102B0800000E401A000E411A800E421A3DC031F0E4
:102B18003EC032F03FC033F040C034F041C035F021
:102B280042C036F061EC0AF031C03DF032C03EF0F0
:102B380033C03FF01200AECF01F00FD0010E576E38
:102B48001200010E0201956F1200010E0001D36FF1
:102B58001200010E0201946F12000150610AD8B4EC
:102B6800F0D7050AD8B4F5D7170AD8B4EED7040AAF
:102B7800D8A41200E3D7C230E8321F0B056E055007
:102B8800066E076A060E06180710D8A404D0000EB1
:102B9800096E070E03D0000E096E060E086E08C0F7
:102BA80005F005460546C2500518830B0518C26E88
:102BB800C2821200096E400E09600CD0010E076E29
:102BC8000950400968EC16F0020E076E400E68ECDA
:102BD80016F01200010E076E7F0E68EC16F0020E5A
:102BE800076E0950C00F400968EC16F012000A6E13
:102BF8000C6A0950D8B415D0010E0B6E03D0D890CA
:102C080009360B2A09AEFBD7D8900C3609500A5C56
:102C1800D8A003D009500A5E0C80D89009320B2E38
:102C2800F3D70C501200C350C4CF01F0026A01C0A0
:102C380002F0016A0110036E0250046E5950031825
:102C480004E15A500418D8B402D0010E01D0000E85
:102C58000201966F03C059F004C05AF01200106ABE
:102C68000EAE06D00D6C0E1ED8B00E2A010E106ED8
:102C78000DC005F00EC006F0076A8E0E086E10C073
:102C880009F0D2EC0FF005C00DF006C00EF007C039
:102C98000FF012000550922706509323935109E133
:102CA800100E925DD8B005D0000E936F0F0E926F84
:102CB8001200935104E1640E925DD8A01200000E38
:102CC800936F640E926F1200086E075098EC16F01E
:102CD800936A0704D8B48190020E0718D8B4819279
:102CE8008196819400008188000008C083FF956A5E
:102CF8000000819881808182120005C007F006C01B
:102D080008F002D0074A082A07C0F6FF08C0F7FFF4
:102D18000800F5500009D8A4F5D70550075C056EE2
:102D280006500858066E1200066E9568936A0604E7
:102D3800D8B48190020E0618D8B481928186819405
:102D480000008188000083CF05F0819805BEF9D77F
:102D5800818081821200206E1B50050DF3CF21F077
:102D68001C50050DF35021241E6E1E041F6E20C03A
:102D780010F021C011F01FC012F02050EFEC13F03A
:102D8800120006AE0DD005C007F006C008F0071EF9
:102D9800081E074A082A07C005F008C006F01200F6
:102DA80005C005F006C006F01200066E080E076E94
:102DB800086AD89006340834086ED890063605504C
:102DC800085CD8A002D00550085E072EF2D708503C
:102DD800120009C005F00AC006F081EC16F0D89080
:102DE80006300C6E05300B6E0B500D08096E0C503A
:102DF800D8A0E82A00080A6E120005500702F3CF8F
:102E080009F0F4CF0AF005500802F3500A260650DC
:102E18000702F3500A2609C005F00AC006F012009E
:102E2800136E11C00AF0010E0B6E1350C0EC13F0B4
:102E380011C00AF0010E0B6E1350C0EC13F0126EA5
:102E480012501200055006100710D8B406D0000E14
:102E5800051A000E061A800E071A05C005F006C0EE
:102E680006F007C007F012000DC005F00EC006F00E
:102E7800076A8E0E086E000E096ED2EC0FF005C0C0
:102E88000DF006C00EF007C00FF01200818A010E87
:102E9800076E3F0E68EC16F0020E076E3F0E68ECE8
:102EA80016F0000E75EC17F01200076E066A3A0E5F
:102EB800076005D02F0E076402D0010E066E06C00B
:102EC80005F005301200096E010E076E0950B809A9
:102ED80068EC16F0020E076E0950B80968EC16F097
:102EE8001200096E010E076E0950C00968EC16F051
:102EF800020E076E0950C00968EC16F012000201B4
:102F08009707D8A09807010E0001CE6F1200A17F85
:0B2F1800847F717F587F05003C0001A2
:102F2400056EACA2FED705C0ADFF1200640012000E
:1078D20000000000000000005F0000000700070039
:1078E200147F147F14242A7F2A1223130864623619
:1078F200495522500005030000001C2241000041AE
:10790200221C00082A1C2A0808083E0808005030D9
:1079120000000808080808003030000020100804A1
:10792200023E5149453E00427F4000426151494674
:107932002141454B311814127F1027454545393CEA
:107942004A49493001710905033649494936064910
:1079520049291E0036360000005636000000081481
:107962002241141414141441221408000201510972
:1079720006324979413E7E1111117E7F49494936CD
:107982003E414141227F4141221C7F494949417F79
:10799200090901013E414151327F0808087F004137
:1079A2007F41002040413F017F081422417F404037
:1079B20040407F0204027F7F0408107F3E41414124
:1079C2003E7F090909063E4151215E7F0919294678
:1079D200464949493101017F01013F4040403F1F73
:1079E2002040201F7F2018207F63140814630304A3
:1079F200780403615149454300007F414102040874
:107A0200102041417F000004020102044040404036
:107A120040000102040020545454787F4844443802
:107A22003844444420384444487F38545454180855
:107A32007E090102081454543C7F0804047800446F
:107A42007D40002040443D00007F10284400417FDB
:107A520040007C041804787C0804047838444444C8
:107A6200387C14141408081414187C7C08040408C4
:107A72004854545420043F4440203C4040207C1C45
:107A82002040201C3C4030403C44281028440C50EC
:107A920050503C4464544C44000836410000007F7E
:107AA2000000004136080008082A1C08081C2A08A1
:107AB200080801AA01080038383800000000000058
:107AC200000000000000803F00204100C842007A10
:107AD20044401C4650C34724744997184BBCBE4CC3
:107AE2006B6E4E03155079AD60F3497100803FCD46
:107AF200CC3DD7233C12833AB7D138C627373886D4
:107B020035C0D633CC2B32708930E7DB2EE53C1EF4
:107B120042A20DFFFF030303030303030303030353
:107B22000303030303030303E33373C3030303F3F3
:107B320003030303F303031313F3F3131383E33373
:107B4200131313E3C3030303030303F30303F3F363
:107B520073C30303F30303F3F313131303F3F303E3
:107B620003030303E33373C3030303F3F313133373
:107B7200E3C303C3E313131333E3C303F3F3939393
:107B8200F363030303030303030303030303030373
:107B920003FFFFFFFF000000C070789818781838C4
:107BA200E0C000000000888F030202030E080007F5
:107BB2000C08080C07000000000F0F000003070C60
:107BC20008080807030001010100000F00000F0F61
:107BD2000001070E0F00000F0F010101000F0F0837
:107BE2000808080F030202030E08000F0F08080C12
:107BF20007030003070808080C0703000F0F000023
:107C0200070E00000000000000000000000000005D
:107C120000FFFFFFFF0000007FC1021C46180304A3
:107C22000003071C3E0701F1FF0F000000000000E7
:107C32000000000000000000000000000000000042
:107C4200000000000080C06060301018180C0404AE
:107C5200040C18386060C0800000000000000000C2
:107C62000000000000000000000000000000008092
:107C7200C0C0E0E0F0F0F0F8F8F8F8F8F8F8F8F83A
:107C8200F0F0F0E0E0C0C080000000000000000062
:107C920000FFFFFFFF00000000030F3C70E0808048
:107CA200000000000000F07F63C0800000000000C0
:107CB20000000000000000000000000000000000C2
:107CC20000C0E0783E030100000070ECF4F478009C
:107CD20000E0D8E8E8D8008FFF00000000000000B4
:107CE200000000000000000000C0F0F8FEFF7F3F2F
:107CF2007FFFE7C3830101010000FFFFFF000001D6
:107D0200010183C3E7FF7F3F7FFFFEF8F0C08000E1
:107D120000FFFFFFFF00000000000000FEE701037C
:107D22000C18000000000000000087FF70E0808057
:107D320080808080808080000000000000000000C1
:107D42003FF3C08000000000000400081931303009
:107D5200303011111900000081FF7E000000000088
:107D620000000000000000F8FFFFFFFFCFC1C0C00D
:107D7200C0C0C1C3C7CFDEFCF8F0FFFFFFF0F8FCC4
:107D8200DECFC7C3C1C0C0C0C0C1C7FFFFFFFFF87D
:107D920000FFFFFFFF00000000000000001F7FE661
:107DA200CC8C080808080C0C06038381E0791F03B9
:107DB20007FFFB03071D79E10302060E7AF20202B6
:107DC2000203030307060A0004000000000000008B
:107DD200000000001C1C363263C1C080000000009D
:107DE20000000000000000073FFFFFFFF9E18101F2
:107DF2000181C1E1F1793D1F0F07FFFFFF070F1F4F
:107E02003D79F1E1C181010181C1F9FFFFFF7F0FDE
:107E120000FFFFFFFF000000000000000000000064
:107E22000101030E1E1E366666E3E1E1A030101862
:107E32000E8781C0E0701E0F00008080F07F47C077
:107E42008080808000000000000000000000000030
:107E5200000000000000000000000001030F1FFAF4
:107E6200C6061C78E0000000000003071F3F3F7FAA
:107E7200FFFFFBF1F0E0E0E0C0C0FFFFFFC0C0E0A9
:107E8200E0E0F0F1FBFFFF7F3F3F1F07030100002F
:107E920000FFFFFFFFC0C0C0C0C0C0C0C0C0C0C0A4
:107EA200C0C0C0C0C0C0C0C0C0C0C1C1C1C3C7C7BC
:107EB200C7FDFDCCCCC4C6C6C6C3C1C1C0C0C0C00C
:107EC200C0C1C1C1C1C1C3C2C2C6C6C6C6C6C4C47E
:107ED200C4CCCCCCC8C8C8C8C8C8C8C8CCCCCCFFD5
:107EE200E3C0C0F0FFFBF0C0C0C0C0C0C0C0C0C093
:107EF200C0C0C1C1C3C3C3C7C7C7C7C7C7C7C7C736
:107F0200C3C3C3C1C1C0C0C0C0C0C0C0C0C0C0C064
:107F1200C0FFFF010000000A00000064000000E84A
:107F220003000010270000A086010040420F0080DD
:107F320096980000E1F50500CA9A3B000000008017
:107F42003FF0FFBEE2A93E8376BEAE2B3E3CC3BDF0
:107F5200D2133D78D3BB486563746F722046646563
:107F62007A2E20646520536576696C6C610A004143
:107F72006E67656C20412E205175696E6F6E657358
:107F82000A002D2D2D2D2D2D2D2D2D2D2D2D2D0A92
:107F920000414443204348414E3A2025640A004CA4
:107FA200372050726F6A656374650A0052756E6E8F
:107FB200696E672E2E2E0A002533642061646A3AA8
:107FC2002533640041444320363A2025640A0041A7
:107FD200444320373A2025640A0053746F70706559
:107FE20064210A00253032642E2530640A0052656D
:0D7FF2006164790A00252E326620430000EC
:020000040030CA
:0E000000FF021900FFA180FF0FC00FE00F40AC
:00000001FF
